:040000006AEF00F0B3
:100008002482FACF01F0FBCF02F0E9CF03F0EACF68
:1000180004F0E1CF05F0E2CF06F0D9CF07F0DACF50
:1000280008F0F3CF09F0F4CF0AF0F6CF0BF0F7CFD2
:100038000CF0F8CF0DF0F5CF0EF024C00FF025C06E
:1000480010F026C011F027C012F0F2A003D0F290F1
:10005800010E206EA4AA14D0A49A2250010D150EE8
:10006800F324D96E000EF420DA6E74CFDFFF222A53
:10007800060E2218D8A404D0010E1F6E000E226EA0
:1000880012C027F011C026F010C025F00FC024F0D0
:100098000EC0F5FF0DC0F8FF0CC0F7FF0BC0F6FF50
:1000A8000AC0F4FF09C0F3FF08C0DAFF07C0D9FF90
:1000B80006C0E2FF05C0E1FF04C0EAFF03C0E9FF94
:1000C80002C0FBFF01C0FAFF24921100B7EF00F055
:1000D800D39ED3508F0B6009D36ED386010E0F01C8
:1000E800386F928092968996000E3A6F8A86939618
:1000F800828C949C8B8E948E000E396F93809482A0
:10010800938293848B8894989388938A818C939C08
:10011800938E8092929212006CEC00F0C2EC00F088
:10012800AAEC00F0CDEC00F01F50D8B4FDD78A96A9
:10013800030E146E080E136E770EE82EFED7132EDC
:10014800FCD7142EFAD700F08A86EED7938E939CAC
:100158007294CF0E756E7298260E726E900E716E36
:10016800C80E706E120000EE15F00F0EEE6AE8066B
:10017800FDE124902492000190EF00F06288F2865D
:10018800F290F28CD09E100E626EF286F28CF28E95
:0C0198001200F29EA38AA49AF28E1200BC
:020000040020DA
:08000000FFFFFFFFFFFFFFFF00
:020000040030CA
:0E000000FF291F22FF3D81FF00000FE00F408F
:00000001FF
