:040000008AEF00F093
:100008001782FACF01F0FBCF02F0E9CF03F0EACF75
:1000180004F0E1CF05F0E2CF06F0D9CF07F0DACF50
:1000280008F0F3CF09F0F4CF0AF0F6CF0BF0F7CFD2
:100038000CF0F8CF0DF0F5CF0EF017C00FF018C088
:1000480010F019C011F01AC012F0F0509EAA07D093
:100058009E9AABB482BE01D0FF00AECFADFFF2A432
:100068002FD0F294142A132A11D0000E146E1650B1
:10007800D8B402D0000E01D0010E166E16B002D010
:10008800819601D0818687EC08F016D014500A0AB0
:10009800D8B4EBD711D0000E136E1550D8B402D0D7
:1000A800000E01D0010E156E15B002D0829801D055
:1000B800828887EC08F004D01350010AD8B4EBD733
:1000C80012C01AF011C019F010C018F00FC017F0C4
:1000D8000EC0F5FF0DC0F8FF0CC0F7FF0BC0F6FF10
:1000E8000AC0F4FF09C0F3FF08C0DAFF07C0D9FF50
:1000F80006C0E2FF05C0E1FF04C0EAFF03C0E9FF54
:1001080002C0FBFF01C0FAFF179211004AEF08F086
:1010000000415423534346473D312C332C33303079
:101010002C39302C3630302C35300D0A0041542B11
:10102000434744434F4E543D332C224950222C22F7
:101030000041542353474143543D332C310D0A00A2
:0110400000AF
:10104200D39ED3508F0B6009D36ED386010E0F014E
:10105200386F928092968096000E3A6F81869396B0
:10106200828C949C8B8E948E000E396F9380948226
:101072008A8293828A849384828894988A889388C5
:101082008A8A938A8A8C939C818E938E8092929282
:101092001200180EF66E110EF76E000EF86E0900B1
:1010A200F5CF15F00900F5CF16F0146A136A179000
:1010B2001792000EF86E00016DEF08F0260EAC6E6E
:1010C200900EAB6EC80EB86E670EAF6E000EB06EAD
:1010D200F28C9D8AF28E120021EC08F05FEC08F08F
:1010E20078EC08F082EC08F0D1900400FFD7870E6C
:1010F200D56EF30ED66EFC0ED76EF294F28AF28E95
:101102001200F30ED66EFC0ED76E1200F30ED66EE0
:08111200FC0ED76E1200010172
:020000040020DA
:08000000FFFFFFFFFFFFFFFF00
:020000040030CA
:0E000000FF681920FF3D81FF0FC007E00F4091
:00000001FF
