:040000001BEF0CF0F6
:10100000004154234750494F3D372C302C320D0AB4
:101010000041542B4950523D3131353230300D0AA8
:10102000002B4350494E3A20524541445900415407
:1010300023534C45443D340D0A0041542B43504941
:101040004E3F0D0A0041542343474D520D0A0030D4
:10105000303030230031313131230041540D0A004A
:10106000312300E407E407E407E407230023002317
:101070000023002300010A0A020014012D0F0100C1
:10108000F2CF3DF0F29EF29EF29C000E016E000E39
:10109000E9EC0CF03818D8A410D0010E016E000E47
:1010A000E9EC0CF03918D8A408D0020E016E000E3D
:1010B000E9EC0CF03A18D8B41200000E066E100ECF
:1010C000076E000E096E13D00950010D730EF32444
:1010D000F66E100EF420F76E0800F5CF08F00750FA
:1010E0000924016E08C002F006506BEC0CF0092ACE
:1010F0000904046E200E046004D0230E0818D8A43E
:10110000E3D7000E066E300E076E000E086E000E5E
:10111000096E14D00950010D710EF324F66E100EF5
:10112000F420F76E0800F5CF08F007500924016E8F
:1011300008C002F006506BEC0CF0092A230E0818C8
:10114000D8A4E8D7000E066E500E076E000E086E8B
:10115000000E096E14D00950010D6F0EF324F66EC7
:10116000100EF420F76E0800F5CF08F007500924A0
:10117000016E08C002F006506BEC0CF0092A230E39
:101180000818D8A4E8D7000E066E700E076E000E81
:10119000086E000E096E14D00950010D6D0EF32477
:1011A000F66E100EF420F76E0800F5CF08F0075029
:1011B0000924016E08C002F006506BEC0CF0092AFD
:1011C000230E0818D8A4E8D7000E066E900E076EFE
:1011D000000E086E000E096E14D00950010D6B0E42
:1011E000F324F66E100EF420F76E0800F5CF08F029
:1011F00007500924016E08C002F006506BEC0CF099
:10120000092A230E0818D8A4E8D7000E066EB00EDF
:10121000076E07C001F0690EF66E0900F5CF04F005
:101220000900F5CF05F005C004F0056A0450026E10
:1012300006506BEC0CF00728016E690EF66E080084
:10124000F5CF02F006506BEC0CF0000E066EB20EFD
:10125000076E07C001F0670EF66E0900F5CF04F0C7
:101260000900F5CF05F005C004F0056A0450026ED0
:1012700006506BEC0CF00728016E670EF66E080046
:10128000F5CF02F006506BEC0CF0000E066EB40EBB
:10129000076E07C001F0650EF66E0900F5CF04F089
:1012A0000900F5CF05F005C004F0056A0450026E90
:1012B00006506BEC0CF00728016E650EF66E080008
:1012C000F5CF02F006506BEC0CF0000E066EB60E79
:1012D000076E07C001F0630EF66E0900F5CF04F04B
:1012E0000900F5CF05F005C004F0056A0450026E50
:1012F00006506BEC0CF00728016E630EF66E0800CA
:10130000F5CF02F006506BEC0CF0000E066EC00E2E
:10131000076E000E086E000E096E14D00950010D04
:10132000550EF324F66E100EF420F76E0800F5CF7C
:1013300008F007500924016E08C002F006506BEC5B
:101340000CF0092A230E0818D8A4E8D7C70E016E9E
:101350007E0EF66E0800F5CF02F0000E6BEC0CF07E
:10136000C80E016E7D0EF66E0800F5CF02F0000E7D
:101370006BEC0CF0C90E016E7C0EF66E0800F5CF1A
:1013800002F0000E6BEC0CF0B80E016E760EF66EED
:101390000800F5CF02F0000E6BEC0CF0000E066EAC
:1013A000CA0E076E000E086E000E096E14D00950AA
:1013B000010D4F0EF324F66E100EF420F76E0800A8
:1013C000F5CF08F007500924016E08C002F006505E
:1013D0006BEC0CF0092A230E0818D8A4E8D7000EED
:1013E000066ED00E076E000E086E000E096E14D049
:1013F0000950010D600EF324F66E100EF420F76E06
:101400000800F5CF08F007500924016E08C002F06B
:1014100006506BEC0CF0092A230E0818D8A4E8D764
:10142000B90E016E7B0EF66E0800F5CF02F0000ECD
:101430006BEC0CF0BA0E016E7A0EF66E0800F5CF6A
:1014400002F0000E6BEC0CF0BB0E016E790EF66E26
:101450000800F5CF02F0000E6BEC0CF0BC0E016E34
:10146000780EF66E0800F5CF02F0000E6BEC0CF073
:10147000BD0E016E770EF66E0800F5CF02F0000E7D
:101480006BEC0CF0E00E016E750EF66E0800F5CFF9
:1014900002F0000E6BEC0CF00F0E016E000E026EEF
:1014A000000E6BEC0CF0000E016E38C002F0000E66
:1014B0006BEC0CF0010E016E39C002F0000E6BEC0B
:1014C0000CF0020E016E3AC002F0000E6BEC0CF054
:1014D000120007C002F008C003F009C004F09AEC43
:1014E0000CF0000E0001C76F0DC0C5F09D9AAB88CF
:1014F0000C50D8A485D0010E120013EC0DF07DD055
:101500009EAA7BD0AECFC4F00001C751010D600E82
:10151000F324D96E000EF420DA6EC4C0DFFFC72BAF
:10152000630EC76502D0630EC76FC7C00EF0FF0E13
:101530000E260E50010D600EF324D96E000EF4201D
:10154000DA6E4F0EDE18D8A428D0C751010D600EF8
:10155000F324D96E000EF420DA6E4B0EDE18D8A4F8
:101560001CD09D8AAB98000EC66F11D0C651010DDC
:10157000600EF324D96E000EF420DA6E0AC0E1FF8B
:101580000BC0E2FFDFCFE7FF0A4A0B2AC62BC6518A
:10159000C75DD8B0EBD7010E1200C7C00EF0FE0E2B
:1015A0000E260E50010D600EF324D96E000EF420AD
:1015B000DA6E450EDE18D8A420D0C7C00EF0FF0E9C
:1015C0000E260E50010D600EF324D96E000EF4208D
:1015D000DA6E520EDE18D8A410D0C751010D600E7D
:1015E000F324D96E000EF420DA6E520EDE18D8A461
:1015F00004D09D8AAB98000E1200A1A281D7A192BF
:101600000001C507C529D8A478D7B1909D8AAB98A9
:10161000000E1200140E366E010EF66E20EE10F063
:101620000F0E0900F5CFDEFFE806FBE2450EF66E71
:1016300020EE2CF0090E0900F5CFDEFFE806FBE2F4
:101640002E0EF66E20EE20F00B0E0900F5CFDEFF19
:10165000E806FBE2100E076E000E086E100E096E13
:10166000000E0A6E010E0B6E010E0C6E280E0D6E32
:1016700069EC0AF00009D8A402D0362EEBD7365018
:10168000D8A402D0000E1200140E366E2C0E076E77
:10169000000E086E0A0E096E000E0A6E010E0B6E29
:1016A000010E0C6E280E0D6E69EC0AF00009D8A42C
:1016B00002D0362EEBD73650D8A402D0000E12003E
:1016C000140E366E200E076E000E086E0C0E096E9C
:1016D000000E0A6E010E0B6E010E0C6E280E0D6EC2
:1016E00069EC0AF00009D8A402D0362EEBD73650A8
:1016F000D8A402D0000E1200010E12005B0EF66E8E
:1017000020EE20F0040E0900F5CFDEFFE806FBE234
:10171000110EF66E20EE10F00F0E0900F5CFDEFF71
:10172000E806FBE2140E256E200E076E000E086E12
:10173000050E096E000E0A6E010E0B6E010E0C6E88
:10174000280E0D6E69EC0AF00009D8A402D0252EEF
:10175000EBD72550D8A402D0000E1200140E256E2F
:10176000100E076E000E086E100E096E000E0A6E47
:10177000010E0B6E010E0C6E280E0D6E69EC0AF058
:101780000009D8A402D0252EEBD72550D8A402D02A
:10179000000E1200010E1200D39ED3508F0B600971
:1017A000D36ED386010E0F01386F92809296899680
:1017B000000E3A6F8A869396828C949C8B8E948EC0
:1017C000000E396F938094828A8293828A849384F4
:1017D0008B8894988A8893888A8A938A8A8C939C27
:1017E000818E938E8092929212008996330E026EB1
:1017F000BB0E016EE00EE82EFED7012EFCD7022EA6
:10180000FAD78996990E026E310E016EA20EE82E5D
:10181000FED7012EFCD7022EFAD700D0990E026E09
:10182000310E016EA20EE82EFED7012EFCD7022E3D
:10183000FAD700D01200400EF66E1A0EF76E000EA8
:10184000F86E00EE38F010EE05F00900F5CFEEFF6F
:10185000E550E150FAE101EE00F0640EEE6AE806B0
:10186000FDE13D6A000EF86E100EF76E000103EF09
:101870000DF0F7EC0CF00009D8B40BD040EC08F0F8
:101880000AEC0BF00009D8A402D0000E12000BECF9
:101890000DF052EC0CF00009D8B402D0010E120089
:1018A000000E12003A0EF66E20EE0EF00A0E09003F
:1018B000F5CFDEFFE806FBE2210EF66E20EE01F02A
:1018C0000C0E0900F5CFDEFFE806FBE2000E196EF4
:1018D000140E1A6E1200036EF29E03C0AAFF01C01E
:1018E000A9FF02C0A8FFA69CA69EA684F29E550E44
:1018F000A76EAA0EA76EA682F28EA694A6B2FED7F7
:10190000A198F28E12008986000E376E1D0E376484
:1019100001D00AD0000E026EC80E016EAFEC0CF0C2
:10192000372AF4D7F5EC0BF0D7EC0CF00009D8A46B
:101930001200F8D7000E066EAB980CD002C0D9FF8B
:1019400003C0DAFFDF50056E05501AEC0DF0024AB5
:10195000032A062A0450065CD8B01200EFD70BD039
:10196000640E046E04D0200E036E032EFED7040610
:101970000428D8A4F8D70106D8A002060128F0E16F
:101980000228D8B41200ECD7B886B88CB898B892B0
:10199000B890AC84AC98000EB06E100EAF6EAB8EEB
:1019A000948E949CAB88AC8A89869E9A1200C4EC73
:1019B0000CF07EEC0BF00009D8A402D0000E12004F
:1019C00039EC0CF00009D8A402D0000E1200010E70
:1019D0001200026EF29E02C0AAFF01C0A9FFA69CDF
:1019E000A69EA680A8CF03F0F28E03501200F00E40
:1019F000016E000EE9EC0CF0570AD8B402D0010ECB
:101A00001200000E1200CCEC0BF0C4EC0CF083ECD6
:101A10000CF08A96FED7F00E016E570E026E000E85
:101A20006BEC0CF01200710EB16E300EB36E000E46
:101A3000B26E1200016EACA2FED701C0ADFF120063
:051A40003230313000DE
:020000040020DA
:08000000FFFFFFFFFFFFFFFF00
:020000040030CA
:0E000000FF291F22FF3D81FF00000FE00F408F
:00000001FF
