:040000005FEF00F0BE
:100008004B82FACF02F0FBCF03F0E9CF04F0EACF3E
:1000180005F0E1CF06F0E2CF07F0D9CF08F0DACF4C
:1000280009F0F3CF0AF0F4CF0BF0F6CF0CF0F7CFCE
:100038000DF0F8CF0EF0F5CF0FF04BC010F04CC01C
:1000480011F04DC012F04EC013F0F2A40ED0F2948D
:100058004850D8A404D0980ED66EFE0E03D0F40EE5
:10006800D66EFC0ED76ED7EC07F013C04EF012C058
:100078004DF011C04CF010C04BF00FC0F5FF0EC092
:10008800F8FF0DC0F7FF0CC0F6FF0BC0F4FF0AC065
:10009800F3FF09C0DAFF08C0D9FF07C0E2FF06C0B6
:1000A800E1FF05C0EAFF04C0E9FF03C0FBFF02C08F
:1000B800FAFF4B921100D3EF09F0F2CF49F0F29E0C
:1000C800F29EF29C000E146E000EF6EC0AF0176E0B
:1000D8003D0EF66EFF0EF76E000EF86E0800F55036
:1000E8001718D8A420D0010E146E000EF6EC0AF0F2
:1000F800176E3E0EF66EFF0EF76EF86A0800F550A2
:100108001718D8A410D0020E146E000EF6EC0AF0E0
:10011800176E3F0EF66EFF0EF76EF86A0800F55080
:100128001718D8B41200000E1B6E100E196E000EB0
:100138001C6E16D01C50010D550EF324F66EFF0EE2
:10014800F420F76EF86A000EF8220800F5CF1AF0CE
:1001580019501C24146E1AC015F01B50B6EC0AF086
:100168001C2A1C04176E200E176004D0230E1A18C0
:10017800D8A4E0D7000E1B6E300E196E000E1A6E52
:10018800000E1C6E17D01C50010D530EF324F66E92
:10019800FF0EF420F76EF86A000EF8220800F5CF7B
:1001A8001AF019501C24146E1AC015F01B50B6EC26
:1001B8000AF01C2A230E1A18D8A4E5D7000E1B6EC5
:1001C800500E196E000E1A6E000E1C6E17D01C50C1
:1001D800010D510EF324F66EFF0EF420F76EF86A47
:1001E800000EF8220800F5CF1AF019501C24146EDE
:1001F8001AC015F01B50B6EC0AF01C2A230E1A1868
:10020800D8A4E5D7000E1B6E700E196E000E1A6E7C
:10021800000E1C6E17D01C50010D4F0EF324F66E05
:10022800FF0EF420F76EF86A000EF8220800F5CFEA
:100238001AF019501C24146E1AC015F01B50B6EC95
:100248000AF01C2A230E1A18D8A4E5D7000E1B6E34
:10025800900E196E000E1A6E000E1C6E17D01C50F0
:10026800010D4D0EF324F66EFF0EF420F76EF86ABA
:10027800000EF8220800F5CF1AF019501C24146E4D
:100288001AC015F01B50B6EC0AF01C2A230E1A18D7
:10029800D8A4E5D7000E1B6EB00E196E19C014F065
:1002A8004B0EF66EFF0EF76E000EF86E0900F5CFD6
:1002B80017F00900F5CF18F018C017F0186A175092
:1002C800156E1B50B6EC0AF01928146E4B0EF66E1C
:1002D800FF0EF76E000EF86E0800F5CF15F01B50F4
:1002E800B6EC0AF0000E1B6EB20E196E19C014F0AF
:1002F800490EF66EFF0EF76E000EF86E0900F5CF88
:1003080017F00900F5CF18F018C017F0186A175041
:10031800156E1B50B6EC0AF01928146E490EF66ECD
:10032800FF0EF76E000EF86E0800F5CF15F01B50A3
:10033800B6EC0AF0000E1B6EB40E196E19C014F05C
:10034800470EF66EFF0EF76E000EF86E0900F5CF39
:1003580017F00900F5CF18F018C017F0186A1750F1
:10036800156E1B50B6EC0AF01928146E470EF66E7F
:10037800FF0EF76E000EF86E0800F5CF15F01B5053
:10038800B6EC0AF0000E1B6EB60E196E19C014F00A
:10039800450EF66EFF0EF76E000EF86E0900F5CFEB
:1003A80017F00900F5CF18F018C017F0186A1750A1
:1003B800156E1B50B6EC0AF01928146E450EF66E31
:1003C800FF0EF76E000EF86E0800F5CF15F01B5003
:1003D800B6EC0AF0000E1B6EC00E196E000E1A6EF7
:1003E800000E1C6E17D01C50010D370EF324F66E4C
:1003F800FF0EF420F76EF86A000EF8220800F5CF19
:100408001AF019501C24146E1AC015F01B50B6ECC3
:100418000AF01C2A230E1A18D8A4E5D7C70E146EA2
:10042800600EF66EFF0EF76E000EF86E0800F5CF40
:1004380015F0000EB6EC0AF0C80E146E5F0EF66EDC
:10044800FF0EF76E000EF86E0800F5CF15F0000EDF
:10045800B6EC0AF0C90E146E5E0EF66EFF0EF76E5D
:10046800000EF86E0800F5CF15F0000EB6EC0AF095
:10047800B80E146E580EF66EFF0EF76E000EF86E7C
:100488000800F5CF15F0000EB6EC0AF0000E1B6E52
:10049800CA0E196E000E1A6E000E1C6E17D01C5074
:1004A800010D310EF324F66EFF0EF420F76EF86A94
:1004B800000EF8220800F5CF1AF019501C24146E0B
:1004C8001AC015F01B50B6EC0AF01C2A230E1A1895
:1004D800D8A4E5D7000E1B6ED00E196E000E1A6E4A
:1004E800000E1C6E17D01C50010D420EF324F66E40
:1004F800FF0EF420F76EF86A000EF8220800F5CF18
:100508001AF019501C24146E1AC015F01B50B6ECC2
:100518000AF01C2A230E1A18D8A4E5D7B90E146EAF
:100528005D0EF66EFF0EF76E000EF86E0800F5CF42
:1005380015F0000EB6EC0AF0BA0E146E5C0EF66EEC
:10054800FF0EF76E000EF86E0800F5CF15F0000EDE
:10055800B6EC0AF0BB0E146E5B0EF66EFF0EF76E6D
:10056800000EF86E0800F5CF15F0000EB6EC0AF094
:10057800BC0E146E5A0EF66EFF0EF76E000EF86E75
:100588000800F5CF15F0000EB6EC0AF0BD0E146E9B
:10059800590EF66EFF0EF76E000EF86E0800F5CFD6
:1005A80015F0000EB6EC0AF0E00E146E570EF66E5B
:1005B800FF0EF76E000EF86E0800F5CF15F0000E6E
:1005C800B6EC0AF00F0E146E000E156E000EB6ECA7
:1005D8000AF0000E146E3D0EF66EFF0EF76E000E5A
:1005E800F86E0800F5CF15F0000EB6EC0AF0010E13
:1005F800146E3E0EF66EFF0EF76EF86A0800F5CF21
:1006080015F0000EB6EC0AF0020E146E3F0EF66EF0
:10061800FF0EF76EF86A0800F5CF15F0000EB6EC7D
:100628000AF0F00E146E570E156E1B50B6EC0AF059
:100638001200DE0EF66EFE0EF76E000EF86E20EE5D
:100648006CF00A0E0900F5CFDEFFE806FBE2210E8A
:10065800F66EFF0EF76E000EF86E20EEA0F0070E95
:100668000900F5CFDEFFE806FBE2B10EF66EFE0EDE
:10067800F76E000EF86E20EE60F00B0E0900F5CF55
:10068800DEFFE806FBE2060EF66EFF0EF76E000EC2
:10069800F86E20EE77F0080E0900F5CFDEFFE806C9
:1006A800FBE2000E0001AC6F010EAA6F000EAB6FEB
:1006B800030EAB6501D0C6D0ABB10FD06C0E1A6E6D
:1006C800000E1B6E0B0E1C6E000E1D6E52EC07F01A
:1006D8000009D8A413D0000E1200ABA10FD0600EF1
:1006E8001A6E000E1B6E0C0E1C6E000E1D6E52EC68
:1006F80007F00009D8A402D0000E12009D9AAB881A
:1007080092D02FEC0BF09EAA8ED0AECFA9F00001AC
:10071800AC51010D800EF324D96E000EF420DA6E70
:10072800A9C0DFFFAC2B1F0EAC6502D01F0EAC6F4B
:100738004B0EA919D8A477D0AB51D8A415D0ACC00A
:1007480023F0F00E23262350010D800EF324146E9F
:10075800000EF420156EA00E166E000E176E080E11
:10076800186E61EC0AF017D0AB05D8A416D0ACC04F
:1007780023F0EF0E23262350010D800EF324146E70
:10078800000EF420156E770E166E000E176E090E09
:10079800186E61EC0AF00001AA17AB51D8A41AD060
:1007A800ACC023F0F70E23262350010D800EF3244E
:1007B800D96E000EF420DA6E300EDE18D8A40AD0F6
:1007C800E40E1A6EFF0E1B6E0B0E1C6E010E1D6ED4
:1007D80052EC07F0010E0001A86FACC023F0F90E2F
:1007E80023262350010D800EF324D96E000EF42029
:1007F800DA6E310EDE18D8B412D0ACC023F0F90E80
:1008080023262350010D800EF324D96E000EF42008
:10081800DA6E350EDE18D8B402D0000EA86FA851D3
:10082800AA17000EAC6FA1B204D00001AA51D8B427
:1008380068D7000E156EC80E146ECEEC0AF00001D3
:10084800AB2B36D7AA511200000E0001886F000E9C
:10085800896F000E8A6F000E8B6F000E876F140E63
:100868008C6F000E866F500EF66EFE0EF76E000E41
:10087800F86E20EE60F00F0E0900F5CFDEFFE806F7
:10088800FBE2E90EF66EFE0EF76E000EF86E20EE35
:100898007CF0090E0900F5CFDEFFE806FBE2990EB1
:1008A800F66EFE0EF76E000EF86E20EE70F00B0E70
:1008B8000900F5CFDEFFE806FBE20CD0F70E1A6E52
:1008C800FF0E1B6E060E1C6E010E1D6E52EC07F01D
:1008D8000001886F8C078C29D8B403D08851D8B40C
:1008E800EDD7140E8C6F000E156E010E146ECEEC43
:1008F8000AF00CD0CC0E1A6EFF0E1B6E0B0E1C6E7F
:10090800010E1D6E52EC07F00001896F00018C0783
:100918008C29D8B403D08951D8B4ECD7140E8C6F75
:10092800000E156E030E146ECEEC0AF00CD0600E9D
:100938001A6E000E1B6E100E1C6E010E1D6E52EC10
:1009480007F000018A6F00018C078C29D8B403D006
:100958008A51D8B4ECD7140E8C6F000E156E030EA6
:10096800146ECEEC0AF00CD0700E1A6E000E1B6ED0
:100978000C0E1C6E010E1D6E52EC07F000018B6F01
:1009880000018C078C29D8B403D08B51D8B4ECD78C
:10099800140E8C6F000E156E030E146ECEEC0AF05A
:1009A8000CD07C0E1A6E000E1B6E0A0E1C6E010E09
:1009B8001D6E52EC07F00001876F00018C078C292F
:1009C800D8B403D08751D8B4ECD7000E156E030EF7
:1009D800146ECEEC0AF000018851D8B40BD08951BE
:1009E800D8B408D08A51D8B405D08B51D8B402D025
:1009F800010E1200000E1200600EF66EFE0EF76E6B
:100A0800000EF86E20EE62F00F0E0900F5CFDEFF43
:100A1800E806FBE2290EF66EFF0EF76E000EF86E82
:100A280020EE72F0070E0900F5CFDEFFE806FBE2C4
:100A3800620E1A6E000E1B6E100E1C6E010E1D6EDD
:100A480052EC07F00009D8B4F3D7000E00017E6F0E
:100A58009F0E7E6501D012007E51010D000EF32419
:100A6800146E010EF420156E720E166E000E176EBF
:100A7800080E186E61EC0AF00009D8B435D00001F0
:100A88007C51D8A431D07D51D8A42ED07B51D8A484
:100A98002BD07EC060F0070E60276051010D000E5C
:100AA800F324D96E010EF420DA6EDF507C6F7EC01D
:100AB80060F0080E60276051010D000EF324D96E16
:100AC800010EF420DA6EDF507D6F7EC060F0090EF3
:100AD80060276051010D000EF324D96E010EF42039
:100AE800DA6EDF507B6F2DD07EC060F0FF0E000104
:100AF80060276051010D000EF324D96E010EF42019
:100B0800DA6E4F0EDE18D8A41CD07E51010D000EEF
:100B1800F324D96E010EF420DA6E4B0EDE18D8A439
:100B280010D07DC023F07BC024F07C515BEC09F031
:100B380000017A6F7DC023F07BC024F07C510AEC61
:100B480009F000017E2B84D7A50EF66EFE0EF76E17
:100B5800000EF86E20EE88F00B0E0900F5CFDEFFD0
:100B6800E806FBE2FD0EF66EFE0EF76E000EF86E5E
:100B780020EE9FF0080E0900F5CFDEFFE806FBE245
:100B8800D30EF66EFE0EF76E000EF86E20EE94F0A1
:100B98000A0E0900F5CFDEFFE806FBE20F0E0001A2
:100BA800A86F000EA96F66D0880E1A6E000E1B6E15
:100BB8000C0E1C6E010E1D6E52EC07F00009D8B425
:100BC80053D00001AA2BAA05236E2350010D600EF5
:100BD800F324D96E000EF420DA6E3A0EDE18D8A48B
:100BE800F0D7AAC023F0F90E23262350010D600E7A
:100BF800F324146E000EF420156E9F0E166E000E70
:100C0800176E070E186E61EC0AF00009D8B429D0E7
:100C1800AAC023F0010E23262350010D600EF324F1
:100C2800D96E000EF420DA6E310EDE18D8A402D088
:100C3800010E01D0000E0001A96FA951D8A40FD050
:100C4800940E1A6E000E1B6E0B0E1C6E010E1D6E9E
:100C580052EC07F00009D8A404D0000E1200010ECF
:100C68001200000E0001AA6F000E156E640E146EBD
:100C7800CEEC0AF00001A807A829D8A495D7A95155
:100C88001200BD0EF66EFE0EF76E000EF86E20EE28
:100C98008DF00A0E0900F5CFDEFFE806FBE27F0EB5
:100CA800F66EFE0EF76E000EF86E20EE80F00C0E5B
:100CB8000900F5CFDEFFE806FBE20F0E0001986F92
:100CC800000E996F5FD08D0E1A6E000E1B6E0B0E04
:100CD8001C6E000E1D6E52EC07F00009D8A402D05D
:100CE800000E12009D9AAB882FEC0BF043D09EAA01
:100CF80041D0AECF9AF000019C51010D600EF32453
:100D0800D96E000EF420DA6E9AC0DFFF9C2B1F0EFE
:100D18009C6502D01F0E9C6F590E9A19D8A42AD030
:100D28009CC023F0F40E23262350010D600EF324FB
:100D3800146E000EF420156E800E166E000E176EDF
:100D48000D0E186E61EC0AF00001996F9951D8B434
:100D58000FD0000E9B6F040E9B6501D004D0AECF60
:100D68009AF09B2BF8D7010EAE6EB190010E1200CF
:100D7800000E9C6FA1A2BBD7000E156E140E146E48
:100D8800CEEC0AF0000198079829D8A49CD7000E49
:100D98001200D80E1A6EFF0E1B6E0B0E1C6E010E83
:100DA8001D6E52EC07F0000E156E020E146ECEEC9E
:100DB8000AF0EE0E1A6EFF0E1B6E080E1C6E000E69
:100DC8001D6E52EC07F026C01AF027C01BF00A0E61
:100DD8001C6E000E1D6E52EC07F0C90E1A6EFF0E47
:100DE8001B6E020E1C6E000E1D6E52EC07F0000EFC
:100DF80000018B6F0F0E896F1A0E8A6F000E8C6FB1
:100E08009D9AAB8828D02FEC0BF01ED09EAA1CD040
:100E1800AECF88F08B51010D600EF324D96E000E11
:100E2800F420DA6E88C0DFFF8B2B130E8B6502D09F
:100E3800130E8B6F3E0E6019D8A404D09D8AAB9810
:100E4800010E8C6F000E8B6FA1B204D000018C5183
:100E5800D8B4DCD7A192000189078929D8B403D076
:100E68008C51D8B4D0D7B1909D8AAB988C51D8B456
:100E7800120023C01AF024C01BF025C01CF0000E7D
:100E88001D6E52EC07F08A0E1A6E000E1B6E010ED4
:100E98001C6E010E1D6E52EC07F012001AC015F000
:100EA8001BC016F01CC017F000EC0AF0000E226EF2
:100EB8000F0E216E1D50D8B474D09D9AAB8868D09F
:100EC8002FEC0BF062D0AECF20F02250010D000EB7
:100ED800F324D96E010EF420DA6E20C0DFFF222A37
:100EE8009F0E226402D09F0E226E22C01EF0FF0EBB
:100EF8001E261E50010D000EF324D96E010EF4209B
:100F0800DA6E4F0EDE18D8A410D02250010D000E54
:100F1800F324D96E010EF420DA6E4B0EDE18D8A435
:100F280004D09D8AAB98010E120022C01EF0FE0E5E
:100F38001E261E50010D000EF324D96E010EF4205A
:100F4800DA6E450EDE18D8A420D022C01EF0FF0E9F
:100F58001E261E50010D000EF324D96E010EF4203A
:100F6800DA6E520EDE18D8A410D02250010D000EF1
:100F7800F324D96E010EF420DA6E520EDE18D8A4CE
:100F880004D09D8AAB98000E1200A1A29CD7A19212
:100F980021062128D8A494D7B1909D8AAB98000E39
:100FA8001200010E120059D04A2A050E4A6002D0DA
:100FB800829801D082888A86130E4A641200000E35
:100FC8004A6E120082A802D0010E01D0000EFF0A5C
:100FD800016E013A82500118EF0B0118826E8A8661
:100FE80012004A2A050E4A6003D082988A861200A7
:100FF8000A0E4A6003D082888A961200000E4A6E52
:1010080012004A2A4A50D8B404D0020E4A18D8A46A
:1010180003D082988A861200040E4A18D8B404D0E5
:10102800060E4A18D8A403D082888A9612004AA0CD
:1010380003D082888A861200000E4A6E12004A2A5D
:10104800050E4A6002D08A9601D08A868288130EDD
:101058004A641200000E4A6E12000001B951000ADB
:10106800D8B41200010AD8B49FD7030AD8B4AAD7B3
:10107800010AD8B4B6D7070AD8B4C3D7010AD8A486
:101088001200DDD78C0EF66EFE0EF76E000EF86EAF
:1010980020EE89F00C0E0900F5CFDEFFE806FBE232
:1010A8001D0EF66EFE0EF76E000EF86E20EE60F066
:1010B800190E0900F5CFDEFFE806FBE2700EF66EAA
:1010C800FE0EF76E000EF86E20EE7AF00E0E090096
:1010D800F5CFDEFFE806FBE206D0000E156EC80E5F
:1010E800146ECEEC0AF0890E1A6E000E1B6E0D0EF1
:1010F8001C6E010E1D6E52EC07F00009D8A407D033
:10110800ECD7000E156EC80E146ECEEC0AF0600E09
:101118001A6E000E1B6E1A0E1C6E010E1D6E52EC1E
:1011280007F00009D8A407D0ECD7000E156E640E9E
:10113800146ECEEC0AF07A0E1A6E000E1B6E0F0EAD
:101148001C6E010E1D6E52EC07F00009D8B4EDD7E5
:10115800020E0001B96F1200808620EE41F010EEF9
:1011680070F0040EDBCFE3FFE806FCE220EE31F07E
:1011780010EE60F00F0EDBCFE3FFE806FCE20F0E87
:101188000001786F000E796F310E796501D015D0A6
:10119800000E156EC80E146ECEEC0AF00001792B05
:1011A800F3D7700E1A6E000E1B6E050E1C6E010E24
:1011B8001D6E52EC07F00001766F78077829D8B4D5
:1011C80003D07651D8B4EDD70F0E786F0CD0600EDF
:1011D8001A6E000E1B6E100E1C6E010E1D6E52EC68
:1011E80007F00001776F78077829D8B403D07751D2
:1011F800D8B4EDD7000E756F7651D8B405D07751B5
:10120800D8B402D0010E756F75511200306E0F0EF2
:10121800F66EFF0EF76E000EF86E20EE27F0080E41
:101228000900F5CFDEFFE806FBE2270E1A6E000E76
:101238001B6E090E1C6E000E1D6E52EC07F030502E
:10124800256E266A25C01AF026C01BF0010E1C6EFA
:10125800000E1D6E52EC07F02350D8B40DD0235069
:10126800256E266A25C01AF026C01BF0010E1C6EDA
:10127800000E1D6E52EC07F02450D8B40DD0245047
:10128800256E266A25C01AF026C01BF0010E1C6EBA
:10129800000E1D6E52EC07F0C90E1A6EFF0E1B6E83
:1012A800020E1C6E010E1D6E52EC07F012002E6E1F
:1012B800180EF66EFF0EF76E000EF86E20EE25F093
:1012C800080E0900F5CFDEFFE806FBE2250E1A6ED0
:1012D800000E1B6E090E1C6E000E1D6E52EC07F000
:1012E8002E0E1A6E000E1B6E010E1C6E000E1D6E69
:1012F80052EC07F0230E1A6E000E1B6E010E1C6EC8
:10130800000E1D6E52EC07F0240E1A6E000E1B6EB6
:10131800010E1C6E000E1D6E52EC07F0C90E1A6EFF
:10132800FF0E1B6E020E1C6E010E1D6E52EC07F0B6
:10133800000E1200D39ED3508F0B6009D36ED38654
:10134800010E0F01386F928092968096000E3A6FC8
:101358008A869396828C949C8B8E948E000E396F1D
:1013680093809482818293828184938482889498E2
:1013780081889388818A938A8A8C939C818E938EA4
:1013880080929292870ED56EFC0ED76EF30ED66EB3
:10139800F294F28AF28E010E0001B96F12006C0EFF
:1013A800F66E160EF76E000EF86E00EEADF010EE4B
:1013B8000CF00900F5CFEEFFE550E150FAE1080E18
:1013C800F66E160EF76E000EF86E00EE31F010EEA7
:1013D80018F00900F5CFEEFFE550E150FAE101EE13
:1013E80000F0A00EEE6AE806FDE14A6A496A4B90F1
:1013F8004B92000121EF0AF0000E196EAB9818D03D
:1014080015C0F6FF16C0F7FF000EF86E0F0EF76452
:1014180003D00800F55005D0F6CFE9FFF7CFEAFF73
:10142800EF50186E18503CEC0BF0154A162A192A82
:101438001750195CD8B01200E3D79EEC09F002D01F
:101448001CEC0BF041EC0AF00009D8B4F9D7000104
:10145800AD51D8B404D046EC08F081EC0AF0A00EE7
:10146800236EFF0E246E2A0E256EAE0E266E000E1B
:10147800276ECDEC06F08A96FED7E3EC0AF0B0ECC6
:1014880008F00009D8A402D0000E12009DEC0AF062
:101498000009D8A402D0000E12001DEC03F00009C8
:1014A800D8A402D0000E120042EC0BF00009D8A418
:1014B80002D0000E1200010E1200010E1B6E000E6B
:1014C8001C6E15D016C0D9FF17C0DAFF14C0E1FF93
:1014D80015C0E2FFDE50E618D8A402D0010E01D0F4
:1014E800000E1B16144A152A164A172A1C2A1850C9
:1014F8001C5CD8A0E7D71B501200B80E146E000E63
:10150800F6EC0AF000017F6F3C0E806F0DD0000EE4
:10151800156EC80E146ECEEC0AF000EC05F0000152
:1015280080078029D8A4F3D77F077F29D8B4120071
:10153800F6D710EC0BF00009D8B40BD061EC00F032
:1015480028EC04F00009D8A402D0000E120027EC01
:101558000BF045EC06F00009D8B402D0010E1200D9
:10156800000E1200166EF29E16C0AAFF14C0A9FF44
:1015780015C0A8FFA69CA69EA684F29E550EA76E2F
:10158800AA0EA76EA682F28EA694A6B2FED7A1983E
:10159800F28E12000BD0640E176E04D0200E166E59
:1015A800162EFED717061728D8A4F8D71406D8A0E1
:1015B80015061428F0E11528D8B41200ECD7B8861F
:1015C800B88CB898B892B890AC84AC98000EB06E4D
:1015D800100EAF6EAB8E948E949CAB88AC8A8086CE
:1015E8009E9A1200156EF29E15C0AAFF14C0A9FF9C
:1015F800A69CA69EA680A8CF16F0F28E16501200C2
:1016080041542B4950523D3131353230300D0A00AA
:1016180041540D0A000A0001F00E146E000EF6EC9B
:101628000AF0570AD8B402D0010E1200000E1200B8
:101638008096030E156EE80E146ECEEC0AF08086C6
:10164800B0EC08F01200F00E146E570E156E000E76
:10165800B6EC0AF01200710EB16E300EB36E000EC9
:10166800B26E120001383035363430353132370039
:10167800146EACA2FED714C0ADFF1200A8EC05F0A2
:04168800010E12003D
:10FE1C000041542B43504D533D224D45222C224D35
:10FE2C0045222C224D45220D0A24004154235343D4
:10FE3C0046474558543D312C312C302C302C302C2D
:10FE4C00300D0A004154234750494F3D372C302C7C
:10FE5C00320D0A0041542B434D474C3D22414C4C32
:10FE6C00220D0A0041542B434E4D493D312C310D8E
:10FE7C000A24002B4350494E3A2052454144590024
:10FE8C0041542B434D47463D310D0A240041542328
:10FE9C00534C45443D340D0A0041542B43474154C7
:10FEAC00543F0D0A0041542B43455245473F0D0A20
:10FEBC000041542B4350494E3F0D0A0041542353EB
:10FECC00443D312C302C0041542B43474154543D7C
:10FEDC00310041542B435245473F0D0A00415423F6
:10FEEC0043474D520D0A00222C302C302C310D0A78
:10FEFC00002B43474154543A20002B43455245476D
:10FF0C003A200041542B434D47443D0041542B4370
:10FF1C004D47523D002B435245473A20002B434D51
:10FF2C00474C3A200030303030230031313131230E
:10FF3C00003230303000312300E407E407E407E4FA
:10FF4C000723002300230023002300010A0A0200D8
:10FF5C0014012D0F01415423534346473D312C339B
:10FF6C002C3330302C39302C3630302C35300D0AC7
:10FF7C000041542B434744434F4E543D332C2249AC
:10FF8C0050222C220041542353474143543D332CDF
:10FF9C00310D0A0054657374696E6720736D6F6B55
:10FFAC006520687562202D204A656E277320636F6B
:10FFBC0064652C204B6F72652053494D2E0D0A0041
:10FFCC0041542B434D45453D320D0A0041542B43C2
:10FFDC004D47463D310D0A0041542B435245473D98
:10FFEC00310041542B434D47533D00415445310D95
:03FFFC000A0000F8
:020000040020DA
:08000000FFFFFFFFFFFFFFFF00
:020000040030CA
:0E000000FF291F3CFF3D81FF00000FE00F4075
:00000001FF
