:0400000085EF00F098
:100008003282FACF1EF0FBCF1FF0E9CF20F0EACF03
:1000180021F0E1CF22F0E2CF23F0D9CF24F0DACFDC
:1000280025F0F3CF26F0F4CF27F0F6CF28F0F7CF5E
:1000380029F0F8CF2AF0F5CF2BF032C02CF033C0DE
:100048002DF034C02EF035C02FF0F2A013D0F2906E
:10005800A082B18093EC09F0182A1650D8A40AD0CF
:10006800050E1818D8A406D0010E166E98EC09F0E3
:10007800000E186EF2A403D0F29424EC08F0A1A2AA
:1000880003D01650D8B406D01650D8B409D0030EF1
:10009800186406D0A192000E186EB190A0920BD0F1
:1000A800A1A209D01650D8B406D0030E1818D8A4A7
:1000B80002D0010E156E2FC035F02EC034F02DC0C1
:1000C80033F02CC032F02BC0F5FF2AC0F8FF29C04E
:1000D800F7FF28C0F6FF27C0F4FF26C0F3FF25C0AE
:1000E800DAFF24C0D9FF23C0E2FF22C0E1FF21C00C
:1000F800EAFF20C0E9FF1FC0FBFF1EC0FAFF3292D3
:06010800110047EF09F0B1
:1010000000415423534346473D312C332C33303079
:101010002C39302C3630302C35300D0A0041542B11
:10102000434744434F4E543D332C224950222C22F7
:101030000041542353474143543D332C310D0A00A2
:071040000FF0424D54410086
:101048001A2A192A090E1D6EA5D0A0EC09F000096C
:10105800D8B40BD01650D8A408D081868288000E48
:101068001A6E000E196E010E0AD0A0EC09F00009E4
:10107800D8B407D01650D8A404D0010E03D0176EE8
:10108800AED0030E1D6E000E1A6E000E196E000E05
:10109800F6D7000E176E18D0000E196EA0D0155096
:1010A800D8B406D0090E1D6E03D08196829855D00B
:1010B8001A50010AD8B4F9D792D0819669D081869E
:1010C80067D0000E1A6E64D01A50010AD8B4F5D74A
:1010D800070AD8B4F4D7090AD8B4F3D759D0818607
:1010E800000E1A6E1950010AD8B432D0070AD8B4C3
:1010F80032D0090AD8B4D0D772D08196000E1A6EB1
:101108001950010AD8B424D0070AD8B424D0120A36
:10111800F1D781960FD081860DD0000E1A6E0AD0B5
:101128001A50010AD8B4F5D7070AD8B4F4D7120A66
:10113800D8B4F3D78298B0D78186000E1A6E1950AA
:10114800010AD8B405D0030AD8B422D048D0819671
:10115800829845D08186828842D0000E1A6E9CD72C
:101168001A50010AD8B4F3D7050AD8B4F3D72B0A12
:10117800D8B4F3D734D08186000E1A6E020E1D6ED5
:1011880007D01A50010AD8B498D7140AD8B4F3D79C
:10119800828882D71D50000AD8B457D7010AD8B41C
:1011A80078D7030AD8B490D7010AD8B478D7070AF1
:1011B800D8B48AD7010AD8B492D7030AD8B48FD73B
:1011C800010AD8B49AD70F0AD8B4AAD7010AD8B452
:1011D800B3D7030AD8B4C4D7010AD8B4D2D70A0EF1
:1011E8001D18D8A40BD0300E196003D02F0E1A6426
:1011F8001200000E1A6E000E196E12000B0E1D184A
:10120800D8A40BD0150E196003D0140E1A6412005E
:10121800000E1A6E000E196E1200150E196003D01A
:10122800140E1A641200000E1A6E000E196E1200C7
:10123800D39ED3508F0B6009D36ED386010E0F0156
:10124800386F928092968096000E3A6F81869396B8
:10125800828C949C8B8E948E000E396F938094822E
:101268008A8293828A849384828894988A889388CD
:101278008A8A938A8A8C939C818E938E809292928A
:10128800000E1D6E1200440EF66E130EF76E000E61
:10129800F86E0900F5CF30F00900F5CF31F000EE17
:1012A80001F01D0EEE6AE806FDE132903292000E62
:1012B800F86E000160EF09F01CEC09F09DEC09F0F4
:1012C80071EC09F08EEC09F07BEC09F089EC09F07F
:1012D80083EC09F0D1900400FFD7870ED56EF30E8A
:1012E800D66EFC0ED76EF294F29AF28E1200310E80
:1012F800B16EF29EF28CA082A192F28E12006288E8
:10130800F286F290F28CF28E1200300EB36E000E5E
:10131800B26E1200F30ED66EFC0ED76E1200300EAF
:10132800B36E000EB26E1200780EB36E000EB26E7F
:101338001200A3EC09F01200010E120001011200C4
:020000040020DA
:08000000FFFFFFFFFFFFFFFF00
:020000040030CA
:0E000000FF291F22FF3D81FF00000FE00F408F
:00000001FF
