:0400000065EF00F0B8
:100008001582FACF02F0FBCF03F0E9CF04F0EACF74
:1000180005F0E1CF06F0E2CF07F0D9CF08F0DACF4C
:1000280009F0F3CF0AF0F4CF0BF0F6CF0CF0F7CFCE
:100038000DF0F8CF0EF0F5CF0FF015C010F016C088
:1000480011F017C012F018C013F0F050F2A413D03A
:10005800F29414501418D8B403D0016A012A01D0BC
:10006800016A01460146014681500118F70B011843
:10007800816E74EC08F013C018F012C017F011C0AC
:1000880016F010C015F00FC0F5FF0EC0F8FF0DC038
:10009800F7FF0CC0F6FF0BC0F4FF0AC0F3FF09C05E
:1000A800DAFF08C0D9FF07C0E2FF06C0E1FF05C0BC
:1000B800EAFF04C0E9FF03C0FBFF02C0FAFF159284
:0600C80011004AEF08F0F0
:1010000000415423534346473D312C332C33303079
:101010002C39302C3630302C35300D0A0041542B11
:10102000434744434F4E543D332C224950222C22F7
:101030000041542353474143543D332C310D0A00A2
:0110400000AF
:10104200D39ED3508F0B6009D36ED386010E0F014E
:10105200386F928092968096000E3A6F81869396B0
:10106200828C949C8B8E948E000E396F9380948226
:101072008A8293828A849384828894988A889388C5
:101082008A8A938A8A8C939C818E938E8092929282
:101092001200F20EF66E100EF76E000EF86E0900D8
:1010A200F5CF14F015901592000EF86E100EF76E33
:1010B200000166EF08F0870ED56EF30ED66EFC0EB9
:1010C200D76EF294F28AF28E120021EC08F05CECF8
:1010D20008F06FEC08F0D1800400FFD7F30ED66E53
:1010E200FC0ED76E1200F30ED66EFC0ED76E1200F7
:0110F20001FC
:020000040020DA
:08000000FFFFFFFFFFFFFFFF00
:020000040030CA
:0E000000FF291F22FF3D81FF00000FE00F408F
:00000001FF
