:04000000B0EF01F06C
:100008004582FACF2DF0FBCF2EF0E9CF2FF0EACFC3
:1000180030F0E1CF31F0E2CF32F0D9CF33F0DACFA0
:1000280034F0F3CF35F0F4CF36F0F6CF37F0F7CF22
:1000380038F0F8CF39F0F5CF3AF045C03BF046C07C
:100048003CF047C03DF048C03EF0F2A003D0F2902B
:10005800C7EC11F0A4BAA3AA1CD0A49A74CF3FF09D
:100068001A50010D1F0EF324D96E000EF420DA6E1B
:100078003FC0DFFF1A2A040E1A6401D01A06040EC4
:100088001A6407D00A0E2318D8A403D0010E000161
:10009800C76F9EBA9DAAB7D09E9AAECF16F00350EE
:1000A800010D000EF324D96E020EF420DA6E16C08C
:1000B800DFFF032A9F0E036401D00306020E0364C8
:1000C800A2D003C02BF0FE0E2B262B50010D000EE4
:1000D800F324D96E020EF420DA6E4F0EDE18D8A47F
:1000E80036D003C02BF0FF0E2B262B50010D000E2F
:1000F800F324D96E020EF420DA6E4B0EDE18D8A463
:1001080026D00350010D000EF324D96E020EF42000
:10011800DA6E0D0EDE18D8B40CD00350010D000EA7
:10012800F324D96E020EF420DA6E0A0EDE18D8A473
:100138000ED0000E1B6E86EC12F07E92010E0A6E37
:10014800000E096E000E076E96EC12F05CD0040EDD
:10015800036459D003C02BF0FC0E2B262B50010D45
:10016800000EF324D96E020EF420DA6E450EDE1866
:10017800D8A449D003C02BF0FD0E2B262B50010D1F
:10018800000EF324D96E020EF420DA6E520EDE1839
:10019800D8A439D003C02BF0FE0E2B262B50010D0E
:1001A800000EF324D96E020EF420DA6E520EDE1819
:1001B800D8A429D003C02BF0FF0E2B262B50010DFD
:1001C800000EF324D96E020EF420DA6E4F0EDE18FC
:1001D800D8A419D00350010D000EF324D96E020ED5
:1001E800F420DA6E520EDE18D8A40DD0000E1B6E65
:1001F80086EC12F07E92000E0A6E010E096E000E59
:10020800076E96EC12F07EA204D01B2A7E9232EC86
:1002180012F0F2A407D0F2949BEC12F0132A122ADF
:1002280080EC0CF0A1A272D0112AA192070E1164E1
:100238005ED01550D8B403D01450D8A403D01550AC
:10024800D8A455D0000E116E1550D8B40BD0140494
:10025800D8A408D0000E156E73EC12F01EC0C9F0B9
:10026800020E41D01550D8B40FD0020E1418D8A4DD
:100278000BD0000E156E73EC12F01EC0C9F0030E01
:100288001E6E90EC11F030D01550D8B40FD0030E7C
:100298001418D8A40BD0000E156E73EC12F01EC003
:1002A800C9F0040E1E6E90EC11F01ED01550D8B493
:1002B80012D0040E1418D8A40ED0000E156E73ECCC
:1002C80012F0B90E246E000E0AEC12F0276E030E1F
:1002D8004AEC0EF009D0050E1418D8A405D0151E46
:1002E800000E116E000E1E6E000E146E0FD0270E3B
:1002F80011640CD01550D8B409D01450D8A406D025
:10030800000E156E000E116E73EC12F03EC048F030
:100318003DC047F03CC046F03BC045F03AC0F5FF51
:1003280039C0F8FF38C0F7FF37C0F6FF36C0F4FF12
:1003380035C0F3FF34C0DAFF33C0D9FF32C0E2FF63
:1003480031C0E1FF30C0EAFF2FC0E9FF2EC0FBFF3C
:100358002DC0FAFF459211001BEF0CF021EEB4F00E
:1003680014EE7FF0040EDBCFE3FFE806FCE221EE9B
:10037800ADF014EE78F0060EDBCFE3FFE806FCE202
:1003880021EE26F014EE2BF00B0EDBCFE3FFE80690
:10039800FCE222EED8F014EE0BF00F0EDBCFE3FFF9
:1003A800E806FCE222EEC8F014EE1BF00F0EDBCFDD
:1003B800E3FFE806FCE221EE1AF014EE37F00B0E2C
:1003C800DBCFE3FFE806FCE221EE5FF014EE65F018
:1003D800090EDBCFE3FFE806FCE221EE54F014EE51
:1003E8004FF00A0EDBCFE3FFE806FCE221EE49F00E
:1003F80014EE5AF00A0EDBCFE3FFE806FCE221EE2A
:100408000EF014EE43F00B0EDBCFE3FFE806FCE240
:1004180021EE3EF014EE00F00A0EDBCFE3FFE80613
:10042800FCE221EE72F014EE6FF0080EDBCFE3FF72
:10043800E806FCE2B5EC11F00001C005D8B413D011
:100448007F0E616F040E626F050E636F010E646F9D
:10045800000E656F6DEC09F00001C06FC005D8A4EF
:1004680002D00F0E446EC005D8A416D0BF05D8B46C
:1004780013D0780E616F040E626F070E636F010E62
:10048800646F000E656F6DEC09F00001BF6FBF056A
:10049800D8A402D00F0E446EBF05D8A416D0BE054E
:1004A800D8B413D02B0E616F040E626F0C0E636FFD
:1004B800010E646F000E656F6DEC09F00001BE6FF0
:1004C800BE05D8A402D00F0E446EBE05D8A416D01F
:1004D800BD05D8B413D00B0E616F040E626F100EF9
:1004E800636F010E646F000E656F6DEC09F000011B
:1004F800BD6FBD05D8A402D00F0E446EBD05D8A4AB
:1005080016D0BC05D8B413D01B0E616F040E626FF1
:10051800100E636F010E646F000E656F6DEC09F0CD
:100528000001BC6FBC05D8A402D00F0E446EBC05F8
:10053800D8A416D0BB05D8B413D0370E616F040EFB
:10054800626F0C0E636F010E646F000E656F6DECC9
:1005580009F00001BB6FBB05D8A402D00F0E446E92
:10056800BB05D8A416D0BA05D8B413D0650E616FF0
:10057800040E626F0A0E636F010E646F000E656FE2
:100588006DEC09F00001BA6FBA05D8A402D00F0EBD
:10059800446EBA05D8A416D0B905D8B413D04F0EF6
:1005A800616F040E626F0B0E636F010E646F000EB5
:1005B800656F6DEC09F00001B96FB905D8A402D0D8
:1005C8001E0E446EB905D8A45CD0B805D8A406D0D0
:1005D800B705D8A403D0B605D8B453D0B805D8B455
:1005E80015D05A0E616F040E626F0B0E636F010E09
:1005F800646F000E656F6DEC09F00001B86FB80507
:10060800D8A404D0A3EC0AF00001B86FB705D8B499
:1006180015D0430E616F040E626F0C0E636F010EEE
:10062800646F000E656F6DEC09F00001B76FB705D8
:10063800D8A404D00BEC0AF00001B76FB605D8B403
:1006480015D06F0E616F040E626F090E636F010E95
:10065800646F000E656F6DEC09F00001B66FB605AA
:10066800D8A404D0FAEC07F00001B66FB805D8A4F6
:1006780008D0B705D8A405D0B605D8A402D00F0E67
:10068800446E050EC019D8B428D0050EBF19D8B4C9
:1006980024D0050EBE19D8B420D0050EBD19D8B483
:1006A8001CD0050EBC19D8B418D0050EBB19D8B487
:1006B80014D0050EBA19D8B410D0050EB919D8B48B
:1006C8000CD0050EB819D8B408D0050EB719D8B48F
:1006D80004D0050EB619D8A404D01EEC11F0050EEE
:1006E80012000001C005D8A425D0BF05D8A422D087
:1006F800BE05D8A41FD0BD05D8A41CD0BC05D8A45D
:1007080019D0BB05D8A416D0BA05D8A413D0B905FA
:10071800D8A410D0B805D8A40DD0B705D8A40AD04D
:10072800B605D8A407D0B505D8A404D01EEC11F09E
:10073800010E1200020E120021EE9EF010EE73F070
:10074800070EDBCFE3FFE806FCE2000E0001856F31
:10075800000E846FC00E606F000EEBEC11F000010C
:100768007E6FC10E606F000EEBEC11F000017F6F21
:10077800C20E606F000EEBEC11F00001806FC30E2B
:10078800606F000EEBEC11F00001816F000E886FB6
:100798009F0E886501D05CD18851010D000EF324AD
:1007A800D96E020EF420DA6E3A0EDE18D8B488C07C
:1007B8007BF08851010D000EF324D96E020EF4204F
:1007C800DA6E2C0EDE18D8A430D088C071F0020E74
:1007D80071277151010D000EF324D96E020EF42019
:1007E800DA6E2B0EDE18D8A420D08851030FB36F11
:1007F800000E866F080E866501D017D0B351862586
:10080800716F7151010D000EF324D96E020EF420A0
:10081800DA6E8651010DE90EF324E16E010EF42023
:10082800E26EDFCFE7FF862BE5D78851010D000E7A
:10083800F324D96E020EF420DA6E0A0EDE18D8B44C
:1008480088C07CF08851010D000EF324D96E020E89
:10085800F420DA6E7E51DE18D8A4F8D088C071F082
:10086800010E71277151010D000EF324D96E020E8D
:10087800F420DA6E7F51DE18D8A4E8D088C071F071
:10088800020E71277151010D000EF324D96E020E6C
:10089800F420DA6E8051DE18D8A4D8D088C071F060
:1008A800030E71277151010D000EF324D96E020E4B
:1008B800F420DA6E8151DE18D8A4C8D088C071F04F
:1008C800040E71277151010D000EF324D96E020E2A
:1008D800F420DA6E230EDE18D8A4B8D088C071F0E0
:1008E800070E71277151010D000EF324D96E020E07
:1008F800F420DA6E230EDE18D8A461D088C071F017
:10090800050E71277151010D000EF324D96E020EE8
:10091800F420DA6E400EDF640FD088C071F0050E47
:1009280071277151010D000EF324D96E020EF420C7
:10093800DA6EDF50C90F0ED088C071F0050E71272E
:100948007151010D000EF324D96E020EF420DA6EF7
:10095800DF50D00F0A0DF3CF82F088C071F0060E79
:1009680071277151010D000EF324D96E020EF42087
:10097800DA6E400EDF640FD088C071F0060E712762
:100988007151010D000EF324D96E020EF420DA6EB7
:10099800DF50C90F0ED088C071F0060E7127715153
:1009A800010D000EF324D96E020EF420DA6EDF502A
:1009B800D00F836F835182278851080F43D088C096
:1009C80071F0060E71277151010D000EF324D96ED6
:1009D800020EF420DA6E230EDE18D8A435D0000EED
:1009E800826F88C071F0050E71277151010D000EDC
:1009F800F324D96E020EF420DA6E400EDF640FD0B5
:100A080088C071F0050E71277151010D000EF32495
:100A1800D96E020EF420DA6EDF50C90F0ED088C0EE
:100A280071F0050E71277151010D000EF324D96E76
:100A3800020EF420DA6EDF50D00F836F83518227C5
:100A48008851070F856F02D0040E1200882BA0D69C
:100A580085C087F09F0E876501D00FD08751010DA3
:100A6800000EF324D96E020EF420DA6E230EDE187F
:100A7800D8B487C084F0872BEDD78451D8A402D08E
:100A8800040E120085C07DF001D07D2B84517D5D60
:100A9800D8A0FBD7400E686F030E696F8551000818
:100AA80084256A6F825160EC05F00009D8B402D041
:100AB800010E1200040E12000001706F000E0001FA
:100AC8006C6F280E6D6F000E6E6F7005D8A402D083
:100AD800300E71D0020E7019D8A402D0500E6BD00F
:100AE800030E7019D8A402D0700E65D0040E7019C8
:100AF800D8A402D0900E5FD0050E7019D8A402D0E9
:100B0800C00E59D0060E7019D8A402D0C70E53D003
:100B1800070E7019D8A402D0C80E4DD0080E70194F
:100B2800D8A402D0C90E47D0090E7019D8A402D093
:100B3800B80E41D00A0E7019D8A402D0CA0E3BD004
:100B48000B0E7019D8A402D0D00E35D00C0E701927
:100B5800D8A402D0B90E2FD00E0E7019D8A402D086
:100B6800BB0E29D00F0E7019D8A402D0BC0E23D00A
:100B7800100E7019D8A402D0BD0E1DD01F0E70190A
:100B8800D8A402D0B00E17D0200E7019D8A402D065
:100B9800B20E11D0210E7019D8A402D0B40E0BD009
:100BA800220E7019D8A402D0B60E05D0230E7019E3
:100BB800D8A403D0100E6F6F10D0280E70650DD01A
:100BC800390E70610AD0010E6C6F7051D70F060D87
:100BD800F350800F6F6F060E6D6F6A516D5DD8A070
:100BE80067D0090E70651ED070C060F0616B000E92
:100BF800636F0A0E626F29EC0FF000016051410F1C
:100C08000201A06F70C060F00001616B000E636F9D
:100C18000A0E626FA6EC0FF000016051300F02015E
:100C2800A16F05D000017051300F0201A06F230E93
:100C3800A26F000E00016E6F27D06FC063F06E5177
:100C4800010DF3506825D96EF4506921DA6EDF5032
:100C5800646F6C5150EC11F000016E51010DF350AE
:100C68006825D96EF4506921DA6E6EC06BF0030EF8
:100C78006B276B51010DA00EF324E16E020EF420D8
:100C8800E26EDFCFE7FF6E2B6A516E5DD8A0D5D735
:100C98006EC06BF0030E6B276B51010DA00EF32491
:100CA800D96E020EF420DA6E230EDF6E010E1200EA
:100CB800000E120022EEE8F010EE8BF00F0EDBCFE4
:100CC800E3FFE806FCE221EE8DF010EE9BF0080E43
:100CD800DBCFE3FFE806FCE240C0ADF041C0AEF078
:100CE80042C0AFF021EE84F010EEA4F0080EDBCF86
:100CF800E3FFE806FCE2B5EC11F00F0E446E8B0E34
:100D08000001616F000E626F100E636F010E646F59
:100D1800000E656F6DEC09F00001C06FC005D8A426
:100D280009D044EC0DF0E806D8A40BD0010E000160
:100D3800C46F07D0050EC019D8A403D01EEC11F05B
:100D480012000001C451D8B412009B0E616F000E4E
:100D5800626F090E636F000E646F000E656F6DECB5
:100D680009F00001BF6FC351896F8A6B89C061F0B8
:100D78008AC062F0010E636F000E646F000E656F2B
:100D88006DEC09F00001BF6FAD0E616F000E626F70
:100D9800030E636F010E646F000E656F6DEC09F052
:100DA8000001BF6FBF05D8A44ED0A0EC03F0E80641
:100DB800D8A409D0010E0001C66F1EEC11F0000E78
:100DC8000001C46F1200010E0001C56FA40E616F0F
:100DD800000E626F090E636F000E646F000E656F80
:100DE8006DEC09F00001BE6FC351896F8A6B89C031
:100DF80061F08AC062F0010E636F000E646F000E2E
:100E0800656F6DEC09F00001BE6FAD0E616F000EED
:100E1800626F030E636F010E646F000E656F6DECF9
:100E280009F00001BE6FBE05D8A403D01EEC11F076
:100E3800C6D7050EBE19D8A406D01EEC11F0000EB8
:100E48000001C46F1200050EBF19D8A41200000ECD
:100E5800C46F1200010E00016C6F010E6D6FC75157
:100E6800D8B41200030ECA611200000EC76FFBEC63
:100E780011F0000E00016F6F0F0E6F6501D04AD0A0
:100E8800010E6E6F6F51040D000EF324D96E030E20
:100E9800F420DA6E1F50DE18D8A422D06F51040D4A
:100EA800010EF326000EF422000EF324D96E030E71
:100EB800F420DA6EDE502018D8A412D06F51040D39
:100EC800020EF326000EF422000EF324D96E030E50
:100ED800F420DA6EDE502118D8A402D0000E6E6F0E
:100EE8006E516C171F380F0B0F0B6A6F6F51040D83
:100EF800000EF324D96E030EF420DA6EDF50686F0B
:100F080068390F0B0F0B6B6F6A516B19D8B46D2BC7
:100F18006F2BB2D76C51D8B41200000E706F020E4E
:100F2800706501D03CD07051010D1F0EF324D96EAD
:100F3800000EF420DA6ECA51040D000E686F030E1D
:100F4800696FF3506827F45069237051010DF3500D
:100F58006825E16EF4506921E26EDFCFE7FFCA51E0
:100F6800040DF3507025800F636FCA51040D000EF5
:100F7800686F030E696FF3506827F4506923705146
:100F8800010DF3506825D96EF4506921DA6EDF50EF
:100F9800646F010E50EC11F00001702BC0D7CA51DC
:100FA800040D030EF326000EF422000EF324D96E6E
:100FB800030EF420DA6E6DC0DFFFCA51040DF35042
:100FC800830F636FCA51040D030EF326000EF4223B
:100FD800000EF324D96E030EF420DA6EDF50646F2E
:100FE800010E50EC11F00001CA2B120021EEA6F000
:100FF80010EE64F0060EDBCFE3FFE806FCE2000E1D
:1010080000016D6F000E6C6F000E6E6F9F0E6E65A7
:1010180001D00FD06E51010D000EF324D96E020ECF
:10102800F420DA6E6851DE18D8B46EC06DF06E2BFD
:10103800EDD76DC060F0FC0E60276051010D000E09
:10104800F324D96E020EF420DA6E6451DE18D8A4A7
:1010580094D06DC060F0FD0E60276051010D000E48
:10106800F324D96E020EF420DA6E6551DE18D8A486
:1010780084D06DC060F0FE0E60276051010D000E37
:10108800F324D96E020EF420DA6E6651DE18D8A465
:1010980074D06DC060F0FF0E60276051010D000E26
:1010A800F324D96E020EF420DA6E6751DE18D8A444
:1010B80064D06D51606F616B601F611F604B612B65
:1010C8006C51626F636B605162276151632363BF28
:1010D80040D0635104E1040E625DD8A03AD06CC0E0
:1010E80060F0FE0E60276051010D000EF324D96EEA
:1010F800020EF420DA6EDF506F6F400E6F6503D07A
:101108006F51C90F02D06F51D00F0A0DF3CF6FF096
:101118006CC060F0FF0E60276051010D000EF324D3
:10112800D96E020EF420DA6EDF506B6F400E6B65DD
:1011380002D0410E01D0300E6B5F6B516F276F519B
:10114800D8B405D0630E6F6102D0010E1200040EF0
:1011580012006CC060F0FF0E60276051010D000E98
:10116800F324D96E020EF420DA6EDF50D00F6B6FC5
:101178006B51D8A4EAD7040E1200040E1200000125
:10118800756F21EE7BF010EE69F0080EDBCFE3FF00
:10119800E806FCE2BEC172F0BFC173F0C0C174F0D2
:1011A800000E0001776F000E786FB5EC11F00001AA
:1011B800C005D8B48CD0690E616F000E626F090E3D
:1011C800636F000E646F000E656F6DEC09F000012F
:1011D800C06FE90E616F010E626F090E636F000E3A
:1011E800646F000E656F6DEC09F00001C06F000EB2
:1011F800C06F720E616F000E626F030E636F000E98
:10120800646F010E656F6DEC09F00001C06FC005D9
:10121800D8B403D00750D8B4FAD7C005D8A443D05F
:101228007551D8B440D0000E786F270E786501D07C
:1012380015D07851010DA00EF324D96E020EF420BA
:10124800DA6E230EDE18D8B4772B020E7719D8A4DD
:1012580003D07829766F772B782BE7D7A00E616FAC
:10126800020E626F76C063F0000E646F000E656F49
:101278006DEC09F00001BF6F1A0E616F000E626F0E
:10128800010E636F010E646F000E656F6DEC09F05F
:101298000001BF6F01D004000001BF05D8B403D01E
:1012A8000750D8B4F8D7C005D8A404D01EEC11F064
:1012B800010E1200040E0001C019D8A402D0040EB9
:1012C8001200050EC019D8A402D0050E1200020E95
:1012D80012000650D8A452D00550D8A44FD0000E02
:1012E8000001676F000E666FAB98000E1B6E000E54
:1012F8000A6E000E096E000E076E39D0000E076EDA
:10130800000E0001676F1BD061C0D9FF62C0DAFF11
:101318006751010D400EF324E16E030EF420E26ED6
:10132800DFCFE7FF61C0D9FF62C0DAFFDF50166E7A
:10133800165065EC12F00001614B622B672B63516C
:10134800675DD8A0E1D76551D8A40BD06451D8B453
:1013580008D0AB887AEC12F025EC12F0010E066E7C
:1013680006D000016551D8B402D0010E056E4406BE
:101378004428D8B403D00A50D8B4C0D70001655166
:10138800D8B414D00550D8B411D0AB889EAAFED7D3
:10139800AECF16F03C0E1618D8A404D0000E056E79
:1013A800010E1200000E056E040E120000016451B9
:1013B800D8B423D00650D8B420D00A50D8B407D017
:1013C80080EC12F0AB98000E066E010E1200095068
:1013D800D8B407D080EC12F0AB98000E066E040E5D
:1013E80012000750D8B407D080EC12F0AB98000E6A
:1013F800066E050E1200030E120000016451D8A4F7
:1014080004D0010E0A6E010E1200040E120021EE25
:1014180069F010EE62F0080EDBCFE3FFE806FCE2AD
:10142800000E00016C6F9F0E6C6501D086D06C5168
:10143800010D000EF324D96E020EF420DA6E62510B
:10144800DE18D8A478D06CC060F0010E6027605117
:10145800010D000EF324D96E020EF420DA6E6351EA
:10146800DE18D8A468D06CC060F0020E6027605106
:10147800010D000EF324D96E020EF420DA6E6451C9
:10148800DE18D8A458D06CC060F0030E60276051F5
:10149800010D000EF324D96E020EF420DA6E6551A8
:1014A800DE18D8A448D06CC060F0040E60276051E4
:1014B800010D000EF324D96E020EF420DA6E665187
:1014C800DE18D8A438D06CC060F0050E60276051D3
:1014D800010D000EF324D96E020EF420DA6E675166
:1014E800DE18D8A428D06CC060F0060E60276051C2
:1014F800010D000EF324D96E020EF420DA6E685145
:10150800DE18D8A418D06CC060F00A0E60276051AD
:10151800010D000EF324D96E020EF420DA6EDF50AE
:101528006B6F300E6B6505D0390E6B6102D0010E02
:101538001200040E12006C2B76D7040E120021EE56
:1015480096F010EE62F0070EDBCFE3FFE806FCE250
:10155800000E00016B6F9F0E6B6501D076D06B514A
:10156800010D000EF324D96E020EF420DA6E6251DA
:10157800DE18D8A468D06BC060F0010E60276051F7
:10158800010D000EF324D96E020EF420DA6E6351B9
:10159800DE18D8A458D06BC060F0020E60276051E6
:1015A800010D000EF324D96E020EF420DA6E645198
:1015B800DE18D8A448D06BC060F0030E60276051D5
:1015C800010D000EF324D96E020EF420DA6E655177
:1015D800DE18D8A438D06BC060F0040E60276051C4
:1015E800010D000EF324D96E020EF420DA6E665156
:1015F800DE18D8A428D06BC060F0050E60276051B3
:10160800010D000EF324D96E020EF420DA6E675134
:10161800DE18D8A418D06BC060F0090E602760519E
:10162800010D000EF324D96E020EF420DA6EDF509D
:101638006A6F300E6A6505D0360E6A6102D0010EF7
:101648001200040E12006B2B86D7040E120021EE36
:1016580032F010EE8FF00B0EDBCFE3FFE806FCE272
:1016680023EE7CF010EE68F0180EDBCFE3FFE806FF
:10167800FCE221EE00F010EE81F00D0EDBCFE3FF6F
:10168800E806FCE2B5EC11F00001C005D8B413D0AF
:101698008F0E616F000E626F0C0E636F010E646F28
:1016A800000E656F6DEC09F00001C06FC005D8A48D
:1016B80002D00F0E446EC005D8A416D0BF05D8B40A
:1016C80013D0680E616F000E626F190E636F010E02
:1016D800646F000E656F6DEC09F00001BF6FBF0508
:1016E800D8A402D00F0E446EBF05D8A416D0BE05EC
:1016F800D8B413D0810E616F000E626F0E0E636F47
:10170800010E646F000E656F6DEC09F00001BE6F8D
:10171800BE05D8A402D00F0E446E050EC019D8B469
:1017280008D0050EBF19D8B404D0050EBE19D8A428
:1017380004D01EEC11F0050E12000001C005D8A45B
:101748000AD0BF05D8A407D0BE05D8A404D01EEC83
:1017580011F0010E1200020E12000001C251D8A4AD
:1017680003D07DEC10F012000001C251D8B416D09D
:10177800C151D8A413D02BEC0BF0E806D8A406D09E
:1017880018EC12F0010E0001C16F12002BEC0BF0E7
:10179800050AD8A412007DEC10F012000001C15116
:1017A800D8B41200C851D8B409D0C651D8A406D0AC
:1017B800000EB46F000EC86F5EEC06F00001C65153
:1017C800D8B418D0010EC3EC08F0E806D8A40BD0A2
:1017D8000001B42BB405B06F050EB06104D0000E43
:1017E800B46F000EC66F040E0001B4651DD0000E64
:1017F800C66F1AD0C551D8B417D0000EC3EC08F084
:10180800E806D8A40BD00001B42BB405B06F050EC0
:10181800B06104D0000EB46F000EC56F040E000155
:10182800B46502D0000EC56F6CEC0FF012007E0E8E
:10183800F66E240EF76E000EF86E03EE7CF010EED6
:1018480019F00900F5CFEEFFE550E150FAE1700E0E
:10185800F66E220EF76E000EF86E02EEC8F010EE6D
:1018680030F00900F5CFEEFFE550E150FAE1C60E81
:10187800F66E190EF76E000EF86E01EE00F010EE1F
:10188800C1F00900F5CFEEFFE550E150FAE15C0E3A
:10189800F66E250EF76E000EF86E00EE40F010EEB4
:1018A80005F00900F5CFEEFFE550E150FAE103EE4F
:1018B80000F07C0EEE6AE806FDE102EE00F0C80ECC
:1018C800EE6AE806FDE101EEC1F0310EEE6AE806C7
:1018D800FDE100EEB1F0190EEE6AE806FDE100EE5A
:1018E80001F0230EEE6AE806FDE145904592000EF0
:1018F800F86E0001FDEF10F054D04350D8B4120038
:1019080007D08A960FD08A860DD0000E136E0AD0A3
:101918001350010AD8B4F5D7040AD8B4F4D7110A79
:10192800D8B4F3D78B88000E126E12008B980BD0A8
:101938008B88000E126E07D01250010AD8B4F6D761
:10194800030AD8B4F5D78A86000E136E12008B9856
:101958000FD08B880DD0000E126E0AD01250010ADB
:10196800D8B4F5D7040AD8B4F4D7110AD8B4F3D741
:101978008A96000E136E12008A960FD08A860DD0B2
:10198800000E136E0AD01350010AD8B4F5D7040A12
:10199800D8B4F4D7110AD8B4F3D78B98000E126EC6
:1019A80012001E50000AD8B4A8D7020AD8B4C4D767
:1019B800010AD8B4D3D7070AD8A41200E4D74154EF
:1019C8002B434E4D493D312C310D0A0041542B43D8
:1019D800455245473F0D0A00415423534C45443D69
:1019E800340D0A0041542B434D45453D320D0A0044
:1019F80041542B434D47463D310D0A00415423477E
:101A08005052533F0D0A0041542B435245473F0D56
:101A18000A0041542B4350494E3F0D0A00415423BC
:101A280043474D520D0A002B43455245473A200083
:101A380041542B4353510D0A0041542B434D4753F6
:101A48003D0041542B434D47443D0041542B434DE9
:101A580047523D002B435245473A20002B434D4700
:101A6800523A20002B4353513A2000415445310D3E
:0F1A78000A0041540D0A0052454320000D0A0098
:101A880021EEB9F010EE62F0040EDBCFE3FFE806BA
:101A9800FCE2000E0001676F9F0E676501D04ED013
:101AA8006751010D000EF324D96E020EF420DA6E90
:101AB8006251DE18D8A440D067C060F0010E6027DC
:101AC8006051010D000EF324D96E020EF420DA6E77
:101AD8006351DE18D8A430D067C060F0020E6027CA
:101AE8006051010D000EF324D96E020EF420DA6E57
:101AF8006451DE18D8A420D067C060F0030E6027B8
:101B08006051010D000EF324D96E020EF420DA6E36
:101B18006551DE18D8A410D067C060F0FD0E6027AC
:101B28006051010D000EF324D96E020EF420DA6E16
:101B3800DF50C36F010E1200040E1200040E1200D3
:101B480049D0B2EC12F0B1EC12F0B3EC12F04BEC5D
:101B580010F0D8EC10F012000400B1EC0BF0B1EC6E
:101B680012F0B3EC12F04BEC10F0D8EC10F01200BD
:101B78000400628AF2860001C751D8B40CD03F0E27
:101B8800CA6109D01F0E666F000E676F2EEC07F052
:101B9800000E0001C76F630EB15D020EB259D8A0E6
:101BA8001200A4EC12F0C9C01EF0120004001F0EAF
:101BB80000016B6F000E6C6FE1EC0EF0630E00011C
:101BC800B15D020EB259D8A01200A4EC12F0C9C03F
:101BD8001EF012001E50000AD8B4B3D7020AD8B4B7
:101BE800BBD7010AD8B4C4D7070AD8A41200DED7D5
:101BF8000001626F0250D8A404D062C0C1F1022A69
:101C08001200000E0001636F1DD06351020DC10E5A
:101C1800F324D96E010EF420DA6E6251DE18D8A4CE
:101C280010D06351020D010EF326000EF422C10EEE
:101C3800F324D96E010EF420DA6E6051DE18D8B4A0
:101C48001200632B0250635DD8A0DFD70250020D4B
:101C5800C10EF324D96E010EF420DA6E62C0DFFFE4
:101C68000250020D010EF326000EF422C10EF324D9
:101C7800D96E010EF420DA6E60C0DFFF022A02047A
:101C8800616F270E6165120002061200296E02506C
:101C9800D8A404D029C0C1F1022A1200000E2A6E6D
:101CA8001DD02A50020DC10EF324D96E010EF42066
:101CB800DA6E2950DE18D8A410D02A50020D010E71
:101CC800F326000EF422C10EF324D96E010EF4207F
:101CD800DA6E2750DE18D8B412002A2A02502A5C7D
:101CE800D8A0DFD70250020DC10EF324D96E010E21
:101CF800F420DA6E29C0DFFF0250020D010EF32630
:101D0800000EF422C10EF324D96E010EF420DA6E0F
:101D180027C0DFFF022A0204286E270E286412005B
:101D280002061200000E0001686F000E696FC751AD
:101D3800D8B441D0000EC76FFBEC11F035D0010EBE
:101D48000001686F000E6A6F020E6A6501D024D028
:101D58006951040D000E636F030E646FF35063271F
:101D6800F45064236A51010DF3506325D96EF45081
:101D78006421DA6E6A51010D1F0EF324E16E000E24
:101D8800F420E26EDE50E618D8A402D0010E01D08D
:101D9800000E68176A2BD8D76851D8B404D069C028
:101DA80067F067511200692B100E0001696103D0BA
:101DB8006851D8B4C4D7FF0E12000001C751D8B477
:101DC80012006BC061F06CC062F096EC0EF000017E
:101DD8006E6F6E29D8B41200000E6F6F030E6F6518
:101DE80001D00ED06E51040DF3506F25800F636F34
:101DF800000E646F010E50EC11F000016F2BEED74E
:101E08006EC06FF00E0E6F6501D01200000E6D6F80
:101E1800030E6D6501D017D06E51040DF3506F2578
:101E2800800F636F6E51050DF3506D25800F606F45
:101E3800010EEBEC11F00001646F010E50EC11F093
:101E480000016D2BE5D76F2BDDD7000E0001656F04
:101E580063AF06D0626D631FD8B0632B010E656F48
:101E680061AF06D0606D611FD8B0612B010E651B94
:101E7800000E676F000E666F62516311D8B41CD0F4
:101E8800010E646F04D0D89062376337642B63AF58
:101E9800FAD7D890663767376251605D63516159E8
:101EA800D8A005D06251605F6351615B6681D890AC
:101EB80063336233642FEDD76551D8B404D0666DAF
:101EC800671FD8B0672B66C060F067C061F012006A
:101ED800B80E0001636F000E68EC11F0140DF3CF1B
:101EE80066F022D01E0E176405D0000E176E182A51
:101EF800020E106E00016651185CD8A01200000E88
:101F0800186E030E106E1200010E0001C86F010E4C
:101F1800106E1200ABEC12F0000E0001C16FC9C0C8
:101F28001EF0000E106E12001050000AD8B41200F5
:101F3800010AD8B4D7D7030AD8B4E6D7010AD8A477
:101F48001200E8D7000E0001656F61AF06D0606D22
:101F5800611FD8B0612B010E656F63AF04D0626D4D
:101F6800631FD8B0632B62516311D8B418D0010E27
:101F7800646F04D0D89062376337642B63AFFAD7A5
:101F88006251605D63516159D8A004D06251605FAD
:101F98006351615BD89063336233642FF1D7655125
:101FA800D8B404D0606D611FD8B0612B60C060F0F8
:101FB80061C061F01200000E0001706F25D0899693
:101FC8001200B30E1B641200C251D8A4120080EC98
:101FD80012F0B2EC01F00001706F7005D8A407D0C0
:101FE800000E046E010EC26F020E0F6E1200020E7A
:101FF8007019D8A402D000F01200030E0001701965
:10200800D8A41200042A12000F50000AD8B4D7D757
:10201800010AD8B4D6D7030AD8B41200010AD8B432
:102028001200070A1200020E0001606F000EEBECAE
:1020380011F00001CA6F000E656F24D0000E666FA4
:10204800030E666501D01DD06551040D000E636F47
:10205800030E646FF3506327F45064236651010D37
:10206800F3506325D96EF4506421DA6E6651652504
:10207800800F606F010EEBEC11F0DF6E0001662B34
:10208800DFD7652BCA51655DD8B01200D7D781A8B4
:1020980014D00150D8A411D04E0E0001606FEB0E81
:1020A800E82EFED7602FFCD781A805D0142A56EC5D
:1020B80012F0000E116E010E0BD04E0E0001606F73
:1020C800EB0EE82EFED7602FFCD781B802D0000EA9
:1020D800016E1550D8B406D01450D8A403D08A96EF
:1020E8008B9802D08A868B88000E126E000E136EB3
:1020F8001200DFEC0FF00F04D8A406D00F04D8A408
:102108001BD0010E046418D08996030E0001726F6B
:10211800080E716F770EE82EFED7712FFCD7722F3D
:10212800FAD78986010E0F6E000E0001C26F000EED
:10213800046E0F0E446E12000F04D8A4120004049B
:10214800D8A41200010E0F6EA8EC12F00F0E446E08
:102158001200D39ED3508F0B6009D36ED386010E25
:102168000F01386F000E396F000E3A6F010E926E34
:10217800B60E936E840E946E8B888A86870ED56E03
:10218800FC0ED76EF30ED66EF29489986288F286AA
:10219800F28E000E1E6E000E0F6EA3EC11F01EECF8
:1021A80011F07DEC11F012000001C751D8B41200F3
:1021B8001F0E616F000E626F96EC0EF000016C6FDF
:1021C800000EC76F6C29D8B412006C51040D030EB1
:1021D800F326000EF422000EF324D96E030EF42029
:1021E800DA6EDF506B6F6BC060F06C51FCEC0DF079
:1021F8001200ADEC10F017EC10F00400A4EC0DF098
:102208005EEC12F00009D8B412D01E50D8A40FD03A
:102218001950D8A40CD00F50D8A409D091EC12F0C2
:102228008CEC12F0A0EC12F0030000F0E6D75EECA4
:1022380012F0E3D7000E0001C06F000EBF6F000E52
:10224800BE6F000EBD6F000EBC6F000EBB6F000EA0
:10225800BA6F000EB96F000EB86F000EB76F000EA0
:10226800B66F000EB56F12004154234750494F3DD9
:10227800372C302C320D0A0041542B4950523D3135
:1022880031353230300D0A0041542B434D474C3D17
:1022980022414C4C220D0A000001656FF29E65C078
:1022A800AAFF63C0A9FF64C0A8FFA69CA69EA68437
:1022B800F29E550EA76EAA0EA76EA682F28EA6945F
:1022C800A6B2FED7F28E12000001646F63C060F000
:1022D80000016451EBEC11F00001656F400E65657B
:1022E80003D06551C90F02D06551D00F656F655194
:1022F8001200F29E4CEC12F0300EB1123F0EB116E5
:10230800B184B180A082A192600EB36E000EB26E4D
:10231800F29EF28CF28E1200000E0001B26F000ED7
:10232800B16F0F015151FC0B0209516F518751894F
:10233800518B518D51857D80F28CF28E1200938ED7
:10234800939C938A260E726E900E716EC80E706EF4
:10235800CF0E756E000E766E618AA38AB5EC11F009
:102368001200B886B88CB898B892B890AC84AC987B
:10237800000EB06E100EAF6EAB8E948E949CAB8830
:10238800AC8A9E9A1200938E939C938A260E726E44
:10239800900E716EC80E706ECF0E756E000E766E52
:1023A800618AA38AD9EC11F01200B886B88CB89863
:1023B800B892B890AC84AC98000EB06E100EAF6EA8
:1023C800AB8E948E949CAB88AC8A9E9A12000001C6
:1023D800616FF29E61C0AAFF60C0A9FFA69CA69E7D
:1023E800A680A8CF62F0F28E000162511200A3EC21
:1023F80011F0240E6CEC12F0410E6CEC12F00D0E84
:102408006CEC12F00A0E6CEC12F01200256EF29EC3
:1024180025C0AAFF24C0A9FFA69CA69EA680A8CF77
:1024280026F0F28E26501200BA50FC0B0209BA6E42
:10243800BA86BA88BA8ABA8CBA849D82F28CF28E2D
:102448001200F29E350E0F014E6F7D82F28C7E9245
:102458000B0E506F450E4F6FF28E1200F29E350E26
:102468000F014E6F7D82F28C7E920B0E506F450EDF
:102478004F6FF28E120041542B43504D533D224D65
:0F24880045222C224D45222C224D45220D0A00C3
:10249800870ED56EF20ED66EFC0ED76EF294F28AC7
:1024A800F28E1200B180A082A1920B0EB36E450E7F
:1024B800B26E12000250D8B402D0010E1200000E03
:1024C80012000001606FACA2FED760C0ADFF120021
:1024D8000001606F72A2FED760C073FF1200000E89
:1024E800146E000E116EB190A0921200F29E9D8A99
:1024F8009E9AF28CF28E1200000E1B6E0F014E9106
:102508007D921200000E1B6E0F014E917D921200FB
:10251800AB9E949E8B9E9D9A1200AB98F29E9D9ABC
:10252800F28E1200AB98F29E9D9AF28E1200F20E75
:10253800D66EFC0ED76E1200719E7198729A1200B8
:102548000F0151957D90120025EC12F01200BA94FB
:092558009D9212000D0A00010F12
:062562001200120012003D
:020000040020DA
:08000000FFFFFFFFFFFFFFFF00
:020000040030CA
:0E000000FF28193EFF3D81FF00000FE00F407A
:00000001FF
