:0400000020EF01F0FC
:100008004882FACF04F0FBCF05F0E9CF06F0EACF3B
:1000180007F0E1CF08F0E2CF09F0D9CF0AF0DACF44
:100028000BF0F3CF0CF0F4CF0DF0F6CF0EF0F7CFC6
:100038000FF0F8CF10F0F5CF11F048C012F049C01A
:1000480013F04AC014F04BC015F09EBA9DAAC1D057
:100058009E9AAECF3DF04450010D000EF324D96EA8
:10006800020EF420DA6E3DC0DFFF442A9F0E44647E
:1000780001D04406020E4464ACD044C002F0FE0E27
:1000880002260250010D000EF324D96E020EF42050
:10009800DA6E4F0EDE18D8A43BD044C002F0FF0E33
:1000A80002260250010D000EF324D96E020EF42030
:1000B800DA6E4B0EDE18D8A42BD04450010D000E7A
:1000C800F324D96E020EF420DA6E0D0EDE18D8B4C1
:1000D8000CD04450010D000EF324D96E020EF4200A
:1000E800DA6E0A0EDE18D8A413D0000E386E000E91
:1000F800396E000E3A6E000E3B6E9AEC0EF0010E51
:10010800436E000E426E000E406EC1EC0EF061D0E0
:10011800040E44645ED044C002F0FC0E0226025075
:10012800010D000EF324D96E020EF420DA6E450E8E
:10013800DE18D8A44ED044C002F0FD0E02260250AC
:10014800010D000EF324D96E020EF420DA6E520E61
:10015800DE18D8A43ED044C002F0FE0E022602509B
:10016800010D000EF324D96E020EF420DA6E520E41
:10017800DE18D8A42ED044C002F0FF0E022602508A
:10018800010D000EF324D96E020EF420DA6E4F0E24
:10019800DE18D8A41ED04450010D000EF324D96EE9
:1001A800020EF420DA6E520EDE18D8A412D0000E19
:1001B800386E000E396E000E3A6E000E3B6E9AECE9
:1001C8000EF0000E436E010E426E000E406EC1EC42
:1001D8000EF0A1A20BD0010E3826000E39223A22C9
:1001E8003B22A1928EEC0EF037EC0BF015C04BF0D1
:1001F80014C04AF013C049F012C048F011C0F5FF0E
:1002080010C0F8FF0FC0F7FF0EC0F6FF0DC0F4FFD7
:100218000CC0F3FF0BC0DAFF0AC0D9FF09C0E2FF28
:1002280008C0E1FF07C0EAFF06C0E9FF05C0FBFF01
:0C02380004C0FAFF48921100CCEF0CF05B
:101000000041542353443D312C302C3130353130A4
:101010002C226D6F64756C65732E74656C69742E0B
:10102000636F6D222C302C302C310D0A004154237B
:1010300053524543563D312C38390D0A0041542353
:1010400053474143543D332C300D0A004154235340
:1010500053454E443D310D0A0041542353483D3120
:101060000D0A004563686F2E0D0A003230323000E1
:01107000007F
:1010720020EEFAF010EEDFF0040EDBCFE3FFE8061D
:10108200FCE220EEF3F010EED8F0060EDBCFE3FF29
:10109200E806FCE221EE8FF010EE80F00B0EDBCFC3
:1010A200E3FFE806FCE221EE58F010EE60F00F0ECE
:1010B200DBCFE3FFE806FCE221EE48F010EE70F031
:1010C2000F0EDBCFE3FFE806FCE221EE83F010EE29
:1010D2008CF00B0EDBCFE3FFE806FCE220EE25F0FE
:1010E20010EEC5F0090EDBCFE3FFE806FCE221EECD
:1010F200B1F010EEA4F00A0EDBCFE3FFE806FCE24B
:1011020021EEA6F010EEAFF00A0EDBCFE3FFE80609
:10111200FCE221EE77F010EE98F00B0EDBCFE3FF4E
:10112200E806FCE221EE9BF010EEBAF00A0EDBCFED
:10113200E3FFE806FCE220EE2FF010EECFF0080EFF
:10114200DBCFE3FFE806FCE264EC0EF00001F051B5
:10115200D8A40ED0DF0E176E000E186E050E196E93
:10116200010E1A6E000E1B6E00EC0AF00001F01761
:10117200F051D8B416D04350D8B413D0EF51D8A4FC
:1011820010D0000E436ED80E176E000E186E070EAA
:10119200196E010E1A6E000E1B6E00EC0AF00001B1
:1011A200EF17EF51D8B416D04350D8B413D0EE5144
:1011B200D8A410D0000E436E800E176E000E186E6B
:1011C2000C0E196E010E1A6E000E1B6E00EC0AF068
:1011D2000001EE17EE51D8B416D04350D8B413D054
:1011E200ED51D8A410D0000E436E600E176E000EA3
:1011F200186E100E196E010E1A6E000E1B6E00ECA8
:101202000AF00001ED17ED51D8B416D04350D8B40E
:1012120013D0EC51D8A410D0000E436E700E176E8E
:10122200000E186E100E196E010E1A6E000E1B6E55
:1012320000EC0AF00001EC17EC51D8B416D0435080
:10124200D8B413D0EB51D8A410D0000E436E8C0E3C
:10125200176E000E186E0C0E196E010E1A6E000E2D
:101262001B6E00EC0AF00001EB17EB51D8B416D05C
:101272004350D8B413D0EA51D8A410D0000E436E14
:10128200C50E176E000E186E0A0E196E010E1A6E3A
:10129200000E1B6E00EC0AF00001EA17EA51D8B406
:1012A20016D04350D8B413D0E951D8A410D0000EB0
:1012B200436EA40E176E000E186E0B0E196E010E01
:1012C2001A6E000E1B6E00EC0AF00001E917E951DC
:1012D200D8B416D04350D8B413D0E851D8A410D003
:1012E200000E436EAF0E176E000E186E0B0E196EC7
:1012F200010E1A6E000E1B6E00EC0AF00001E817D8
:10130200E851D8B416D04350D8B413D0E751D8A47A
:1013120010D0000E436E980E176E000E186E0C0E53
:10132200196E010E1A6E000E1B6E00EC0AF000011F
:10133200E717E751D8B416D04350D8B413D0E651CA
:10134200D8A410D0000E436EBA0E176E000E186E9F
:101352000B0E196E010E1A6E000E1B6E00EC0AF0D7
:101362000001E617E651D8B416D04350D8B413D0D2
:10137200E551D8A410D0000E436ECF0E176E000EAA
:10138200186E090E196E010E1A6E000E1B6E00EC1D
:101392000AF00001E517E551D8B407D04350D8B49C
:1013A20004D037EC0EF0010E3E6E4350D8A412D09A
:1013B2004050D8B40FD00001E451D8A40BD0010E94
:1013C200E46F000E406E37EC0EF0C6EC0EF0010E2C
:1013D2003F6E11D04350D8A40ED04050D8B40BD099
:1013E2000001E451D8B407D0000EE46F37EC0EF0E0
:1013F200000E12EC0EF0BCEC0EF03E501200000E8D
:101402001F6E000E216E0F0E1E6E000E456E000E38
:10141200436E000E426E000E406E08D1AB98000E75
:10142200406E000E1F6E1AD017C0D9FF18C0DAFF27
:101432001F50010DBC0EF324E16E010EF420E26E8A
:10144200DFCFE7FF17C0D9FF18C0DAFFDF50206EE9
:101452002050B6EC0EF0174A182A1F2A19501F5CAA
:10146200D8A0E2D776EC0EF0AB8881961B50D8B4A8
:1014720012D09EBA03D04050D8B4FBD74050D8A463
:101482000AD082EC0EF0AECF20F03C0E2018D8A489
:1014920002D0010E12001A50D8B4C2D01B50D8B4D8
:1014A200B6D0BED09EBA03D04050D8B4FBD740507D
:1014B200D8A4ADD0AECF20F02150010D000EF32400
:1014C200D96E020EF420DA6E20C0DFFF010E216415
:1014D2009DD021C01CF0FE0E1C261C50010D000EDA
:1014E200F324D96E020EF420DA6E4F0EDE18D8A461
:1014F20032D021C01CF0FF0E1C261C50010D000E24
:10150200F324D96E020EF420DA6E4B0EDE18D8A444
:1015120022D02150010D000EF324D96E020EF420C8
:10152200DA6E0D0EDE18D8B40CD02150010D000E6B
:10153200F324D96E020EF420DA6E0A0EDE18D8A455
:101542000AD0040082EC0EF0AB98010E436E000E3E
:10155200426E43501200040E216458D021C01CF088
:10156200FB0E1C261C50010D000EF324D96E020E38
:10157200F420DA6E450EDE18D8A448D021C01CF043
:10158200FC0E1C261C50010D000EF324D96E020E17
:10159200F420DA6E520EDE18D8A438D021C01CF026
:1015A200FD0E1C261C50010D000EF324D96E020EF6
:1015B200F420DA6E520EDE18D8A428D021C01CF016
:1015C200FE0E1C261C50010D000EF324D96E020ED5
:1015D200F420DA6E4F0EDE18D8A418D021C01CF009
:1015E200FF0E1C261C50010D000EF324D96E020EB4
:1015F200F420DA6E520EDE18D8A408D0040082EC71
:101602000EF0AB98000E436E010E426E212A43503B
:10161200D8B403D04250D8A403D04050D8B442D753
:101622004050D8B403D082EC0EF081861E061E28EC
:10163200D8B403D04350D8B4F1D61E50D8A404D0A5
:1016420082EC0EF0000E12001A50D8A40DD01B50DE
:10165200D8A40AD0000E436EF29EAB889D8AF28C0B
:101662009E9AF28E010E120043501200A0D038C092
:1016720001F0010E0116013A82500118EF0B011818
:10168200826E3B503A1006E1940E385C110E3958C6
:10169200D8A012009AEC0EF0000E386E000E396ED1
:1016A200000E3A6E000E3B6E010E0001F26F120048
:1016B2003B503A10391004E1640E385CD8A0120095
:1016C2009AEC0EF0000E386E000E396E000E3A6E75
:1016D200000E3B6E000E436E000E426E010E406E17
:1016E20012003B503A10391004E1640E385CD8A065
:1016F20012009AEC0EF0000E386E000E396E000EDB
:101702003A6E000E3B6E000E436E000E426E010EEC
:10171200406E12003B503A1006E1E80E385C030EB0
:101722003958D8A012009AEC0EF0000E386E000E56
:10173200396E000E3A6E000E3B6E000E436E000EC6
:10174200426E010E406E12003B503A1006E1E80E66
:10175200385C030E3958D8A012009AEC0EF0000E35
:10176200386E000E396E000E3A6E000E3B6E000EA1
:10177200436E000E426E010E406E12003B503A1054
:10178200391004E1640E385CD8A012009AEC0EF015
:10179200000E386E000E396E000E3A6E000E3B6E71
:1017A200000E436E000E426E010E406E12003F505C
:1017B200010AD8B45CD7030AD8B47AD7010AD8B4DC
:1017C20090D7070AD8B4A6D7010AD8B4BDD7030A5E
:1017D200D8A41200D3D7010EF66E100EF76E20EECB
:1017E20060F02B0E0900F5CFDEFFE806FBE24C0E9F
:1017F200F66E100EF76E20EE9CF00C0E0900F5CF7F
:10180200DEFFE806FBE22D0EF66E100EF76E20EEFE
:101812008CF00F0E0900F5CFDEFFE806FBE2630E47
:10182200F66E100EF76E20EEA9F0070E0900F5CF46
:10183200DEFFE806FBE21A0E0001B16F64EC0EF067
:10184200600E176E000E186E2C0E196E010E1A6EB7
:10185200000E1B6E00EC0AF09C0E176E000E186E46
:101862000D0E196E000E1A6E010E1B6E00EC0AF0C0
:10187200A90E176E000E186E080E196E000E1A6E63
:10188200000E1B6E00EC0AF0B10E176E000E186E01
:10189200010E196E010E1A6E000E1B6E00EC0AF09C
:1018A200AB88150E236E4B0E226EBE0EE82EFED7AF
:1018B200222EFCD7232EFAD700D0AB988C0E176EAF
:1018C200000E186E100E196E010E1A6E000E1B6EAF
:1018D20000EC0AF0BCEC0EF0120041542B434744DA
:1018E200434F4E543D332C22495056345636222C07
:1018F2002277796C65736C74652E6777372E767AEA
:1019020077656E7470220D0A004154235343464793
:101912004558543D312C312C302C302C302C300D8C
:101922000A004154234750494F3D372C302C320D89
:101932000A0041542B4950523D3131353230300D7D
:101942000A0041542353474143543D332C310D0A7D
:101952000041542B43455245473F0D0A0041542351
:10196200534C45443D340D0A0041542B434D4545EB
:101972003D320D0A00415423475052533F0D0A0095
:1019820041542B435245473F0D0A0041542B4350CB
:10199200494E3F0D0A00DC0EF66E180EF76E000E71
:1019A200F86E01EE00F010EEBCF00900F5CFEEFF8C
:1019B200E550E150FAE15F0EF66E1D0EF76E000E75
:1019C200F86E00EEF3F010EE0CF00900F5CFEEFF2A
:1019D200E550E150FAE14C0EF66E1D0EF76E000E68
:1019E200F86E00EE25F010EE13F00900F5CFEEFFD1
:1019F200E550E150FAE102EE00F0A00EEE6AE806D0
:101A0200FDE101EEBCF03C0EEE6AE806FDE100EEFF
:101A1200E4F00F0EEE6AE806FDE100EE38F0100E7B
:101A2200EE6AE806FDE148904892000EF86E000169
:101A320051EF0EF021EE00F010EE60F02E0EDBCF33
:101A4200E3FFE806FCE221EE2FF010EE8FF0180E15
:101A5200DBCFE3FFE806FCE221EE68F010EEA8F02F
:101A62000E0EDBCFE3FFE806FCE264EC0EF00001B1
:101A7200F051D8A40ED0600E176E000E186E2F0E05
:101A8200196E010E1A6E000E1B6E00EC0AF00001B8
:101A9200F0178F0E176E000E186E190E196E010ECA
:101AA2001A6E000E1B6E00EC0AF0A80E176E000EE6
:101AB200186E0F0E196E010E1A6E000E1B6E00ECE0
:101AC2000AF00001F16FBCEC0EF0010E0001F16FA3
:101AD20012002BD00001F251D8B41200020E3F6E58
:101AE200120039EC08F00009D8B41200030E3F6E60
:101AF20012001BEC0DF0050E3F6E12000001F151B9
:101B0200D8B41200050E3F6E1200ECEC0BF0AAECFA
:101B12000DF00009D8B4FBD7000E0001F16F000EE2
:101B22003F6E8096000E3E6E12003F50000AD8B4FF
:101B32001200010AD8B4CED7030AD8B4D2D7010A08
:101B4200D8B4D7D7070AD8B4D9D7010AD8A4120073
:101B5200DCD7590EF66E100EF76E20EE6FF0090EFE
:101B62000900F5CFDEFFE806FBE23D0EF66E100E31
:101B7200F76E20EE60F00E0E0900F5CFDEFFE806EC
:101B8200FBE264EC0EF06F0E176E000E186E0A0E7A
:101B9200196E010E1A6E000E1B6E00EC0AF0600E3A
:101BA200176E000E186E0F0E196E010E1A6E000ED1
:101BB2001B6E00EC0AF0BCEC0EF0010E1200D39E7C
:101BC200D3508F0B6009D36ED386010E0F01386F8D
:101BD200928092968096000E3A6F81869396828CBE
:101BE200949C8B8E948E000E396F938094828182A6
:101BF2009382818493848288949881889388818A4D
:101C0200938A8A8C939C818E938E80929292870E75
:101C1200D56EFC0ED76EF30ED66EF294000E3F6EAA
:101C220012003E50D8A41AD03F50D8B417D0809694
:101C3200000E186E0ED00400030E176E080E166EFC
:101C4200770EE82EFED7162EFCD7172EFAD700F005
:101C5200182A070E1864EFD7040005D03F50D8B4F5
:101C620002D0010E3F6E020E3F6E1200000E000106
:101C7200F06F000EEF6F000EEE6F000EED6F000EB4
:101C8200EC6F000EEB6F000EEA6F000EE96F000EB4
:101C9200E86F000EE76F000EE66F000EE56F1200B0
:101CA200E0EC0DF081A80CD0820E246EDE0EE82E40
:101CB200FED7242EFCD781A803D0540E12EC0EF0CE
:101CC2006AEC0DF0EFD7B886B88CB898B892B89095
:101CD200AC84AC98000EB06E100EAF6EAB8E948ECC
:101CE200949CAB88AC8A9E9A1200F29E150EB16E3D
:101CF200A082A192F28CD80EB36EEF0EB26EF28E6B
:101D02001200000E386E000E396E000E3A6E000E92
:101D12003B6EB190A092A1921200F29E150EB16E8E
:101D2200A082A192F28CD80EB36EEF0EB26EF28E3A
:101D32001200000E386E000E396E000E3A6E000E62
:101D42003B6EB190A092A192120041542343474DA1
:101D5200520D0A0041542B4353510D0A0041544580
:091D6200310D0A0041540D0A0084
:101D6C00166EACA2FED716C0ADFF1200AB9E949CB3
:101D7C00829C9D9A1200AB98F29E9D9AF28E120054
:061D8C0076EC0EF01200DF
:020000040020DA
:08000000FFFFFFFFFFFFFFFF00
:020000040030CA
:0E000000FF281F3CFF3D81FF00000FE00F4076
:00000001FF
