:0400000058EF00F0C5
:100008001782FACF01F0FBCF02F0E9CF03F0EACF75
:1000180004F0E1CF05F0E2CF06F0D9CF07F0DACF50
:1000280008F0F3CF09F0F4CF0AF0F6CF0BF0F7CFD2
:100038000CF0F8CF0DF0F5CF0EF017C00FF018C088
:1000480010F019C011F01AC012F0F2A407D0F294FF
:10005800BEEC00F0162A152A87EC00F012C01AF040
:1000680011C019F010C018F00FC017F00EC0F5FF3E
:100078000DC0F8FF0CC0F7FF0BC0F6FF0AC0F4FF75
:1000880009C0F3FF08C0DAFF07C0D9FF06C0E2FFC6
:1000980005C0E1FF04C0EAFF03C0E9FF02C0FBFF9F
:1000A80001C0FAFF17921100A2EF00F0D39ED350BF
:1000B8008F0B6009D36ED386010E0F01386F9280C3
:1000C80092968996000E3A6F8A869396828C949CB3
:1000D8008B8E948E000E396F938094828A829382DD
:1000E8008A8493848B88949881889388818A938A58
:1000F800818C939C818E938E89929292B7EC00F0BA
:10010800000E146E120015D08A960FD08A860DD074
:10011800000E166E0AD01650010AD8B4F5D7040A94
:10012800D8B4F4D7110AD8B4F3D78B88000E156E5B
:1001380012001450000AD8A41200EDD7166A156AE6
:10014800146A136A17901792000EF86E0001C3EF35
:1001580000F0870ED56EF20ED66EFC0ED76EF294B6
:10016800F28AF28E1200F29EADEC00F0F29EF28C52
:10017800F28E1200F20ED66EFC0ED76E12005AECFA
:0401880000F0FFD7AD
:020000040020DA
:08000000FFFFFFFFFFFFFFFF00
:020000040030CA
:0E000000FF291F22FF3D81FF00000FE00F408F
:00000001FF
