:0400000011EF01F00B
:100008004482FACF04F0FBCF05F0E9CF06F0EACF3F
:1000180007F0E1CF08F0E2CF09F0D9CF0AF0DACF44
:100028000BF0F3CF0CF0F4CF0DF0F6CF0EF0F7CFC6
:100038000FF0F8CF10F0F5CF11F044C012F045C022
:1000480013F046C014F047C015F09EBA9DAAB7D069
:100058009E9AAECF3BF04050010D000EF324D96EAE
:10006800020EF420DA6E3BC0DFFF402A9F0E406488
:1000780001D04006020E4064A2D040C002F0FE0E3D
:1000880002260250010D000EF324D96E020EF42050
:10009800DA6E4F0EDE18D8A436D040C002F0FF0E3C
:1000A80002260250010D000EF324D96E020EF42030
:1000B800DA6E4B0EDE18D8A426D04050010D000E83
:1000C800F324D96E020EF420DA6E0D0EDE18D8B4C1
:1000D8000CD04050010D000EF324D96E020EF4200E
:1000E800DA6E0A0EDE18D8A40ED0000E416E65EC4A
:1000F8000DF07E92010E3F6E000E3E6E000E3C6EBD
:1001080070EC0DF05CD0040E406459D040C002F091
:10011800FC0E02260250010D000EF324D96E020EC9
:10012800F420DA6E450EDE18D8A449D040C002F09B
:10013800FD0E02260250010D000EF324D96E020EA8
:10014800F420DA6E520EDE18D8A439D040C002F07E
:10015800FE0E02260250010D000EF324D96E020E87
:10016800F420DA6E520EDE18D8A429D040C002F06E
:10017800FF0E02260250010D000EF324D96E020E66
:10018800F420DA6E4F0EDE18D8A419D04050010DB5
:10019800000EF324D96E020EF420DA6E520EDE1829
:1001A800D8A40DD0000E416E65EC0DF07E92000EC5
:1001B8003F6E010E3E6E000E3C6E70EC0DF07EA29E
:1001C80006D0412A7E9237EC0DF0E5EC0AF015C016
:1001D80047F014C046F013C045F012C044F011C0F7
:1001E800F5FF10C0F8FF0FC0F7FF0EC0F6FF0DC0F7
:1001F800F4FF0CC0F3FF0BC0DAFF0AC0D9FF09C037
:10020800E2FF08C0E1FF07C0EAFF06C0E9FF05C03A
:0E021800FBFF04C0FAFF44921100AFEF0BF0A1
:101000000041542353443D312C302C3130353130A4
:101010002C226D6F64756C65732E74656C69742E0B
:10102000636F6D222C302C302C310D0A004154237B
:1010300053524543563D312C38390D0A0041542353
:1010400053474143543D332C300D0A004154235340
:1010500053454E443D310D0A0041542353483D3120
:101060000D0A004563686F2E0D0A003230323000E1
:01107000007F
:10107200000E1F6E000E216E0F0E1E6EAB981A50E0
:10108200D8A409D01B50D8A406D0F29EAB889D8A62
:10109200F28C9E9AF28E000E416E000E3F6E000E92
:1010A2003E6E000E3C6E00D1000E3C6E000E1F6EB6
:1010B2001AD017C0D9FF18C0DAFF1F50010DB10EA8
:1010C200F324E16E010EF420E26EDFCFE7FF17C0DA
:1010D200D9FF18C0DAFFDF50206E205059EC0DF016
:1010E200174A182A1F2A19501F5CD8A0E2D71B5092
:1010F200D8B40DD0AB889EAAFED7AECF20F03C0E5E
:101102002018D8A402D0010E1200000E12001A50AC
:10111200D8B4BAD0AB882AEC0DF0A9D09EAAFED7DB
:10112200AECF20F02150010D000EF324D96E020E35
:10113200F420DA6E20C0DFFF010E216497D021C0B7
:101142001CF0FE0E1C261C50010D000EF324D96E5D
:10115200020EF420DA6E4F0EDE18D8A42FD021C072
:101162001CF0FF0E1C261C50010D000EF324D96E3C
:10117200020EF420DA6E4B0EDE18D8A41FD02150D6
:10118200010D000EF324D96E020EF420DA6E0D0E5C
:10119200DE18D8B40CD02150010D000EF324D96E04
:1011A200020EF420DA6E0A0EDE18D8A407D0AB982D
:1011B200010E3F6E000E3E6E3F501200040E21647F
:1011C20055D021C01CF0FB0E1C261C50010D000E38
:1011D200F324D96E020EF420DA6E450EDE18D8A47E
:1011E20045D021C01CF0FC0E1C261C50010D000E27
:1011F200F324D96E020EF420DA6E520EDE18D8A451
:1012020035D021C01CF0FD0E1C261C50010D000E15
:10121200F324D96E020EF420DA6E520EDE18D8A430
:1012220025D021C01CF0FE0E1C261C50010D000E04
:10123200F324D96E020EF420DA6E4F0EDE18D8A413
:1012420015D021C01CF0FF0E1C261C50010D000EF3
:10125200F324D96E020EF420DA6E520EDE18D8A4F0
:1012620005D0000E3F6E010E3E6EAB98212A3F5014
:10127200D8B403D03E50D8A403D03C50D8B44ED7F3
:101282005FEC0DF0AB9805D01A50D8A402D0010E35
:101292003F6E060E1D6E130E1C6EAE0EE82EFED7AE
:1012A2001C2EFCD71D2EFAD71E061E28D8B403D03A
:1012B2003F50D8B4F9D63F50120020EEF4F010EEB1
:1012C200DFF0040EDBCFE3FFE806FCE220EEEDF0F8
:1012D20010EED8F0060EDBCFE3FFE806FCE221EECB
:1012E2008FF010EE80F00B0EDBCFE3FFE806FCE29E
:1012F20021EE58F010EE60F00F0EDBCFE3FFE806B0
:10130200FCE221EE48F010EE70F00F0EDBCFE3FFAF
:10131200E806FCE221EE83F010EE8CF00B0EDBCF40
:10132200E3FFE806FCE220EE30F010EEC5F0090E15
:10133200DBCFE3FFE806FCE220EE25F010EEA4F09E
:101342000A0EDBCFE3FFE806FCE221EEA6F010EE88
:10135200AFF00A0EDBCFE3FFE806FCE221EE77F006
:1013620010EE98F00B0EDBCFE3FFE806FCE221EE75
:101372009BF010EEBAF00A0EDBCFE3FFE806FCE2C8
:1013820020EEE4F010EECFF0080EDBCFE3FFE8062C
:10139200FCE207EC0DF0DF0E176E000E186E050E64
:1013A200196E010E1A6E000E1B6E39EC08F0D80E83
:1013B200176E000E186E070E196E010E1A6E000ED1
:1013C2001B6E39EC08F0800E176E000E186E0C0EB4
:1013D200196E010E1A6E000E1B6E39EC08F0600ECB
:1013E200176E000E186E100E196E010E1A6E000E98
:1013F2001B6E39EC08F0700E176E000E186E100E90
:10140200196E010E1A6E000E1B6E39EC08F08C0E6E
:10141200176E000E186E0C0E196E010E1A6E000E6B
:101422001B6E39EC08F0C50E176E000E186E0A0E10
:10143200196E010E1A6E000E1B6E39EC08F0A40E26
:10144200176E000E186E0B0E196E010E1A6E000E3C
:101452001B6E39EC08F0AF0E176E000E186E0B0EF5
:10146200196E010E1A6E000E1B6E39EC08F0980E02
:10147200176E000E186E0C0E196E010E1A6E000E0B
:101482001B6E39EC08F0BA0E176E000E186E0B0EBA
:10149200196E010E1A6E000E1B6E39EC08F0CF0E9B
:1014A200176E000E186E090E196E010E1A6E000EDE
:1014B2001B6E39EC08F06BEC0DF0030E0001FB6FB4
:1014C200010E1200010EF66E100EF76E20EE60F0A5
:1014D2002B0E0900F5CFDEFFE806FBE24C0EF66E9E
:1014E200100EF76E20EE9CF00C0E0900F5CFDEFF19
:1014F200E806FBE22D0EF66E100EF76E20EE8CF073
:101502000F0E0900F5CFDEFFE806FBE2630EF66E72
:10151200100EF76E20EEA9F0070E0900F5CFDEFFE0
:10152200E806FBE21A0E0001B16F07EC0DF0600E47
:10153200176E000E186E2C0E196E010E1A6E000E2A
:101542001B6E39EC08F09C0E176E000E186E0D0E15
:10155200196E000E1A6E010E1B6E39EC08F0A90E00
:10156200176E000E186E080E196E000E1A6E000E1F
:101572001B6E39EC08F0B10E176E000E186E010EDC
:10158200196E010E1A6E000E1B6E39EC08F0AB8854
:10159200150E236E4B0E226EBE0EE82EFED7222EA5
:1015A200FCD7232EFAD700D0AB988C0E176E000E04
:1015B200186E100E196E010E1A6E000E1B6E39ECAB
:1015C20008F06BEC0DF012005BD041C001F0010E8F
:1015D2000116013A82500118EF0B0118826EB30E08
:1015E2004164120065EC0DF0000E416E010E000127
:1015F200FA6F1200070E4164120065EC0DF0000E46
:10160200416E000E3F6E000E3E6E010E3C6E1200E9
:10161200270E4164120065EC0DF0000E416E000EC3
:101622003F6E000E3E6E010E3C6E1200270E4164AC
:10163200120065EC0DF0000E416E000E3F6E000EC2
:101642003E6E010E3C6E1200270E4164120065ECE4
:101652000DF0000E416E000E3F6E000E3E6E010E4A
:101662003C6E1200270E4164120065EC0DF0000E74
:10167200416E000E3F6E000E3E6E010E3C6E120079
:101682000001FB51010AD8B4A0D7030AD8B4B2D7DB
:10169200010AD8B4BDD7070AD8B4C8D7010AD8B44A
:1016A200D3D7030AD8A41200DDD741542B434744B1
:1016B200434F4E543D332C22495056345636222C39
:1016C2002277796C65736C74652E6777372E767A1C
:1016D20077656E7470220D0A0041542353434647C6
:1016E2004558543D312C312C302C302C302C300DBF
:1016F2000A004154234750494F3D372C302C320DBC
:101702000A0041542B4950523D3131353230300DAF
:101712000A0041542353474143543D332C310D0AAF
:101722000041542B43455245473F0D0A0041542383
:10173200534C45443D340D0A0041542B434D45451D
:101742003D320D0A00415423475052533F0D0A00C7
:0B17520041542B435245473F0D0A0055
:10175E00AC0EF66E160EF76E000EF86E01EE00F081
:10176E0010EEB1F00900F5CFEEFFE550E150FAE1D1
:10177E009D0EF66E1A0EF76E000EF86E00EEE4F089
:10178E0010EE15F00900F5CFEEFFE550E150FAE14D
:10179E00880EF66E1A0EF76E000EF86E00EE25F03D
:1017AE0010EE15F00900F5CFEEFFE550E150FAE12D
:1017BE0002EE00F0A00EEE6AE806FDE101EEB1F0D9
:1017CE003C0EEE6AE806FDE10001FB6BFA6BF96B6D
:1017DE0000EE3AF00A0EEE6AE806FDE144904492FD
:1017EE00000EF86E000119EF0DF021EE00F010EE74
:1017FE0060F02E0EDBCFE3FFE806FCE221EE2FF0C9
:10180E0010EE8FF0180EDBCFE3FFE806FCE221EEC0
:10181E0068F010EEA8F00E0EDBCFE3FFE806FCE258
:10182E0007EC0DF0600E176E000E186E2F0E196E6F
:10183E00010E1A6E000E1B6E39EC08F08F0E176E2D
:10184E00000E186E190E196E010E1A6E000E1B6E1A
:10185E0039EC08F0A80E176E000E186E0F0E196EEA
:10186E00010E1A6E000E1B6E39EC08F00001F96FB6
:10187E006BEC0DF0010E0001F96F12002CD000017F
:10188E00FA51D8B41200020EFB6F12005EEC09F092
:10189E000009D8A41200F0EC0CF0010E0001FB6F51
:1018AE001200FCEC0BF0050E0001FB6F1200F9515B
:1018BE00D8B41200050EFB6F120063EC0AF087EC31
:1018CE000CF00009D8B4FBD7000E0001F96F000E22
:1018DE00FB6F809612000001FB51000AD8B4120073
:1018EE00010AD8B4CCD7030AD8B4D0D7010AD8B4D9
:1018FE00D8D7070AD8B4DBD7010AD8A41200DDD78F
:10190E00590EF66E100EF76E20EE6FF0090E0900EE
:10191E00F5CFDEFFE806FBE23D0EF66E100EF76E1B
:10192E0020EE60F00E0E0900F5CFDEFFE806FBE2BA
:10193E0007EC0DF06F0E176E000E186E0A0E196E74
:10194E00010E1A6E000E1B6E39EC08F0600E176E4B
:10195E00000E186E0F0E196E010E1A6E000E1B6E13
:10196E0039EC08F06BEC0DF0010E1200D39ED35043
:10197E008F0B6009D36ED386010E0F01386F9280E4
:10198E0092968096000E3A6F81869396828C949CE6
:10199E008B8E948E000E396F938094828182938207
:1019AE00818493848288949881889388818A938A8B
:1019BE008A8C939C818E938E80929292870ED56E96
:1019CE00FC0ED76EF30ED66EF294000E0001FB6F76
:1019DE0012000001FB51D8B40CD08096330E176E56
:1019EE00BB0E166EE00EE82EFED7162EFCD7172E67
:1019FE00FAD7808674EC0DF0010E0001FB6F120019
:101A0E00B886B88CB898B892B890AC84AC98000EE2
:101A1E00B06E100EAF6EAB8E948E949CAB88AC8A6B
:101A2E009E9A1200BDEC0CF081A80AD0820E246E94
:101A3E00DE0EE82EFED7242EFCD781B8F0EC0CF08B
:101A4E0045EC0CF0F1D7F29E350E0F014E6F7D82F4
:101A5E00F28C7E920B0E506F450E4F6FF28E12006F
:101A6E00F29E350E0F014E6F7D82F28C7E920B0E22
:101A7E00506F450E4F6FF28E120041542B4350495A
:101A8E004E3F0D0A0041542343474D520D0A00416B
:101A9E00542B4353510D0A00415445310D0A004158
:101AAE00540D0A00166EACA2FED716C0ADFF120082
:101ABE00000E416E0F014E917D921200000E416E8E
:101ACE000F014E917D921200AB9E949C829C9D9A2A
:101ADE001200F29E9D9AF28E12002AEC0DF0120068
:020000040020DA
:08000000FFFFFFFFFFFFFFFF00
:020000040030CA
:0E000000FF281F3CFF3D81FF00000FE00F4076
:00000001FF
