:040000006BEF00F0B2
:100008001882FACF01F0FBCF02F0E9CF03F0EACF74
:1000180004F0E1CF05F0E2CF06F0D9CF07F0DACF50
:1000280008F0F3CF09F0F4CF0AF0F6CF0BF0F7CFD2
:100038000CF0F8CF0DF0F5CF0EF018C00FF019C086
:1000480010F01AC011F01BC012F0F050F2A419D031
:10005800F294142A132A11D0000E136E1650D8B435
:1000680002D0000E01D0010E166E16B002D0829892
:1000780001D0828878EC08F004D01350010AD8B473
:10008800EBD712C01BF011C01AF010C019F00FC046
:1000980018F00EC0F5FF0DC0F8FF0CC0F7FF0BC03D
:1000A800F6FF0AC0F4FF09C0F3FF08C0DAFF07C073
:1000B800D9FF06C0E2FF05C0E1FF04C0EAFF03C0A4
:1000C800E9FF02C0FBFF01C0FAFF189211004AEFD6
:0200D80008F02E
:1010000000415423534346473D312C332C33303079
:101010002C39302C3630302C35300D0A0041542B11
:10102000434744434F4E543D332C224950222C22F7
:101030000041542353474143543D332C310D0A00A2
:0110400000AF
:10104200D39ED3508F0B6009D36ED386010E0F014E
:10105200386F928092968096000E3A6F81869396B0
:10106200828C949C8B8E948E000E396F9380948226
:101072008A8293828A849384828894988A889388C5
:101082008A8A938A8A8C939C818E938E8092929282
:101092001200FA0EF66E100EF76E000EF86E0900D0
:1010A200F5CF16F00900F5CF17F0156A146A136A26
:1010B20018901892000EF86E00016AEF08F0870E81
:1010C200D56EF30ED66EFC0ED76EF294F28AF28EC5
:1010D200120021EC08F060EC08F073EC08F0D190FB
:1010E2000400FFD7F30ED66EFC0ED76E1200F30E7D
:0A10F200D66EFC0ED76E120001014D
:020000040020DA
:08000000FFFFFFFFFFFFFFFF00
:020000040030CA
:0E000000FF291F22FF3D81FF00000FE00F408F
:00000001FF
