:0400000063EF77F043
:10ED3C00140E18EC78F01200C2EC79F0010E1200EF
:10ED4C00016EACA2FED701C0ADFF1200710EB16E08
:10ED5C00300EB36E000EB26E1200F00E016E570E36
:10ED6C00026E000E1AEC77F012008096030E026E03
:10ED7C00E80E016E05EC77F0808663EC78F01200FB
:10ED8C00F00E016E000ED2EC76F0570AD8B402D019
:10ED9C00010E1200000E1200026EF29E02C0AAFFBB
:10EDAC0001C0A9FFA69CA69EA680A8CF03F0F28E58
:04EDBC0003501200EE
:10EDC10041542B4950523D3131353230300D0A001A
:10EDD10041540D0A000A00013830353634303531DE
:10EDE100323700B886B88CB898B892B890AC84AC79
:10EDF10098000EB06E100EAF6EAB8E948E949CABDD
:10EE010088AC8A80869E9A12000BD0640E046E0430
:10EE1100D0200E036E032EFED704060428D8A4F8D2
:10EE2100D70106D8A002060128F0E10228D8B412C1
:10EE310000ECD7036EF29E03C0AAFF01C0A9FF0236
:10EE4100C0A8FFA69CA69EA684F29E550EA76EAAF8
:10EE51000EA76EA682F28EA694A6B2FED7A198F254
:10EE61008E1200C1EC77F002D0BBEC76F0A1EC770A
:10EE7100F00009D8B4F9D7A00E326EFF0E336E2A16
:10EE81000E346EEF0E356E000E366E3DEC79F08A63
:10EE910096FED7C6EC76F00009D8B40BD0C6EC7C50
:10EEA100F0FCEC7AF00009D8A402D0000E1200B3F5
:10EEB100EC76F0B9EC78F00009D8B402D0010E126A
:10EEC10000000E1200C10EF66EED0EF76E000EF888
:10EED1006E00EED7F010EE23F00900F5CFEEFFE55E
:10EEE10050E150FAE101EE00F01E0EEE6AE806FD77
:10EEF100E10001FA6B5F6A000EF86E000132EF77F4
:10EF0100F0010E086E000E096E15D003C0D9FF0482
:10EF1100C0DAFF01C0E1FF02C0E2FFDE50E618D80F
:10EF2100A402D0010E01D0000E0816014A022A03E4
:10EF31004A042A092A0550095CD8A0E7D7085012CB
:10EF410000F2EC76F063EC78F00009D8A402D0006E
:10EF51000E12004AEC77F00009D8A402D0000E127C
:10EF610000C3EC7BF00009D8A402D0000E1200A26D
:10EF7100EC76F00009D8A402D0000E1200010E12A6
:10EF810000D39ED3508F0B6009D36ED386010E0F31
:10EF910001386F928092968096000E3A6F8A86931E
:10EFA10096828C949C8B8E948E000E396F938094F4
:10EFB10082818293828184938482889498818893C8
:10EFC10088818A938A8A8C939C818E938E80929277
:10EFD100921200000E316EAB9818D02CC0F6FF2DA6
:10EFE100C0F7FF000EF86E0F0EF76403D00800F5AE
:10EFF1005005D0F6CFE1FFF7CFE2FFE750306E309A
:10F0010050A6EC76F02C4A2D2A312A2E50315CD8AC
:10F01100A0E4D72F50D8B409D09EEC76F04B0AD893
:10F02100A402D0010E1200000E1200010E120029DE
:10F031006E000E2B6E9D9AAB883CD0ACEC76F03610
:10F04100D09EAA34D0AECF2AF02B50010D010EF381
:10F0510024D96E000EF420DA6E2AC0DFFF2B2A13AA
:10F061000E2B6402D0130E2B6E0A0E2A18D8A41E82
:10F07100D04F0E0118D8A408D04B0E0218D8A40402
:10F08100D09D8AAB984B0E1200450E0118D8A40CE6
:10F09100D0520E0218D8A408D0520E0318D8A404D6
:10F0A100D09D8AAB98450E1200000E2B6EA1A2C80E
:10F0B100D7A19229062928D8A4C0D7B1909D8AAB9F
:10F0C100984E0E1200808620EEE7F010EE42F0041A
:10F0D1000EDBCFE3FFE806FCE220EED7F010EE32C4
:10F0E100F00F0EDBCFE3FFE806FCE20F0E4A6E00E5
:10F0F1000E4B6E310E4B6401D013D0000E026EC860
:10F101000E016E05EC77F04B2AF4D7420E2C6E00FF
:10F111000E2D6E050E2E6E010E2F6EEAEC77F04865
:10F121006E4A064A28D8B403D04850D8B4EED70F57
:10F131000E4A6E0BD0320E2C6E000E2D6E100E2E5E
:10F141006E010E2F6EEAEC77F0496E4A064A28D816
:10F15100B403D04950D8B4EED7000E476E4850D80A
:10F16100B405D04950D8B402D0010E476E475012B1
:10F1710000F80EF66EFE0EF76E20EE8DF00A0E0907
:10F1810000F5CFDEFFE806FBE2A60EF66EFE0EF7F7
:10F191006E20EE80F00C0E0900F5CFDEFFE806FBD5
:10F1A100E20F0E0001986F000E996F5FD08D0E2C4B
:10F1B1006E000E2D6E0B0E2E6E000E2F6EEAEC778A
:10F1C100F00009D8A402D0000E12009D9AAB88ACC1
:10F1D100EC76F043D09EAA41D0AECF9AF000019CCC
:10F1E10051010D600EF324D96E000EF420DA6E9AEF
:10F1F100C0DFFF9C2B1F0E9C6502D01F0E9C6F5918
:10F201000E9A19D8A42AD09CC032F0F40E322632BC
:10F2110050010D600EF324016E000EF420026E8089
:10F221000E036E000E046E0D0E056E81EC77F0007C
:10F2310001996F9951D8B40FD0000E9B6F040E9BAA
:10F241006501D004D0AECF9AF09B2BF8D7010EAE5A
:10F251006EB190010E1200000E9C6FA1A2BBD700EF
:10F261000E026E140E016E05EC77F00001980798FE
:10F2710029D8A49CD7000E1200CC0E2C6EFF0E2DA7
:10F281006E0B0E2E6E010E2F6EEAEC77F0000E0261
:10F291006E020E016E05EC77F0EE0E2C6EFF0E2D58
:10F2A1006E080E2E6E000E2F6EEAEC77F0350E2CE6
:10F2B1006E000E2D6E0A0E2E6E000E2F6EEAEC778A
:10F2C100F0C90E2C6EFF0E2D6E020E2E6E000E2F4B
:10F2D1006EEAEC77F0000E00018B6F0F0E896F1A4A
:10F2E1000E8A6F000E8C6F9D9AAB8828D0ACEC769D
:10F2F100F01ED09EAA1CD0AECF88F08B51010D60BC
:10F301000EF324D96E000EF420DA6E88C0DFFF8B75
:10F311002B130E8B6502D0130E8B6F3E0E6019D826
:10F32100A404D09D8AAB98010E8C6F000E8B6FA147
:10F33100B204D000018C51D8B4DCD7A1920001896C
:10F34100078929D8B403D08C51D8B4D0D7B1909DB6
:10F351008AAB988C51D8B41200320E2C6E000E2D4F
:10F361006E34C02EF0000E2F6EEAEC77F08A0E2C70
:10F371006E000E2D6E010E2E6E010E2F6EEAEC77D1
:10F38100F01200B30EF66EFE0EF76E20EEB4F00B27
:10F391000E0900F5CFDEFFE806FBE2170EF66EFF61
:10F3A1000EF76E20EECBF0080E0900F5CFDEFFE878
:10F3B10006FBE2E20EF66EFE0EF76E20EEC0F00ADC
:10F3C1000E0900F5CFDEFFE806FBE20F0E0001D4C7
:10F3D1006F000ED56F68D0B40E326E000E336E0C16
:10F3E1000E346E8C0E356E000E366E5BEC7AF000CC
:10F3F10009D8B453D00001D62BD605396E39500146
:10F401000D8C0EF324D96E000EF420DA6E3A0EDE66
:10F4110018D8A4F0D7D6C039F0F90E3926395001E1
:10F421000D8C0EF324016E000EF420026ECB0E0340
:10F431006E000E046E070E056E81EC77F00009D8A0
:10F44100B429D0D6C039F0010E39263950010D8CBE
:10F451000EF324D96E000EF420DA6E310EDE18D8C8
:10F46100A402D0010E01D0000E0001D56FD551D8F4
:10F47100A40FD0C00E2C6E000E2D6E0B0E2E6E0141
:10F481000E2F6EEAEC77F00009D8A404D0000E121A
:10F4910000010E1200000E0001D66F000E026E6414
:10F4A1000E016E05EC77F00001D407D429D8A4939E
:10F4B100D7D5511200320E2C6E000E2D6E34C02E97
:10F4C100F0000E2F6EEAEC77F0000E00018B6F0F4B
:10F4D1000E896F9D9AAB8885D0ACEC76F07FD09E7B
:10F4E100AA7DD0AECF88F000018B51010D600EF3E3
:10F4F10024D96E000EF420DA6E88C0DFFF8B2B2733
:10F501000E8B6502D0270E8B6F8BC037F0FF0E3745
:10F51100263750010D600EF324D96E000EF420DA67
:10F521006E4F0EDE18D8A42AD08B51010D600EF358
:10F5310024D96E000EF420DA6E4B0EDE18D8A41E0C
:10F54100D09D8AAB98000E8A6F13D08A51010D604D
:10F551000EF324D96E000EF420DA6E8A51010DF3F8
:10F56100503524E16EF4503620E26EDFCFE7FF8A9A
:10F571002B8A518B5DD8B0E9D7010E12008BC037B1
:10F58100F0FE0E37263750010D600EF324D96E00C0
:10F591000EF420DA6E450EDE18D8A420D08BC037C9
:10F5A100F0FF0E37263750010D600EF324D96E009F
:10F5B1000EF420DA6E520EDE18D8A410D08B510151
:10F5C1000D600EF324D96E000EF420DA6E520EDEB9
:10F5D10018D8A404D09D8AAB98000E1200A1A27F76
:10F5E100D7A192000189078929D8A476D7B1909D26
:10F5F1008AAB98000E1200000E5A6E000E5B6E0070
:10F601000E5C6E000E5D6E000E596E140E5E6E0085
:10F611000E586E960EF66EFE0EF76E20EE32F00F5D
:10F621000E0900F5CFDEFFE806FBE20D0EF66EFFD8
:10F631000EF76E20EE4EF0090E0900F5CFDEFFE861
:10F6410006FBE2CB0EF66EFE0EF76E20EE42F00BDD
:10F651000E0900F5CFDEFFE806FBE20BD0F70E2C1A
:10F661006EFF0E2D6E060E2E6E010E2F6EEAEC77DA
:10F67100F05A6E5E065E28D8B403D05A50D8B4EE64
:10F68100D7140E5E6E000E026E010E016E05EC7750
:10F69100F00BD0D80E2C6EFF0E2D6E0B0E2E6E01C0
:10F6A1000E2F6EEAEC77F05B6E5E065E28D8B4032F
:10F6B100D05B50D8B4EED7140E5E6E000E026E030E
:10F6C1000E016E05EC77F00BD0320E2C6E000E2D74
:10F6D1006E100E2E6E010E2F6EEAEC77F05C6E5EF0
:10F6E100065E28D8B403D05C50D8B4EED7140E5EB1
:10F6F1006E000E026E030E016E05EC77F00BD04228
:10F701000E2C6E000E2D6E0C0E2E6E010E2F6EEA5B
:10F71100EC77F05D6E5E065E28D8B403D05D50D8FC
:10F72100B4EED7140E5E6E000E026E030E016E056E
:10F73100EC77F00BD04E0E2C6E000E2D6E0A0E2EB5
:10F741006E010E2F6EEAEC77F0596E5E065E28D8D8
:10F75100B403D05950D8B4EED7000E026E030E0197
:10F761006E05EC77F05A50D8B40BD05B50D8B40882
:10F77100D05C50D8B405D05D50D8B402D0010E127F
:10F7810000000E1200ED0EF66EFE0EF76E20EE6C0E
:10F79100F00A0E0900F5CFDEFFE806FBE2290EF6BE
:10F7A1006EFF0EF76E20EEA0F0070E0900F5CFDE1A
:10F7B100FFE806FBE2BF0EF66EFE0EF76E20EE606E
:10F7C100F00B0E0900F5CFDEFFE806FBE2200EF696
:10F7D1006EFF0EF76E20EE77F0080E0900F5CFDE12
:10F7E100FFE806FBE2000E0001AC6F010EAA6F00FC
:10F7F1000EAB6F030EAB6501D0C6D0ABB10FD06CB1
:10F801000E2C6E000E2D6E0B0E2E6E000E2F6EEA5C
:10F81100EC77F00009D8A413D0000E1200ABA10FB1
:10F82100D0600E2C6E000E2D6E0C0E2E6E000E2F63
:10F831006EEAEC77F00009D8A402D0000E12009D08
:10F841009AAB8892D0ACEC76F09EAA8ED0AECFA9BE
:10F85100F00001AC51010D800EF324D96E000EF4BD
:10F8610020DA6EA9C0DFFFAC2B1F0EAC6502D01FE2
:10F871000EAC6F4B0EA919D8A477D0AB51D8A415F3
:10F88100D0ACC032F0F00E32263250010D800EF3B2
:10F8910024016E000EF420026EA00E036E000E0411
:10F8A1006E080E056E81EC77F017D0AB05D8A41663
:10F8B100D0ACC032F0EF0E32263250010D800EF383
:10F8C10024016E000EF420026E770E036E000E040A
:10F8D1006E090E056E81EC77F00001AA17AB51D8C5
:10F8E100A41AD0ACC032F0F70E32263250010D808E
:10F8F1000EF324D96E000EF420DA6E300EDE18D825
:10F90100A40AD0E40E2C6EFF0E2D6E0B0E2E6E018E
:10F911000E2F6EEAEC77F0010E0001A86FACC03239
:10F92100F0F90E32263250010D800EF324D96E000B
:10F931000EF420DA6E310EDE18D8B412D0ACC0321B
:10F94100F0F90E32263250010D800EF324D96E00EB
:10F951000EF420DA6E350EDE18D8B402D0000EA8EF
:10F961006FA851AA17000EAC6FA1B204D00001AA72
:10F9710051D8B468D7000E026EC80E016E05EC773F
:10F98100F00001AB2B36D7AA511200F2CFFAF0F2F8
:10F991009EF29EF29C000E016E000ED2EC76F004F7
:10F9A1006E3D0EF66EFF0EF76E0800F5500418D886
:10F9B100A41ED0010E016E000ED2EC76F0046E3E54
:10F9C1000EF66EFF0EF76E0800F5500418D8A40F5E
:10F9D100D0020E016E000ED2EC76F0046E3F0EF6F0
:10F9E1006EFF0EF76E0800F5500418D8B41200002F
:10F9F1000E086E100E066E000E096E13D00950012E
:10FA01000D550EF324F66EFF0EF420F76E0800F587
:10FA1100CF07F006500924016E07C002F008501A02
:10FA2100EC77F0092A0904046E200E046004D02347
:10FA31000E0718D8A4E3D7000E086E300E066E002C
:10FA41000E076E000E096E14D00950010D530EF30E
:10FA510024F66EFF0EF420F76E0800F5CF07F006CE
:10FA6100500924016E07C002F008501AEC77F00922
:10FA71002A230E0718D8A4E8D7000E086E500E06E8
:10FA81006E000E076E000E096E14D00950010D5163
:10FA91000EF324F66EFF0EF420F76E0800F5CF0783
:10FAA100F006500924016E07C002F008501AEC77E5
:10FAB100F0092A230E0718D8A4E8D7000E086E70A3
:10FAC1000E066E000E076E000E096E14D00950016D
:10FAD1000D4F0EF324F66EFF0EF420F76E0800F5BD
:10FAE100CF07F006500924016E07C002F008501A32
:10FAF100EC77F0092A230E0718D8A4E8D7000E08DE
:10FB01006E900E066E000E076E000E096E14D0097F
:10FB110050010D4D0EF324F66EFF0EF420F76E0822
:10FB210000F5CF07F006500924016E07C002F00866
:10FB3100501AEC77F0092A230E0718D8A4E8D70049
:10FB41000E086EB00E066E06C001F04B0EF66EFF8B
:10FB51000EF76E0900F5CF04F00900F5CF05F005A9
:10FB6100C004F0056A0450026E08501AEC77F006E2
:10FB710028016E4B0EF66EFF0EF76E0800F5CF02F0
:10FB8100F008501AEC77F0000E086EB20E066E0601
:10FB9100C001F0490EF66EFF0EF76E0900F5CF04B5
:10FBA100F00900F5CF05F005C004F0056A04500224
:10FBB1006E08501AEC77F00628016E490EF66EFFBA
:10FBC1000EF76E0800F5CF02F008501AEC77F0003E
:10FBD1000E086EB40E066E06C001F0470EF66EFFFB
:10FBE1000EF76E0900F5CF04F00900F5CF05F00519
:10FBF100C004F0056A0450026E08501AEC77F00652
:10FC010028016E470EF66EFF0EF76E0800F5CF0263
:10FC1100F008501AEC77F0000E086EB60E066E066C
:10FC2100C001F0450EF66EFF0EF76E0900F5CF0428
:10FC3100F00900F5CF05F005C004F0056A04500293
:10FC41006E08501AEC77F00628016E450EF66EFF2D
:10FC51000EF76E0800F5CF02F008501AEC77F000AD
:10FC61000E086EC00E066E000E076E000E096E14B1
:10FC7100D00950010D370EF324F66EFF0EF420F774
:10FC81006E0800F5CF07F006500924016E07C00287
:10FC9100F008501AEC77F0092A230E0718D8A4E8C7
:10FCA100D7C70E016E600EF66EFF0EF76E0800F5F7
:10FCB100CF02F0000E1AEC77F0C80E016E5F0EF65F
:10FCC1006EFF0EF76E0800F5CF02F0000E1AEC770A
:10FCD100F0C90E016E5E0EF66EFF0EF76E0800F5AE
:10FCE100CF02F0000E1AEC77F0B80E016E580EF646
:10FCF1006EFF0EF76E0800F5CF02F0000E1AEC77DA
:10FD0100F0000E086ECA0E066E000E076E000E0998
:10FD11006E14D00950010D310EF324F66EFF0EF46E
:10FD210020F76E0800F5CF07F006500924016E0791
:10FD3100C002F008501AEC77F0092A230E0718D8F0
:10FD4100A4E8D7000E086ED00E066E000E076E00F6
:10FD51000E096E14D00950010D420EF324F66EFF08
:10FD61000EF420F76E0800F5CF07F00650092401C4
:10FD71006E07C002F008501AEC77F0092A230E072B
:10FD810018D8A4E8D7B90E016E5D0EF66EFF0EF716
:10FD91006E0800F5CF02F0000E1AEC77F0BA0E01F2
:10FDA1006E5C0EF66EFF0EF76E0800F5CF02F000E6
:10FDB1000E1AEC77F0BB0E016E5B0EF66EFF0EF7BE
:10FDC1006E0800F5CF02F0000E1AEC77F0BC0E01C0
:10FDD1006E5A0EF66EFF0EF76E0800F5CF02F000B8
:10FDE1000E1AEC77F0BD0E016E590EF66EFF0EF78E
:10FDF1006E0800F5CF02F0000E1AEC77F0E00E016C
:10FE01006E570EF66EFF0EF76E0800F5CF02F0008A
:10FE11000E1AEC77F00F0E016E000E026E000E1A34
:10FE2100EC77F0000E016E3D0EF66EFF0EF76E08D8
:10FE310000F5CF02F0000E1AEC77F0010E016E3ED4
:10FE41000EF66EFF0EF76E0800F5CF02F0000E1AE7
:10FE5100EC77F0020E016E3F0EF66EFF0EF76E08A4
:10FE610000F5CF02F0000E1AEC77F0F00E016E579C
:10FE71000E026E08501AEC77F01200004154235321
:10FE81004346474558543D312C312C302C302C30D1
:10FE91002C300D0A004154234750494F3D372C3037
:10FEA1002C320D0A002B4350494E3A205245414411
:10FEB100590041542B43474154543F0D0A004154CA
:10FEC1002B43455245473F0D0A00415423534C45AE
:10FED100443D340D0A0041542353443D312C302C10
:10FEE1000041542B43474154543D310041542B436D
:10FEF1005245473F0D0A0041542B4350494E3F0D97
:10FF01000A00222C302C302C310D0A00415423439D
:10FF1100474D520D0A002B43474154543A20002BC0
:10FF210043455245473A20002B435245473A20006A
:10FF31003030303023003131313123003230303034
:10FF410000312300E407E407E407E407230023006A
:10FF5100230023002300010A0A020014012D0F01CE
:10FF6100415423534346473D312C332C3330302CFD
:10FF710039302C3630302C35300D0A0041542B43AA
:10FF81004744434F4E543D332C224950222C2200EA
:10FF910041542353474143543D332C310D0A0054FE
:10FFA100657374696E6720736D6F6B652068756228
:10FFB100202D204A656E277320636F64652C204BCA
:10FFC1006F72652053494D2E0D0A0041542B434D4C
:10FFD10047463D310D0A0041542B434D45453D32C5
:10FFE1000D0A0041542B435245473D310041542BEA
:0EFFF100434D47533D00415445310D0A000079
:020000040020DA
:08000000FFFFFFFFFFFFFFFF00
:020000040030CA
:0E000000FF291F3CFF3D81FF00000FE00F4075
:00000001FF
