:04000000D6EF00F047
:100008003782FACF01F0FBCF02F0E9CF03F0EACF55
:1000180004F0E1CF05F0E2CF06F0D9CF07F0DACF50
:1000280008F0F3CF09F0F4CF0AF0F6CF0BF0F7CFD2
:100038000CF0F8CF0DF0F5CF0EF037C00FF038C048
:1000480010F039C011F03AC012F0F2A407D0F294BF
:1000580064EC0AF0262A252ABFEC08F0A1A262D097
:10006800242AA192070E24644ED02950D8B403D074
:100078002750D8A403D02950D8A445D0000E246E08
:100088002950D8B409D02704D8A406D0000E296E68
:1000980051EC0AF0010E19D02950D8B40AD0020E3A
:1000A8002718D8A406D0000E296E51EC0AF0020ECB
:1000B8000CD02950D8B40BD0030E2718D8A407D0D9
:1000C800000E296E51EC0AF0030E226E19D0295049
:1000D800D8B409D0040E2718D8A405D0000E296E6C
:1000E80051EC0AF00DD0050E2718D8A409D02950D4
:1000F800D8A402D0010E01D0000E296E000E246E85
:10010800000E276E0FD0270E24640CD02950D8B4C7
:1001180009D02750D8A406D0000E296E000E246EF0
:1001280051EC0AF0F2B026EC0AF0A4AA15D0A49A71
:100138002350010D2A0EF324D96E000EF420DA6E36
:1001480074CFDFFF232A050E236406D0010E286E24
:10015800000E236E5EEC0AF012C03AF011C039F0BE
:1001680010C038F00FC037F00EC0F5FF0DC0F8FF13
:100178000CC0F7FF0BC0F6FF0AC0F4FF09C0F3FF7D
:1001880008C0DAFF07C0D9FF06C0E2FF05C0E1FFDB
:1001980004C0EAFF03C0E9FF02C0FBFF01C0FAFF89
:0801A80037921100B3EF09F0DA
:10100000004154234750494F3D372C302C320D0AB4
:101010000041542B4950523D3131353230300D0AA8
:10102000002B4350494E3A20524541445900415407
:1010300023534C45443D340D0A0041542B43504941
:101040004E3F0D0A0041542343474D520D0A0030D4
:10105000303030230031313131230041540D0A004A
:10106000312300E407E407E407E407230023002317
:101070000023002300010A0A020014012D0F0100C1
:1010800072D0000E356E81A814D01D50D8A411D096
:101090004E0E196EEB0EE82EFED7192EFCD700F07F
:1010A00081A805D0272A49EC0AF0000E246E010E13
:1010B0000BD04E0E196EEB0EE82EFED7192EFCD774
:1010C00000F081B802D0000E1D6E2950D8B406D0B1
:1010D0002750D8A403D08A968B9802D08A868B8812
:1010E0002850D8B408D02A0E146E000E156E060EC5
:1010F000166ED6EC09F0000E256E000E266E12005C
:101100002850D8B427D02A0E136E000E146E030E8A
:10111000156E25EC09F00009D8A408D02A0E136E2C
:10112000000E146E030E156E8FEC09F0000E286E83
:10113000000E1A6E050E1A6401D00CD01A50010D63
:101140002A0EF324D96E000EF420DA6E000EDF6E44
:101150001A2AF0D7B00E1B5C040E1C58D8A0D0D7AA
:10116000000E226E12002250000AD8B48AD7010A5B
:10117000D8B41200030AD8B4EDD7010A120057D030
:101180003550D8B4120007D08A960FD08A860DD079
:10119000000E266E0AD02650010AD8B4F5D7040AEC
:1011A000D8B4F4D7110AD8B4F3D78B88000E256EC3
:1011B00012008B980BD08B88000E256E07D025501F
:1011C000010AD8B4F6D7030AD8B4F5D78A86000E38
:1011D000266E12001B4A1C2A07D08B980FD08B88D2
:1011E0000DD0000E256E0AD02550010AD8B4F5D7CF
:1011F000040AD8B4F4D7110AD8B4F3D78A96000EEB
:10120000266E12008A960FD08A860DD0000E266EAA
:101210000AD02650010AD8B4F5D7040AD8B4F4D7B6
:10122000110AD8B4F3D78B98000E256E1200225005
:10123000000AD8B4A5D7010AD8B4C1D7030AD8B4D4
:10124000C9D7010AD8A41200E4D713C0D9FF14C02B
:10125000DAFFDF50176E000E186E35D01850030DF0
:10126000600EF324D96E000EF420DA6E1750DE18EB
:10127000D8A428D0172A1850030D010EF326000E0B
:10128000F422600EF324D96E000EF420DA6E1750AB
:10129000DE18D8A416D0172A1850030D020EF32614
:1012A000000EF422600EF324D96E000EF420DA6EE4
:1012B0001750DE18D8A402D0010E1200020E175EDD
:1012C00001D01706182A1E50185CD8A0C7D7000EE8
:1012D0001200D39ED3508F0B6009D36ED386010EBC
:1012E0000F01386F928092968996000E3A6F8A8627
:1012F0009396828C949C8B8E948E000E396F938083
:101300009482938293848B8894989388938A818C17
:10131000939C938E80929292EDEC09F012000F0E46
:101320001E6401D01200000E186E17D01E50030D5F
:10133000600E166E000E176EF3501626F45017222C
:101340001850010DF3501624D96EF4501720DA6EA0
:1013500013C0DFFF134A142A182A1550185CD8A0AE
:10136000E5D71E2A1200D20EF66E140EF76E000E8E
:10137000F86E00EE30F010EE07F00900F5CFEEFF4A
:10138000E550E150FAE100EE60F0940EEE6AE806F6
:10139000FDE100EE1BF0150EEE6AE806FDE1379068
:1013A0003792000EF86E000140EF0AF0000E186E42
:1013B00071980CD014C0D9FF15C0DAFFDF50176E3A
:1013C000175058EC0AF0144A152A182A1650185CBF
:1013D000D8A0F0D76DEC0AF01200F29E628AF28675
:1013E000F29036EC0AF0300EB1123F0EB116B18415
:1013F000B180A082A192600EB36E000EB26EF29E1A
:10140000F28CF28E1200B886B88CB898B892B89068
:10141000AC84AC98000EB06E100EAF6EAB8E948E96
:10142000949CAB88AC8A89869E9A1200938A939C7E
:10143000938E729C719C7284900E716EC80E706E49
:10144000CF0E756E000E766E618A12007298718EE4
:101450007188728AF2CF21F0000EF26EF28CA3CF67
:1014600020F0000EA36EA38AF28E1200870ED56EB6
:10147000F20ED66EFC0ED76EF294F28AF28E120045
:1014800069EC09F003EC0AF016EC0AF040EC08F005
:10149000FDD7B180A082A1920B0EB36E450EB26E45
:1014A0001200000E276E000E246EB190A092120062
:1014B000136E72A2FED713C073FF1200A39A20C04E
:1014C000A3FF21C0F2FF1200F20ED66EFC0ED76E03
:0914D0001200323032300001013B
:0414DA00719E1200ED
:020000040020DA
:08000000FFFFFFFFFFFFFFFF00
:020000040030CA
:0E000000FF291F22FF3D81FF00000FE00F408F
:00000001FF
