:040000004FEF00F0CE
:100008001382FACF01F0FBCF02F0E9CF03F0EACF79
:1000180004F0E1CF05F0E2CF06F0D9CF07F0DACF50
:1000280008F0F3CF09F0F4CF0AF0F6CF0BF0F7CFD2
:100038000CF0F8CF0DF0F5CF0EF013C00FF014C090
:1000480010F015C011F016C012F012C016F011C051
:1000580015F010C014F00FC013F00EC0F5FF0DC05E
:10006800F8FF0CC0F7FF0BC0F6FF0AC0F4FF09C089
:10007800F3FF08C0DAFF07C0D9FF06C0E2FF05C0DA
:10008800E1FF04C0EAFF03C0E9FF02C0FBFF01C0B3
:10009800FAFF1392110051EF00F013901392000130
:0600A80056EF00F0FFD747
:020000040020DA
:08000000FFFFFFFFFFFFFFFF00
:020000040030CA
:0E000000FF681920FF3D81FF0FC00FE00F4089
:00000001FF
