:0400000065EF00F0B8
:100008002082FACF01F0FBCF02F0E9CF03F0EACF6C
:1000180004F0E1CF05F0E2CF06F0D9CF07F0DACF50
:1000280008F0F3CF09F0F4CF0AF0F6CF0BF0F7CFD2
:100038000CF0F8CF0DF0F5CF0EF020C00FF021C076
:1000480010F022C011F023C012F0F2A407D0F294ED
:10005800FDEC00F01F2A1E2AB0EC00F0A1A20BD084
:10006800A1921950D8B407D0154A162A15B002D053
:100078008B9801D08B8812C023F011C022F010C0D9
:1000880021F00FC020F00EC0F5FF0DC0F8FF0CC026
:10009800F7FF0BC0F6FF0AC0F4FF09C0F3FF08C062
:1000A800DAFF07C0D9FF06C0E2FF05C0E1FF04C0C0
:1000B800EAFF03C0E9FF02C0FBFF01C0FAFF20927C
:1000C8001100CAEF00F0D39ED3508F0B6009D36E96
:1000D800D386010E0F01386F928092968996000E92
:1000E8003A6F8A869396828C949C8B8E948E000E9F
:1000F800396F938094828A8293828A8493848B88CE
:10010800949881889388818A938A818C939C818E24
:10011800938E89929292F0EC00F0000E186E120005
:100128001B50D8B40FD0F7EC00F08996030E146E6C
:10013800080E136E770EE82EFED7132EFCD7142E5A
:10014800FAD700F08986000E166E000E156EE1ECE7
:1001580000F0010E196E120014D08A960FD08A860C
:100168000DD0000E1F6E0AD01F50010AD8B4F5D763
:10017800040AD8B4F4D7110AD8B4F3D7000E1E6E07
:1001880012001850000AD8A41200EED700EE15F09D
:100198000B0EEE6AE806FDE120902092000EF86E44
:1001A8000001E9EF00F0870ED56EF20ED66EFC0E58
:1001B800D76EF294F28AF28E1200B180A082A192D8
:1001C8000B0EB36E450EB26E120067EC00F094ECA5
:1001D80000F002EC01F0FDD7F29ED7EC00F0F29EA1
:1001E800F28CF28E1200949C949EAB9EAB98AC9AC3
:1001F8001200F20ED66EFC0ED76E12001850000ACE
:020208001200E2
:020000040020DA
:08000000FFFFFFFFFFFFFFFF00
:020000040030CA
:0E000000FF291F22FF3D81FF00000FE00F408F
:00000001FF
