:04000000C3EF00F05A
:100008004B82FACF03F0FBCF04F0E9CF05F0EACF3B
:1000180006F0E1CF07F0E2CF08F0D9CF09F0DACF48
:100028000AF0F3CF0BF0F4CF0CF0F6CF0DF0F7CFCA
:100038000EF0F8CF0FF0F5CF10F04BC011F04CC018
:1000480012F04DC013F04EC014F0F2A407D0F29491
:100058005BEC18F0412A402AF1EC13F0A1A264D01D
:100068003F2AA192070E3F6450D04550D8B403D020
:100078004250D8A403D04550D8A447D0000E3F6EB4
:100088004550D8B40AD04204D8A407D0000E456E13
:100098003BEC18F0010E316E35D04550D8B40DD078
:1000A800020E4218D8A409D0000E456E3BEC18F099
:1000B800020E316EC8EC17F025D04550D8B40DD0DB
:1000C800030E4218D8A409D0000E456E3BEC18F078
:1000D800030E316EC8EC17F015D04550D8B40BD0CC
:1000E800040E4218D8A407D0000E456E3BEC18F059
:1000F800C8EC17F007D0050E4218D8A403D0451E47
:10010800000E3F6E000E426E0FD0270E3F640CD0DB
:100118004550D8B409D04250D8A406D0000E456E38
:10012800000E3F6E3BEC18F07EA003D07E907FEC73
:1001380015F014C04EF013C04DF012C04CF011C0B1
:100148004BF010C0F5FF0FC0F8FF0EC0F7FF0DC051
:10015800F6FF0CC0F4FF0BC0F3FF0AC0DAFF09C0BA
:10016800D9FF08C0E2FF07C0E1FF06C0EAFF05C0EB
:10017800E9FF04C0FBFF03C0FAFF4B921100BEEF7A
:0201880014F071
:1010000000303030302300313131312300312300C2
:10101000E407E407E407E407230023002300230098
:0D1020002300010A0A020014012D0F010037
:10102E00F2CFE8F0F29EF29EF29C000E156E000ECC
:10103E00D9EC17F00001FA19D8A412D0010E156ED2
:10104E00000ED9EC17F00001FB19D8A409D0020E3E
:10105E00156E000ED9EC17F00001FC19D8B4120071
:10106E00000E1A6E100E1B6E000E1D6E13D01D504C
:10107E00010D200EF324F66E100EF420F76E08000C
:10108E00F5CF1CF01B501D24156E1CC016F01A5007
:10109E0078EC17F01D2A1D04186E200E186004D06F
:1010AE00230E1C18D8A4E3D7000E1A6E300E1B6E3A
:1010BE00000E1C6E000E1D6E14D01D50010D1E0E66
:1010CE00F324F66E100EF420F76E0800F5CF1CF028
:1010DE001B501D24156E1CC016F01A5078EC17F01C
:1010EE001D2A230E1C18D8A4E8D7000E1A6E500E17
:1010FE001B6E000E1C6E000E1D6E14D01D50010DC9
:10110E001C0EF324F66E100EF420F76E0800F5CFC9
:10111E001CF01B501D24156E1CC016F01A5078ECD6
:10112E0017F01D2A230E1C18D8A4E8D7000E1A6E2D
:10113E00700E1B6E000E1C6E000E1D6E14D01D5018
:10114E00010D1A0EF324F66E100EF420F76E080041
:10115E00F5CF1CF01B501D24156E1CC016F01A5036
:10116E0078EC17F01D2A230E1C18D8A4E8D7000E11
:10117E001A6E900E1B6E000E1C6E000E1D6E14D09D
:10118E001D50010D180EF324F66E100EF420F76E9E
:10119E000800F5CF1CF01B501D24156E1CC016F058
:1011AE001A5078EC17F01D2A230E1C18D8A4E8D775
:1011BE00000E1A6EB00E1B6E1BC015F0160EF66EDC
:1011CE00100EF76E0900F5CF18F00900F5CF19F0E3
:1011DE0019C018F0196A1850166E1A5078EC17F0DC
:1011EE001B28156E160EF66E100EF76E0800F5CF54
:1011FE0016F01A5078EC17F0000E1A6EB20E1B6E27
:10120E001BC015F0140EF66E100EF76E0900F5CF1A
:10121E0018F00900F5CF19F019C018F0196A185016
:10122E00166E1A5078EC17F01B28156E140EF66E0B
:10123E00100EF76E0800F5CF16F01A5078EC17F076
:10124E00000E1A6EB40E1B6E1BC015F0120EF66E4B
:10125E00100EF76E0900F5CF18F00900F5CF19F052
:10126E0019C018F0196A1850166E1A5078EC17F04B
:10127E001B28156E120EF66E100EF76E0800F5CFC7
:10128E0016F01A5078EC17F0000E1A6EB60E1B6E92
:10129E001BC015F0100EF66E100EF76E0900F5CF8E
:1012AE0018F00900F5CF19F019C018F0196A185086
:1012BE00166E1A5078EC17F01B28156E100EF66E7F
:1012CE00100EF76E0800F5CF16F01A5078EC17F0E6
:1012DE00000E1A6EC00E1B6E000E1C6E000E1D6EE2
:1012EE0014D01D50010D070EF324F66E100EF420CF
:1012FE00F76E0800F5CF1CF01B501D24156E1CC098
:10130E0016F01A5078EC17F01D2A230E1C18D8A4CC
:10131E00E8D7C70E156E2B0EF66E100EF76E080080
:10132E00F5CF16F0000E78EC17F0C80E156E2A0EDB
:10133E00F66E100EF76E0800F5CF16F0000E78EC74
:10134E0017F0C90E156E290EF66E100EF76E080008
:10135E00F5CF16F0000E78EC17F0B80E156E230EC2
:10136E00F66E100EF76E0800F5CF16F0000E78EC44
:10137E0017F0000E1A6ECA0E1B6E000E1C6E000EBB
:10138E001D6E14D01D50010D010EF324F66E100EBD
:10139E00F420F76E0800F5CF1CF01B501D24156EBF
:1013AE001CC016F01A5078EC17F01D2A230E1C18CC
:1013BE00D8A4E8D7000E1A6ED00E1B6E000E1C6E4F
:1013CE00000E1D6E14D01D50010D0D0EF324F66E81
:1013DE00100EF420F76E0800F5CF1CF01B501D24E4
:1013EE00156E1CC016F01A5078EC17F01D2A230E3D
:1013FE001C18D8A4E8D7B90E156E280EF66E100E6E
:10140E00F76E0800F5CF16F0000E78EC17F0BB0E55
:10141E00156E260EF66E100EF76E0800F5CF16F04E
:10142E00000E78EC17F0BC0E156E250EF66E100E33
:10143E00F76E0800F5CF16F0000E78EC17F0BD0E23
:10144E00156E240EF66E100EF76E0800F5CF16F020
:10145E00000E78EC17F0E00E156E220EF66E100EE2
:10146E00F76E0800F5CF16F0000E78EC17F00F0EA1
:10147E00156E000E166E000E78EC17F0000E156E3F
:10148E00FAC016F0000E78EC17F0010E156EFBC0C8
:10149E0016F0000E78EC17F0020E156EFCC016F06A
:1014AE00000E78EC17F0120021EEE9F010EEDFF0EE
:1014BE00040EDBCFE3FFE806FCE221EEDDF010EEDA
:1014CE00D8F0060EDBCFE3FFE806FCE221EE62F079
:1014DE0010EE8BF00B0EDBCFE3FFE806FCE221EE05
:1014EE0020F010EE6BF00F0EDBCFE3FFE806FCE210
:1014FE0021EE10F010EE7BF00F0EDBCFE3FFE806CF
:10150E00FCE221EE56F010EE97F00B0EDBCFE3FF70
:10151E00E806FCE221EE8FF010EEC5F0090EDBCFEF
:10152E00E3FFE806FCE221EE84F010EEAFF00A0EC7
:10153E00DBCFE3FFE806FCE221EE79F010EEBAF025
:10154E000A0EDBCFE3FFE806FCE221EE4AF010EED6
:10155E00A3F00B0EDBCFE3FFE806FCE221EE6EF00C
:10156E0010EE60F00A0EDBCFE3FFE806FCE221EEA0
:10157E00BDF010EECFF0080EDBCFE3FFE806FCE285
:10158E00A3EC17F00001F505D8B413D0DF0E166EDC
:10159E00000E176E050E186E010E196E000E1A6EE5
:1015AE00D3EC11F00001F56FF505D8A402D00F0EA3
:1015BE004A6EF505D8A416D0F405D8B413D0D80EBB
:1015CE00166E000E176E070E186E010E196E000EB7
:1015DE001A6ED3EC11F00001F46FF405D8A402D00A
:1015EE000F0E4A6EF405D8A416D0F305D8B413D056
:1015FE008B0E166E000E176E0C0E186E010E196EF7
:10160E00000E1A6ED3EC11F00001F36FF305D8A49F
:10161E0002D00F0E4A6EF305D8A416D0F205D8B438
:10162E0013D06B0E166E000E176E100E186E010E86
:10163E00196E000E1A6ED3EC11F00001F26FF20566
:10164E00D8A402D00F0E4A6EF205D8A416D0F1051A
:10165E00D8B413D07B0E166E000E176E100E186EC9
:10166E00010E196E000E1A6ED3EC11F00001F16F1F
:10167E00F105D8A402D00F0E4A6EF105D8A416D0EB
:10168E00F005D8B413D0970E166E000E176E0C0E12
:10169E00186E010E196E000E1A6ED3EC11F00001C9
:1016AE00F06FF005D8A402D00F0E4A6EF005D8A444
:1016BE0016D0EF05D8B413D0C50E166E000E176EE9
:1016CE000A0E186E010E196E000E1A6ED3EC11F082
:1016DE000001EF6FEF05D8A402D00F0E4A6EEF0592
:1016EE00D8A416D0EE05D8B413D0AF0E166E000ED9
:1016FE00176E0B0E186E010E196E000E1A6ED3ECCD
:10170E0011F00001EE6FEE05D8A402D01E0E4A6E47
:10171E00EE05D8A45CD0ED05D8A406D0EC05D8A46F
:10172E0003D0EB05D8B453D0ED05D8B415D0BA0E0E
:10173E00166E000E176E0B0E186E010E196E000E41
:10174E001A6ED3EC11F00001ED6FED05D8A404D0A4
:10175E006AEC12F00001ED6FEC05D8B415D0A30EB3
:10176E00166E000E176E0C0E186E010E196E000E10
:10177E001A6ED3EC11F00001EC6FEC05D8A404D076
:10178E003CEC11F00001EC6FEB05D8B415D0CF0E88
:10179E00166E000E176E090E186E010E196E000EE3
:1017AE001A6ED3EC11F00001EB6FEB05D8A404D048
:1017BE00CCEC0FF00001EB6FED05D8A408D0EC05D2
:1017CE00D8A405D0EB05D8A402D00F0E4A6E050E94
:1017DE00F519D8B428D0050EF419D8B424D0050EB6
:1017EE00F319D8B420D0050EF219D8B41CD0050EBA
:1017FE00F119D8B418D0050EF019D8B414D0050EBE
:10180E00EF19D8B410D0050EEE19D8B40CD0050EC1
:10181E00ED19D8B408D0050EEC19D8B404D0050EC5
:10182E00EB19D8A404D05EEC17F0050E12000001DF
:10183E00F505D8A425D0F405D8A422D0F305D8A454
:10184E001FD0F205D8A41CD0F105D8A419D0F005EC
:10185E00D8A416D0EF05D8A413D0EE05D8A410D076
:10186E00ED05D8A40DD0EC05D8A40AD0EB05D8A46C
:10187E0007D0EA05D8A404D05EEC17F0010E1200D2
:10188E00020E120021EEC6F010EE60F0070EDBCF56
:10189E00E3FFE806FCE2000E0001726F000E716FAE
:1018AE00C00E156E000ED9EC17F000016B6FC10E55
:1018BE00156E000ED9EC17F000016C6FC20E156E8E
:1018CE00000ED9EC17F000016D6FC30E156E000EF1
:1018DE00D9EC17F000016E6F000E756F9F0E7565D7
:1018EE0001D05CD17551010D000EF324D96E020E9C
:1018FE00F420DA6E3A0EDE18D8B475C068F0755161
:10190E00010D000EF324D96E020EF420DA6E2C0EA9
:10191E00DE18D8A430D075C026F0020E262626502A
:10192E00010D000EF324D96E020EF420DA6E2B0E8A
:10193E00DE18D8A420D07551030FE96F000E736F17
:10194E00080E736501D017D0E9517325266E265007
:10195E00010D000EF324D96E020EF420DA6E7351CF
:10196E00010DF40EF324E16E010EF420E26EDFCFD2
:10197E00E7FF732BE5D77551010D000EF324D96ED9
:10198E00020EF420DA6E0A0EDE18D8B475C069F0B5
:10199E007551010D000EF324D96E020EF420DA6E8D
:1019AE006B51DE18D8A4F8D075C026F0010E26268D
:1019BE002650010D000EF324D96E020EF420DA6EBD
:1019CE006C51DE18D8A4E8D075C026F0020E26267B
:1019DE002650010D000EF324D96E020EF420DA6E9D
:1019EE006D51DE18D8A4D8D075C026F0030E262669
:1019FE002650010D000EF324D96E020EF420DA6E7D
:101A0E006E51DE18D8A4C8D075C026F0040E262656
:101A1E002650010D000EF324D96E020EF420DA6E5C
:101A2E00230EDE18D8A4B8D075C026F0070E2626D1
:101A3E002650010D000EF324D96E020EF420DA6E3C
:101A4E00230EDE18D8A461D075C026F0050E26260A
:101A5E002650010D000EF324D96E020EF420DA6E1C
:101A6E00400EDF640FD075C026F0050E26262650D8
:101A7E00010D000EF324D96E020EF420DA6EDF5043
:101A8E00C90F0ED075C026F0050E26262650010D64
:101A9E00000EF324D96E020EF420DA6EDF50D00F52
:101AAE000A0DF3CF6FF075C026F0060E26262650CF
:101ABE00010D000EF324D96E020EF420DA6E400EE4
:101ACE00DF640FD075C026F0060E26262650010DB7
:101ADE00000EF324D96E020EF420DA6EDF50C90F19
:101AEE000ED075C026F0060E26262650010D000ECD
:101AFE00F324D96E020EF420DA6EDF50D00F706F21
:101B0E0070516F277551080F43D075C026F0060E21
:101B1E0026262650010D000EF324D96E020EF42057
:101B2E00DA6E230EDE18D8A435D0000E6F6F75C096
:101B3E0026F0050E26262650010D000EF324D96E32
:101B4E00020EF420DA6E400EDF640FD075C026F060
:101B5E00050E26262650010D000EF324D96E020E18
:101B6E00F420DA6EDF50C90F0ED075C026F0050EC8
:101B7E0026262650010D000EF324D96E020EF420F7
:101B8E00DA6EDF50D00F706F70516F277551070FDF
:101B9E00726F02D0040E1200752BA0D672C074F0B4
:101BAE009F0E746501D00FD07451010D000EF324F9
:101BBE00D96E020EF420DA6E230EDE18D8B474C07D
:101BCE0071F0742BEDD77151D8A402D0040E12000F
:101BDE0072C06AF001D06A2B71516A5DD8A0FBD732
:101BEE00640E1D6E030E1E6E7251000871251F6E5F
:101BFE006F5109EC0EF00009D8B402D0010E12009C
:101C0E00040E1200256E000E216E280E226E000E9E
:101C1E00236E2504D8A402D0300E71D0020E2518E2
:101C2E00D8A402D0500E6BD0030E2518D8A402D023
:101C3E00700E65D0040E2518D8A402D0900E5FD079
:101C4E00050E2518D8A402D0C00E59D0060E2518A0
:101C5E00D8A402D0C70E53D0070E2518D8A402D090
:101C6E00C80E4DD0080E2518D8A402D0C90E47D0E4
:101C7E00090E2518D8A402D0B80E41D00A0E251888
:101C8E00D8A402D0CA0E3BD00B0E2518D8A402D071
:101C9E00D00E35D00C0E2518D8A402D0B90E2FD0E8
:101CAE000E0E2518D8A402D0BB0E29D00F0E251863
:101CBE00D8A402D0BC0E23D0100E2518D8A402D062
:101CCE00BD0E1DD01F0E2518D8A402D0B00E17D0F1
:101CDE00200E2518D8A402D0B20E11D0210E251830
:101CEE00D8A402D0B40E0BD0220E2518D8A402D040
:101CFE00B60E05D0230E2518D8A403D0100E246ED0
:101D0E0010D0280E25640DD0390E25600AD0010E94
:101D1E00216E2550D70F060DF350800F246E060E40
:101D2E00226E1F50225CD8A061D0090E25641BD0F4
:101D3E0025C015F0166A000E186E0A0E176E14ECFA
:101D4E0016F01550410F0201A06F25C015F0166A4E
:101D5E00000E186E0A0E176E8EEC16F01550300F20
:101D6E000201A16F04D02550300F0201A06F230E87
:101D7E00A26F000E236E26D024C015F02350010D45
:101D8E00F3501D24D96EF4501E20DA6EDF50166EFD
:101D9E00215078EC17F02350010DF3501D24D96E0D
:101DAE00F4501E20DA6E23C020F0030E20262050A1
:101DBE00010DA00EF324E16E020EF420E26EDFCFD1
:101DCE00E7FF232A1F50235CD8A0D6D723C020F0CC
:101DDE00030E20262050010DA00EF324D96E020E04
:101DEE00F420DA6E230EDF6E010E1200000E1200CA
:101DFE0021EE00F010EE76F00F0EDBCFE3FFE806DB
:101E0E00FCE221EEABF010EE86F0080EDBCFE3FF26
:101E1E00E806FCE2F1C198F0F2C199F0F3C19AF034
:101E2E0021EEA2F010EE8FF0080EDBCFE3FFE806F6
:101E3E00FCE2A3EC17F00F0E4A6E760E166E000E35
:101E4E00176E100E186E010E196E000E1A6ED3EC70
:101E5E0011F00001F56FF505D8A409D01FEC15F0AF
:101E6E00E806D8A40BD0010E0001F86F07D0050EBE
:101E7E00F519D8A403D05EEC17F012000001F8514A
:101E8E00D8B41200860E166E000E176E090E186E5E
:101E9E00000E196E000E1A6ED3EC11F00001F46FE5
:101EAE00F751286E296A28C016F029C017F0010EC6
:101EBE00186E000E196E000E1A6ED3EC11F00001A2
:101ECE00F46F980E166E000E176E030E186E010E3E
:101EDE00196E000E1A6ED3EC11F00001F46FF405BA
:101EEE00D8A44CD049EC0CF0E806D8A408D0010ECA
:101EFE00476E5EEC17F0000E0001F86F1200010E37
:101F0E00466E8F0E166E000E176E090E186E000EB0
:101F1E00196E000E1A6ED3EC11F00001F36FF7512B
:101F2E00286E296A28C016F029C017F0010E186E07
:101F3E00000E196E000E1A6ED3EC11F00001F36F45
:101F4E00980E166E000E176E030E186E010E196E99
:101F5E00000E1A6ED3EC11F00001F36FF305D8A446
:101F6E0003D05EEC17F0C7D7050EF319D8A406D030
:101F7E005EEC17F0000E0001F86F1200050EF4195A
:101F8E00D8A41200000EF86F120021EED6F010EE5B
:101F9E0019F0060EDBCFE3FFE806FCE2000E226E20
:101FAE00000E216E000E236E9F0E236401D00FD003
:101FBE002350010D000EF324D96E020EF420DA6EBA
:101FCE001D50DE18D8B423C022F0232AEDD722C02C
:101FDE0015F0FC0E15261550010D000EF324D96ECA
:101FEE00020EF420DA6E1950DE18D8A494D022C056
:101FFE0015F0FD0E15261550010D000EF324D96EA9
:10200E00020EF420DA6E1A50DE18D8A484D022C044
:10201E0015F0FE0E15261550010D000EF324D96E87
:10202E00020EF420DA6E1B50DE18D8A474D022C033
:10203E0015F0FF0E15261550010D000EF324D96E66
:10204E00020EF420DA6E1C50DE18D8A464D0225092
:10205E00156E166A151E161E154A162A2150176E73
:10206E00186A155017261650182218BE40D0185050
:10207E0004E1040E175CD8A03AD021C015F0FE0E74
:10208E0015261550010D000EF324D96E020EF42004
:10209E00DA6EDF50246E400E246403D02450C90F34
:1020AE0002D02450D00F0A0DF3CF24F021C015F02A
:1020BE00FF0E15261550010D000EF324D96E020EDB
:1020CE00F420DA6EDF50206E400E206402D0410EF6
:1020DE0001D0300E205E205024262450D8B405D0D6
:1020EE00630E246002D0010E1200040E120021C0F5
:1020FE0015F0FF0E15261550010D000EF324D96EA6
:10210E00020EF420DA6EDF50D00F206E2050D8A4CD
:10211E00EAD7040E1200040E12002A6E21EE99F078
:10212E0010EE1EF0080EDBCFE3FFE806FCE2EEC178
:10213E0027F0EFC128F0F0C129F0000E2C6E000E32
:10214E002D6EA3EC17F00001F505D8B48CD01E0E41
:10215E00166E000E176E090E186E000E196E000E1A
:10216E001A6ED3EC11F00001F56FF40E166E010E1F
:10217E00176E090E186E000E196E000E1A6ED3EC45
:10218E0011F00001F56F000EF56F270E166E000EA2
:10219E00176E030E186E000E196E010E1A6ED3EC2A
:1021AE0011F00001F56FF505D8B403D03650D8B450
:1021BE00FAD7F505D8A443D02A50D8B440D0000E93
:1021CE002D6E270E2D6401D015D02D50010DA00EB1
:1021DE00F324D96E020EF420DA6E230EDE18D8B474
:1021EE002C2A020E2C18D8A403D02D282B6E2C2AA4
:1021FE002D2AE7D7A00E166E020E176E2BC018F002
:10220E00000E196E000E1A6ED3EC11F00001F46F71
:10221E001A0E166E000E176E010E186E010E196E46
:10222E00000E1A6ED3EC11F00001F46F01D0040011
:10223E000001F405D8B403D03650D8B4F8D7F5055C
:10224E00D8A404D05EEC17F0010E1200040E0001AB
:10225E00F519D8A402D0040E1200050EF519D8A453
:10226E0002D0050E1200020E120021EEB4F010EE96
:10227E0017F0080EDBCFE3FFE806FCE2000E216E3E
:10228E009F0E216401D086D02150010D000EF32443
:10229E00D96E020EF420DA6E1750DE18D8A478D05C
:1022AE0021C015F0010E15261550010D000EF32458
:1022BE00D96E020EF420DA6E1850DE18D8A468D04B
:1022CE0021C015F0020E15261550010D000EF32437
:1022DE00D96E020EF420DA6E1950DE18D8A458D03A
:1022EE0021C015F0030E15261550010D000EF32416
:1022FE00D96E020EF420DA6E1A50DE18D8A448D029
:10230E0021C015F0040E15261550010D000EF324F4
:10231E00D96E020EF420DA6E1B50DE18D8A438D017
:10232E0021C015F0050E15261550010D000EF324D3
:10233E00D96E020EF420DA6E1C50DE18D8A428D006
:10234E0021C015F0060E15261550010D000EF324B2
:10235E00D96E020EF420DA6E1D50DE18D8A418D0F5
:10236E0021C015F00A0E15261550010D000EF3248E
:10237E00D96E020EF420DA6EDF50206E300E20641D
:10238E0005D0390E206002D0010E1200040E12008C
:10239E00212A76D7040E12003550D8A44ED03450D0
:1023AE00D8A44BD0000E1C6E000E1B6EAB98000E08
:1023BE003E6E000E386E000E376E000E366E36D044
:1023CE00000E366E000E1C6E1AD016C0D9FF17C046
:1023DE00DAFF1C50010D640EF324E16E030EF4209F
:1023EE00E26EDFCFE7FF16C0D9FF17C0DAFFDF506E
:1023FE003D6E3D5049EC18F0164A172A1C2A18500B
:10240E001C5CD8A0E2D71A50D8A40BD01950D8B45F
:10241E0008D0AB884FEC18F0F4EC17F0010E356EC7
:10242E0005D01A50D8B402D0010E346E4A064A288E
:10243E00D8B403D03850D8B4C3D71A50D8B414D0A7
:10244E003450D8B411D0AB889EAAFED7AECF3DF093
:10245E003C0E3D18D8A404D0000E346E010E1200AE
:10246E00000E346E040E12001950D8B423D035501D
:10247E00D8B420D03850D8B407D055EC18F0AB985B
:10248E00000E356E010E12003750D8B407D055EC41
:10249E0018F0AB98000E356E040E12003650D8B4FC
:1024AE0007D055EC18F0AB98000E356E050E1200E5
:1024BE00030E12001950D8A404D0010E386E010E6E
:1024CE001200040E120021EECEF010EE17F0070EE1
:1024DE00DBCFE3FFE806FCE2000E206E9F0E2064C9
:1024EE0001D076D02050010D000EF324D96E020ECD
:1024FE00F420DA6E1750DE18D8A468D020C015F07C
:10250E00010E15261550010D000EF324D96E020E84
:10251E00F420DA6E1850DE18D8A458D020C015F06A
:10252E00020E15261550010D000EF324D96E020E63
:10253E00F420DA6E1950DE18D8A448D020C015F059
:10254E00030E15261550010D000EF324D96E020E42
:10255E00F420DA6E1A50DE18D8A438D020C015F048
:10256E00040E15261550010D000EF324D96E020E21
:10257E00F420DA6E1B50DE18D8A428D020C015F037
:10258E00050E15261550010D000EF324D96E020E00
:10259E00F420DA6E1C50DE18D8A418D020C015F026
:1025AE00090E15261550010D000EF324D96E020EDC
:1025BE00F420DA6EDF501F6E300E1F6405D0360E1B
:1025CE001F6002D0010E1200040E1200202A86D7C0
:1025DE00040E120021EE3EF010EE87F00B0EDBCF54
:1025EE00E3FFE806FCE222EEC8F010EE60F0180EF3
:1025FE00DBCFE3FFE806FCE221EE30F010EE79F0DF
:10260E000D0EDBCFE3FFE806FCE2A3EC17F00001B2
:10261E00F505D8B413D0870E166E000E176E0C0E7D
:10262E00186E010E196E000E1A6ED3EC11F0000129
:10263E00F56FF505D8A402D00F0E4A6EF505D8A495
:10264E0016D0F405D8B413D0600E166E000E176EA9
:10265E00190E186E010E196E000E1A6ED3EC11F0D3
:10266E000001F46FF405D8A402D00F0E4A6EF405E3
:10267E00D8A416D0F305D8B413D0790E166E000E6A
:10268E00176E0E0E186E010E196E000E1A6ED3EC2A
:10269E0011F00001F36FF305D8A402D00F0E4A6EAD
:1026AE00050EF519D8B408D0050EF419D8B404D017
:1026BE00050EF319D8A404D05EEC17F0050E120027
:1026CE000001F505D8A40AD0F405D8A407D0F30567
:1026DE00D8A404D05EEC17F0010E1200020E120008
:1026EE0041542B434D474C3D22414C4C220D0A0088
:1026FE004154234750494F3D372C302C320D0A00A0
:10270E0041542B4950523D3131353230300D0A0093
:10271E0041542B434E4D493D312C310D0A0041544D
:10272E002B434D47463D310D0A0041542B43455234
:10273E0045473F0D0A00415423534C45443D340D4B
:10274E000A0041542B434D45453D320D0A0041547C
:10275E0023475052533F0D0A0041542B43524547D5
:10276E003F0D0A0041542B4350494E3F0D0A004184
:10277E00542343474D520D0A0041542B434D4753AA
:10278E003D0041542B434D47443D0041542B434D96
:10279E0047523D002B43455245473A200041542BAA
:1027AE004353510D0A002B434D47523A20002B4301
:1027BE005245473A20002B4353513A20004154458D
:1027CE00310D0A00524543200041540D0A000D0AF6
:1027DE00000D0A0058D04950D8B4120007D08A967E
:1027EE000FD08A860DD0000E416E0AD04150010ADC
:1027FE00D8B4F5D7040AD8B4F4D7110AD8B4F3D79D
:10280E008B88000E406E12008B980FD08B880DD0E7
:10281E00000E406E0AD04050010AD8B4F5D7040A13
:10282E00D8B4F4D7110AD8B4F3D78A86000E416E05
:10283E0012008B980FD08B880DD0000E406E0AD0F0
:10284E004050010AD8B4F5D7040AD8B4F4D7110A07
:10285E00D8B4F3D78A96000E416E12008A960FD026
:10286E008A860DD0000E416E0AD04150010AD8B4AE
:10287E00F5D7040AD8B4F4D7110AD8B4F3D78B9885
:10288E00000E406E12003150000AD8B4A4D7010ACF
:10289E00D8B4C1D7030AD8B4D3D7010AD8A412002A
:1028AE00E4D7F1EC12F00001E46F3A50D8A403D053
:1028BE0056EC16F012003A50D8B414D03950D8A4B1
:1028CE0011D00001E405D8A405D0E7EC17F0010EF5
:1028DE00396E1200050E0001E419D8A4120056EC50
:1028EE0016F012003950D8B412004850D8B409D09E
:1028FE004750D8A406D0000E336E000E486EFFEC83
:10290E000EF04750D8B418D0010E94EC10F0E80633
:10291E00D8A40AD0332A33042E6E050E2E6004D0AE
:10292E00000E336E000E476E040E33641DD0000E83
:10293E00336E000E476E18D04650D8B415D0000E28
:10294E0094EC10F0E806D8A40AD0332A33042E6E85
:10295E00050E2E6004D0000E336E000E466E040E71
:10296E00336402D0000E466EC6EC16F01200020E54
:10297E00F66E300EF76E000EF86E02EEC8F010EE28
:10298E0019F00900F5CFEEFFE550E150FAE1EE0E39
:10299E00F66E260EF76E000EF86E01EE00F010EEDB
:1029AE00F4F00900F5CFEEFFE550E150FAE1C00E6C
:1029BE00F66E300EF76E000EF86E00EEFAF010EEB8
:1029CE0006F00900F5CFEEFFE550E150FAE1D20E28
:1029DE00F66E300EF76E000EF86E0900F5CF49F068
:1029EE000900F5CF4AF003EE00F0A00EEE6AE806FD
:1029FE00FDE102EE00F0C80EEE6AE806FDE101EE22
:102A0E00F4F0090EEE6AE806FDE100EEE6F0140EB3
:102A1E00EE6AE806FDE100EE2FF01A0EEE6AE80609
:102A2E00FDE14B904B92000EF86E000134EF18F062
:102A3E0021EEE4F010EE17F0040EDBCFE3FFE80614
:102A4E00FCE2000E1C6E9F0E1C6401D04FD01C5079
:102A5E00010D000EF324D96E020EF420DA6E17501B
:102A6E00DE18D8A441D01CC015F0010E1526155045
:102A7E00010D000EF324D96E020EF420DA6E1850FA
:102A8E00DE18D8A431D01CC015F0020E1526155034
:102A9E00010D000EF324D96E020EF420DA6E1950D9
:102AAE00DE18D8A421D01CC015F0030E1526155023
:102ABE00010D000EF324D96E020EF420DA6E1A50B8
:102ACE00DE18D8A411D01CC015F0FD0E1526155019
:102ADE00010D000EF324D96E020EF420DA6EDF50D3
:102AEE000001F76F010E1200040E1200040E120008
:102AFE0042D00001E651016EE751026EE64BE72B24
:102B0E004C0E015C0E0E0258D8A01200000EE76F9C
:102B1E00000EE66F42EC18F0000E316E120000014E
:102B2E00E651016EE751026EE64BE72B260E015C75
:102B3E00070E0258D8A01200000EE76F000EE66FC7
:102B4E0042EC18F0000E316E12000001E651016EDB
:102B5E00E751026EE64BE72B260E015C070E02587C
:102B6E00D8A01200000EE76F000EE66F42EC18F0D0
:102B7E00000E316E12003150010AD8B4BAD7030AD2
:102B8E00D8B4CDD7010AD8A41200DFD737D0000EA3
:102B9E00496E81A814D02F50D8A411D04E0E00012A
:102BAE00E56FEB0EE82EFED7E52FFCD781A805D0FA
:102BBE00422A24EC18F0000E3F6E010E0BD04E0E82
:102BCE000001E56FEB0EE82EFED7E52FFCD781B89E
:102BDE0002D0000E2F6E4550D8B406D04250D8A465
:102BEE0003D08A968B9802D08A868B88000E406E10
:102BFE00000E416E120058EC14F012003150000A13
:102C0E00D8B4C5D7010AD8B4F6D7030AD8B412007F
:102C1E00010AD8B41200070A1200000E1A6E18AE7E
:102C2E0006D0176C181ED8B0182A010E1A6E16AEE2
:102C3E0006D0156C161ED8B0162A010E1A1A000EE2
:102C4E001C6E000E1B6E17501810D8B41CD0010E3F
:102C5E00196E04D0D89017361836192A18AEFAD72E
:102C6E00D8901B361C361750155C18501658D8A025
:102C7E0005D01750155E1850165A1B80D890183272
:102C8E001732192EEDD71A50D8B404D01B6C1C1E57
:102C9E00D8B01C2A1BC015F01CC016F012000EEC8A
:102CAE0018F00009D8B404D017EC08F02CEC18F08A
:102CBE00FCEC16F03B04D8A406D03B04D8A41AD0E2
:102CCE00010E326417D08996030E276E080E266EFB
:102CDE00770EE82EFED7262EFCD7272EFAD700F039
:102CEE008986010E3B6E000E3A6E000E326E0F0E8E
:102CFE004A6E12003B04D8A412003204D8A412006B
:102D0E00010E3B6E63EC18F00F0E4A6E1200000EB1
:102D1E001A6E16AE06D0156C161ED8B0162A010EF7
:102D2E001A6E18AE04D0176C181ED8B0182A175089
:102D3E001810D8B418D0010E196E04D0D8901736CA
:102D4E001836192A18AEFAD71750155C185016589F
:102D5E00D8A004D01750155E1850165AD8901832B5
:102D6E001732192EF1D71A50D8B404D0156C161E7E
:102D7E00D8B0162A15C015F016C016F01200B80EEF
:102D8E00186E000EB6EC17F0140DF3CF1BF01FD01B
:102D9E001E0E436405D0000E436E442A020E3C6E96
:102DAE001B50445CD8A01200000E446E030E3C6E05
:102DBE001200010E486E010E3C6E120066EC18F009
:102DCE00000E396E30C031F0000E3C6E12003C50D9
:102DDE00000AD8B41200010AD8B4DAD7030AD8B45C
:102DEE00E8D7010AD8A41200E9D7000E256E23D029
:102DFE0089961200B30E3E6412003A50D8A4120007
:102E0E0055EC18F05BEC0AF0256E2504D8A407D01B
:102E1E00000E326E010E3A6E020E3B6E1200020E64
:102E2E002518D8A402D000F01200030E2518D8A43D
:102E3E001200322A12003B50000AD8B4D9D7010A28
:102E4E00D8B4D8D7030AD8B41200010AD8B41200E5
:102E5E00070A1200D39ED3508F0B6009D36ED38610
:102E6E00010E0F01386F928092968996000E3A6F7E
:102E7E008A869396828C949C8B8E948E000E396FDC
:102E8E00938094828A8293828A8493848B88949886
:102E9E0081889388818A938A818C939C818E938E6C
:102EAE008992929290EC17F0000E316E1200000E85
:102EBE000001F56F000EF46F000EF36F000EF26F4F
:102ECE00000EF16F000EF06F000EEF6F000EEE6F42
:102EDE00000EED6F000EEC6F000EEB6F000EEA6F42
:102EEE001200176EF29E17C0AAFF15C0A9FF16C0DA
:102EFE00A8FFA69CA69EA684F29E550EA76EAA0EAD
:102F0E00A76EA682F28EA694A6B2FED7A198F28ED6
:102F1E001200F29E1AEC18F0300EB1123F0EB116DE
:102F2E00B184B180A082A192600EB36E000EB26E1B
:102F3E00F29EF28CF28E1200B886B88CB898B892C7
:102F4E00B890AC84AC98000EB06E100EAF6EAB8E17
:102F5E00948E949CAB88AC8A89869E9A1200196EC8
:102F6E0018C015F01950D9EC17F01A6E400E1A64ED
:102F7E0003D01A50C90F02D01A50D00F1A6E1A5021
:102F8E001200000E0F01536F5151FC0B0209516FCD
:102F9E0051875189518B518D51857D807E90F28C58
:102FAE00F28E1200166EF29E16C0AAFF15C0A9FF71
:102FBE00A69CA69EA680A8CF17F0F28E17501200E0
:102FCE00BA50FC0B0209BA6EBA86BA88BA8ABA8CA3
:102FDE00BA849D82F28CF28E1200F29E350E0F0193
:102FEE004E6F7D82F28C7E920B0E506F450E4F6FA0
:102FFE00F28E120041542B43504D533D224D45222B
:0D300E002C224D45222C224D45220D0A009A
:10301C00F00E156E000ED9EC17F0570AD8B402D08A
:10302C00010E1200000E1200870ED56EF20ED66E37
:10303C00FC0ED76EF294F28AF28E1200B180A0824E
:10304C00A1920B0EB36E450EB26E1200F00E156E01
:10305C00570E166E000E78EC17F0120031EC17F0CC
:10306C00A3EC17F0CDEC15F0FDD7000E426E000E60
:10307C003F6EB190A09212007D907E900F01519501
:10308C00000E536F1200156EACA2FED715C0ADFF2B
:10309C001200F29E9D8A9E9AF28CF28E1200000E05
:1030AC003E6E0F014E917D921200F20ED66EFC0E0A
:1030BC00D76E1200323032300001F4EC17F01200EF
:0830CC00BA949D921200010F5D
:020000040020DA
:08000000FFFFFFFFFFFFFFFF00
:020000040030CA
:0E000000FF291F22FF3D81FF00000FE00F408F
:00000001FF
