:0400000032EF01F0EA
:100008005582FACF32F0FBCF33F0E9CF34F0EACFA4
:1000180035F0E1CF36F0E2CF37F0D9CF38F0DACF8C
:1000280039F0F3CF3AF0F4CF3BF0F6CF3CF0F7CF0E
:100038003DF0F8CF3EF0F5CF3FF055C040F056C048
:1000480041F057C042F058C043F09EBA9DAAD5D09F
:100058009E9AAECF49F05050010D770EF324D96E19
:10006800010EF420DA6E49C0DFFF502A630E506497
:1000780001D05006020E5064AAD050C02DF0FD0EDB
:100088002D262D50010D770EF324D96E010EF42084
:10009800DA6E4F0EDE18D8A439D050C02DF0FE0EFF
:1000A8002D262D50010D770EF324D96E010EF42064
:1000B800DA6E4B0EDE18D8A429D050C02DF0FF0EF2
:1000C8002D262D50010D770EF324D96E010EF42044
:1000D800DA6E0D0EDE18D8B410D050C02DF0FF0E19
:1000E8002D262D50010D770EF324D96E010EF42024
:1000F800DA6E0A0EDE18D8A409D0010E4F6E000E73
:100108004E6E000E4B6E54EC0FF077D0040E506418
:1001180074D050C02DF0FB0E2D262D50010D770EFA
:10012800F324D96E010EF420DA6E450EDE18D8A439
:1001380064D050C02DF0FC0E2D262D50010D770EE9
:10014800F324D96E010EF420DA6E520EDE18D8A40C
:1001580054D050C02DF0FD0E2D262D50010D770ED8
:10016800F324D96E010EF420DA6E520EDE18D8A4EC
:1001780044D050C02DF0FE0E2D262D50010D770EC7
:10018800F324D96E010EF420DA6E4F0EDE18D8A4CF
:1001980034D0FF0E2D6EFF0E2E6E50502F6E306A2B
:1001A8002D502F262E503022770E2F24D96E010E77
:1001B8003020DA6E520EDE18D8A41FD0000E4F6E13
:1001C800010E4E6E000E4B6E54EC0FF016D03E0E24
:1001D8004918D8A412D0000E446E000E456E000EC9
:1001E800466E000E476E2FEC0FF054EC0FF0000E29
:1001F8004F6E000E4E6E010E4C6EA1A209D0010E7C
:100208004426000E452246224722A192D3EC0BF049
:1002180043C058F042C057F041C056F040C055F0B6
:100228003FC0F5FF3EC0F8FF3DC0F7FF3CC0F6FFFA
:100238003BC0F4FF3AC0F3FF39C0DAFF38C0D9FF3A
:1002480037C0E2FF36C0E1FF35C0EAFF34C0E9FF3E
:1002580033C0FBFF32C0FAFF5592110041EF0DF099
:101000000041542353443D312C302C3130353130A4
:101010002C226D6F64756C65732E74656C69742E0B
:10102000636F6D222C302C302C310D0A004154237B
:101030004641535453595348414C540D0A004154AE
:101040002353524543563D312C38390D0A00415443
:101050002353474143543D332C300D0A0041542360
:101060005353454E443D310D0A0041542353483DEE
:10107000310D0A004563686F2E0D0A0032303230A0
:10108000000020EED8F012EE7FF0040EDBCFE3FF7D
:10109000E806FCE220EED1F012EE78F0060EDBCF8F
:1010A000E3FFE806FCE221EE60F012EE20F00B0E0A
:1010B000DBCFE3FFE806FCE221EE29F012EE00F0C0
:1010C0000F0EDBCFE3FFE806FCE221EE19F012EE93
:1010D00010F00F0EDBCFE3FFE806FCE221EE54F048
:1010E00012EE2CF00B0EDBCFE3FFE806FCE220EE65
:1010F00017F012EE65F0090EDBCFE3FFE806FCE225
:1011000020EE0CF012EE44F00A0EDBCFE3FFE8060F
:10111000FCE220EE01F012EE4FF00A0EDBCFE3FF0F
:10112000E806FCE221EE48F012EE38F00B0EDBCFC1
:10113000E3FFE806FCE221EE6CF012EE5AF00A0E34
:10114000DBCFE3FFE806FCE220EE21F012EE6FF0C9
:10115000080EDBCFE3FFE806FCE2030E0001CD1929
:10116000D8B40ED07F0E616F020E626F050E636FF2
:10117000010E646F000E656F38EC0AF00001CD6F50
:10118000030ECD19D8A412D0030ECC19D8B40ED0AA
:10119000780E616F020E626F070E636F010E646F4F
:1011A000000E656F38EC0AF00001CC6F030ECC190D
:1011B000D8A412D0030ECB19D8B40ED0200E616F74
:1011C000020E626F0C0E636F010E646F000E656F8E
:1011D00038EC0AF00001CB6F030ECB19D8A412D063
:1011E000030ECA19D8B40ED0000E616F020E626FE2
:1011F000100E636F010E646F000E656F38EC0AF01D
:101200000001CA6F030ECA19D8A412D0030EC9195F
:10121000D8B40ED0100E616F020E626F100E636FA5
:10122000010E646F000E656F38EC0AF00001C96FA3
:10123000030EC919D8A412D0030EC819D8B40ED001
:101240002C0E616F020E626F0C0E636F010E646FE5
:10125000000E656F38EC0AF00001C86F030EC81964
:10126000D8A412D0030EC719D8B40ED0650E616F82
:10127000020E626F0A0E636F010E646F000E656FDF
:1012800038EC0AF00001C76F030EC719D8A412D0BA
:10129000030EC619D8B40ED0440E616F020E626FF1
:1012A0000B0E636F010E646F000E656F38EC0AF071
:1012B0000001C66F030EC619D8A412D0030EC519BB
:1012C000D8B40ED04F0E616F020E626F0B0E636FBB
:1012D000010E646F000E656F38EC0AF00001C56FF7
:1012E000030EC519D8A412D0030EC419D8B40ED059
:1012F000380E616F020E626F0C0E636F010E646F29
:10130000000E656F38EC0AF00001C46F030EC419BB
:10131000D8A412D0030EC319D8B40ED05A0E616FE0
:10132000020E626F0B0E636F010E646F000E656F2D
:1013300038EC0AF00001C36F030EC319D8A412D011
:10134000030EC219D8B40ED06F0E616F020E626F19
:10135000090E636F010E646F000E656F38EC0AF0C2
:101360000001C26F040ECD19D8B42CD0040ECC19D4
:10137000D8B428D0040ECB19D8B424D0040ECA197E
:10138000D8B420D0040EC919D8B41CD0040EC81982
:10139000D8B418D0040EC719D8B414D0040EC61986
:1013A000D8B410D0040EC519D8B40CD0040EC4198A
:1013B000D8B408D0040EC319D8B404D0040EC2198E
:1013C000D8A40FD0C151D8A40CD0010EC16F000E0B
:1013D0004B6EB8EC0EF059EC0FF0010E0001D06F1F
:1013E0003AD0040ECD19D8B42CD0040ECC19D8B4F0
:1013F00028D0040ECB19D8B424D0040ECA19D8B4FE
:1014000020D0040EC919D8B41CD0040EC819D8B401
:1014100018D0040EC719D8B414D0040EC619D8B405
:1014200010D0040EC519D8B40CD0040EC419D8B409
:1014300008D0040EC319D8B404D0040EC219D8A41D
:101440000AD0C151D8B407D0000EC16FB8EC0EF06D
:10145000000E64EC0EF0030E0001C219D8A404D0F3
:10146000B8EC0EF0010E01D0000E4A6E4A50120088
:10147000D8D0000E446E000E456E000E466E000E73
:10148000476E000E506E000E4F6E000E4E6E2B0615
:101490002B28800A7F0FD8A044D014EC0FF01A0E2E
:1014A0000001666FF80EE82EFED7662FFCD700F01D
:1014B000000E4B6E000E0001686F0DD061C0D9FFA9
:1014C00062C0DAFFDF50676F675142EC0FF0000136
:1014D000614B622B682B6351685DD8A0EFD76451D4
:1014E000D8B409D06551D8A406D039EC0FF05CEC23
:1014F0000FF0020E14D000016451D8A407D065513A
:10150000D8A404D04FEC0FF0010E12000001655179
:10151000D8B491D039EC0FF05CEC0FF0010E516EA5
:101520008AD00F0E2B6E040E12004C50D8B40AD085
:1015300025EC0FF04FEC0FF0000E4C6E000E516ECC
:10154000030E12004C50D8A412D04B50D8B40FD078
:101550002B50800A7F0FD8A00AD025EC0FF04FEC5B
:101560000FF0000E4B6E000E516E010E12002B504C
:10157000D8A461D025EC0FF04FEC0FF04FD04F50B6
:10158000D8B417D04E50D8A414D090EC0EF0000E62
:10159000446E000E456E000E466E000E476E25EC42
:1015A0000FF04FEC0FF0000E4F6E000E516E030E59
:1015B00012004F50D8A412D04E50D8B40FD04B5078
:1015C000D8B40CD0000E4E6E000E4B6E25EC0FF012
:1015D0004FEC0FF0000E516E020E12004F50D8A4C7
:1015E00016D04E50D8A413D04B50D8B410D02A1EC9
:1015F0002AB002D0819601D08186000E4B6E25EC78
:101600000FF04FEC0FF0000E516E010E12002B5038
:10161000D8A411D025EC0FF04FEC0FF0000E516E56
:1016200082D75150000AD8B424D7010AD8B47DD744
:10163000030AD8B4A4D74F50D8B402D0030E120076
:101640004E50D8B402D0020E12004B50D8B402D083
:10165000010E1200050E1200010EF66E100EF76E4E
:1016600020EE69F02B0E0900F5CFDEFFE806FBE265
:101670005D0EF66E100EF76E20EEA5F00C0E090052
:10168000F5CFDEFFE806FBE23E0EF66E100EF76EBB
:1016900020EE95F00F0E0900F5CFDEFFE806FBE225
:1016A000740EF66E100EF76E20EEB2F0070E090003
:1016B000F5CFDEFFE806FBE21A0E0001BA6F030E5B
:1016C000CD19D8B40ED0690E616F000E626F2C0E6A
:1016D000636F010E646F000E656F38EC0AF0000155
:1016E000CD6F030ECD19D8A412D0030ECC19D8B4E7
:1016F0000ED0A50E616F000E626F0D0E636F000EAF
:10170000646F010E656F38EC0AF00001CC6F030EB8
:10171000CC19D8A412D0030ECB19D8B40ED0B20E67
:10172000616F000E626F080E636F000E646F000E33
:10173000656F38EC0AF00001CB6F030ECB19D8A40B
:1017400012D0030ECA19D8B40ED0BA0E616F000EB3
:10175000626F010E636F010E646F000E656F38ECEF
:101760000AF00001CA6F030ECA19D8A412D0030EE2
:10177000C919D8B40ED0950E616F000E626F100EAD
:10178000636F010E646F000E656F38EC0AF00001A4
:10179000C96F030EC919D8A404D0B8EC0EF0010E1D
:1017A0001200000E120089D044C02CF0010E2C163D
:1017B0002C462C462C4681502C18F70B2C18816E89
:1017C00047504610451004E10F0E445CD8A01200AB
:1017D0002FEC0FF0000E446E000E456E000E466EAC
:1017E000000E476E000E4F6E010E4B6E120044C08D
:1017F0002CF0010E2C162C3A82502C18EF0B2C18C2
:10180000826E4750461006E1A30E445C020E455816
:10181000D8A012002FEC0FF0000E446E000E456EA3
:10182000000E466E000E476E010E0001CF6F1200D3
:1018300047504610451004E10F0E445CD8A012003A
:101840002FEC0FF0000E446E000E456E000E466E3B
:10185000000E476E000E4F6E010E4B6E1200475089
:101860004610451004E1960E445CD8A012002FECFF
:101870000FF0000E446E000E456E000E466E000E18
:10188000476E000E4F6E010E4B6E12004750461011
:10189000451004E1960E445CD8A012002FEC0FF026
:1018A000000E446E000E456E000E466E000E476E32
:1018B000000E4F6E010E4B6E12000001D051000A57
:1018C000D8B472D7010AD8B492D7030AD8B4B0D723
:1018D000010AD8B4C4D7070AD8A41200D7D76A0E11
:1018E000F66E100EF76E20EE89F0090E0900F5CFA6
:1018F000DEFFE806FBE24E0EF66E100EF76E20EEEF
:101900007AF00E0E0900F5CFDEFFE806FBE22D0EA1
:10191000F66E100EF76E20EE69F0100E0900F5CF8E
:10192000DEFFE806FBE2030E0001CD19D8B40ED0AD
:10193000890E616F000E626F0A0E636F010E646F95
:10194000000E656F38EC0AF00001CD6F030ECD1963
:10195000D8A412D0030ECC19D8B40ED07A0E616F71
:10196000000E626F0F0E636F010E646F000E656FE5
:1019700038EC0AF00001CC6F030ECC19D8A412D0B9
:10198000030ECB19D8B40ED0690E616F000E626FD2
:10199000110E636F010E646F000E656F38EC0AF074
:1019A0000001CB6F030ECB19D8A406D0000ECE6F6A
:1019B000B8EC0EF0010E1200000E120022EEC0F084
:1019C00010EE69F02E0EDBCFE3FFE806FCE221EE1D
:1019D00000F010EE98F0180EDBCFE3FFE806FCE213
:1019E00021EE39F010EEB1F00E0EDBCFE3FFE8068A
:1019F000FCE2030E0001CD19D8B40ED0690E616F60
:101A0000000E626F2F0E636F010E646F000E656F24
:101A100038EC0AF00001CD6F030ECD19D8A412D016
:101A2000030ECC19D8B40ED0980E616F000E626F01
:101A3000190E636F010E646F000E656F38EC0AF0CB
:101A40000001CC6F030ECC19D8A412D0030ECB1911
:101A5000D8B40ED0B10E616F000E626F0F0E636FBF
:101A6000010E646F000E656F38EC0AF00001CB6F59
:101A7000030ECB19D8A41200010ECE6FB8EC0EF0F5
:101A80001200A40EF66E1D0EF76E000EF86E02EE3A
:101A9000C0F010EE2FF00900F5CFEEFFE550E15059
:101AA000FAE1500EF66E1C0EF76E000EF86E01EEA7
:101AB00000F010EE77F00900F5CFEEFFE550E150B1
:101AC000FAE1920EF66E1E0EF76E000EF86E00EE44
:101AD000D1F010EE0CF00900F5CFEEFFE550E1502B
:101AE000FAE1D30EF66E1D0EF76E000EF86E00EEE4
:101AF00001F010EE2BF00900F5CFEEFFE550E150BC
:101B0000FAE102EE84F03C0EEE6AE806FDE101EE39
:101B100077F0640EEE6AE806FDE100EEC1F0100E0B
:101B2000EE6AE806FDE100EE44F0110EEE6AE8060A
:101B3000FDE155905592000EF86E0001FFEF0EF09A
:101B400032D00001CF51D8B412000F0E2B6E020E0E
:101B5000D06F120041EC08F00009D8B41200030E57
:101B60000001D06F1200DEEC0CF00001CE51D8B4B1
:101B70001200040ED06F12002CEC0BF00009D8B448
:101B80001200050E0001D06F12006FEC0CF000097E
:101B9000D8B41200000E0001CE6F000ED06F8096F8
:101BA000000E4A6E12000001D051000AD8B4120093
:101BB000010AD8B4C6D7030AD8B4CCD7010AD8B41E
:101BC000D2D7070AD8B4D8D7010AD8A41200DDD7D3
:101BD000D39ED3508F0B5009D36ED386010E0F01C5
:101BE000386F010E926E928092968096000E3A6F38
:101BF000800E946E81869396828C949C8B8E948EAC
:101C0000000E396FB70E936E939094828182938207
:101C1000818493848288949881889388818A938A26
:101C20008A8C939C818E938E92928092870ED56E31
:101C3000FC0ED76EF30ED66EF294050EB16EB19017
:101C4000A082A192F28CF28E000E0001D06F1200E1
:101C5000415423534346474558543D312C312C3091
:101C60002C302C302C300D0A004154234750494F62
:101C70003D372C302C320D0A0041542B4950523D37
:101C80003131353230300D0A00415423534741433E
:101C9000543D332C310D0A0041542B4345524547E6
:101CA0003F0D0A00415423534C45443D340D0A0076
:101CB00041542B434D45453D320D0A0041542347C5
:071CC0005052533F0D0A00D2
:101CC8000001626F4A50D8A420D000016251D8A404
:101CD8001CD059EC0FF0010E0001D06F8096000E59
:101CE800636F0FD00400030E0001616F080E606F70
:101CF800770EE82EFED7602FFCD7612FFAD70001A8
:101D0800632B090E6365EED70400808659EC0FF04B
:101D1800010E0001D06F120012D00F0E2B6E1200B0
:101D2800140E2B6E1200140E2B6E12000F0E2B6E5B
:101D380012000F0E2B6E12000F0E2B6E12000001F8
:101D4800D051020AD8B4E9D7010AD8B4E9D7070AAA
:101D5800D8B4E9D7010AD8B4E9D7030AD8B4E9D77F
:101D6800010AD8A41200E8D7000E0001CD6F000EBA
:101D7800CC6F000ECB6F000ECA6F000EC96F000E3D
:101D8800C86F000EC76F000EC66F000EC56F000E3D
:101D9800C46F000EC36F000EC26F120041542B4374
:101DA8004744434F4E543D332C22495056345636FF
:101DB800222C2277796C65736C74652E6777372EC1
:101DC800767A77656E7470220D0A0041542B43525F
:101DD80045473F0D0A0041542B4350494E3F0D0AD9
:101DE8000041542343474D520D0A0041542B43539D
:101DF800510D0A00010FE8EC0DF081A80ED0820EFB
:101E08000001C06FDD0EE82EFED7C02FFCD700D032
:101E180081A803D0540E64EC0EF0A0EC0DF0EDD7C1
:101E2800B886B88CB898B892B890AC84AC98000EC4
:101E3800B06E100EAF6EAB8E948E949CAB98AC8A3D
:101E48001200000E446E000E456E000E466E000E27
:101E5800476EB1901200000E446E000E456E000EE3
:101E6800466E000E476EB1901200F29E9D8A9E9AB1
:101E7800F28CAB88000E506EF28E12000001606F7B
:101E8800ACA2FED760C0ADFF1200415445310D0A27
:101E98000041540D0A00AB9E949C829C9D9A1200AE
:101EA800AB98F29E9D9AF28E12005CEC0FF0120035
:041EB800B1801200E3
:020000040020DA
:08000000FFFFFFFFFFFFFFFF00
:020000040030CA
:0E000000FF281F3CFF3D81FF00000FE00F4076
:00000001FF
