:04000000B2EF00F06B
:100008002282FACF01F0FBCF02F0E9CF03F0EACF6A
:1000180004F0E1CF05F0E2CF06F0D9CF07F0DACF50
:1000280008F0F3CF09F0F4CF0AF0F6CF0BF0F7CFD2
:100038000CF0F8CF0DF0F5CF0EF022C00FF023C072
:1000480010F024C011F025C012F0F2A405D0F294EB
:1000580057EC09F0192A182AA1A25AD0172AA192F6
:10006800070E176446D01B50D8B403D01A50D8A432
:1000780003D01B50D8A43DD01B50D8B409D01A04C3
:10008800D8A406D0000E1B6E50EC09F0010E19D052
:100098001B50D8B40AD0020E1A18D8A406D0000EE5
:1000A8001B6E50EC09F0020E0CD01B50D8B40BD0CC
:1000B800030E1A18D8A407D0000E1B6E50EC09F0D6
:1000C800030E166E13D01B50D8B409D0040E1A189C
:1000D800D8A405D0000E1B6E50EC09F007D0050E11
:1000E8001A18D8A403D01B1E000E176E000E1A6E25
:1000F8000FD0270E17640CD01B50D8B409D01A5053
:10010800D8A406D0000E1B6E000E176E50EC09F036
:1001180012C025F011C024F010C023F00FC022F047
:100128000EC0F5FF0DC0F8FF0CC0F7FF0BC0F6FFBF
:100138000AC0F4FF09C0F3FF08C0DAFF07C0D9FFFF
:1001480006C0E2FF05C0E1FF04C0EAFF03C0E9FF03
:1001580002C0FBFF01C0FAFF22921100EEEF08F087
:10100000004154234750494F3D372C302C320D0AB4
:101010000041542B4950523D3131353230300D0AA8
:10102000002B4350494E3A20524541445900415407
:1010300023534C45443D340D0A0041542B43504941
:101040004E3F0D0A0041542343474D520D0A0030D4
:10105000303030230031313131230041540D0A004A
:10106000312300E407E407E407E407230023002317
:101070000023002300010A0A020014012D0F0100C1
:1010800074D081A814D01450D8A411D04E0E136E71
:10109000EB0EE82EFED7132EFCD700F081A805D06A
:1010A0001A2A41EC09F0000E176E010E0BD04E0EFD
:1010B000136EEB0EE82EFED7132EFCD700F081B88E
:1010C00002D0000E146E050E1A18D8A403D01B50BF
:1010D000D8B406D01B50D8B406D01A50D8A403D028
:1010E0008A968B9802D08A868B88000E186E000E26
:1010F000196E12008B980BD08B88000E186E07D0DB
:101100001850000AD8B4F6D7010AD8B4F5D78A86A1
:10111000000E196E12008B980FD08B880DD0000E28
:10112000186E0AD01850000AD8B4F5D7050AD8B4FA
:10113000F4D7110AD8B4F3D78A96000E196E1200AC
:101140008A960FD08A860DD0000E196E0AD01950DB
:10115000000AD8B4F5D7050AD8B4F4D7110AD8B420
:10116000F3D78B98000E186E12001650000AD8B4F0
:1011700088D7010AD8B4C4D7030AD8B4D3D7010A90
:10118000D8A41200E4D7D39ED3508F0B6009D36E3E
:10119000D386010E0F01386F928092968996000EC9
:1011A0003A6F8A869396828C949C8B8E948E000ED6
:1011B000396F938094828A8293828A8493848B8805
:1011C000949881889388818A938A818C939C818E5C
:1011D000938E8092929224EC09F01200B80EF66E73
:1011E000120EF76E000EF86E00EE1CF010EE06F018
:1011F0000900F5CFEEFFE550E150FAE100EE60F0B6
:10120000640EEE6AE806FDE100EE14F0080EEE6AE8
:10121000E806FDE122902292000EF86E000149EFEF
:1012200009F0B886B88CB898B892B890AC84AC98ED
:10123000000EB06E100EAF6EAB8E948E949CAB8889
:10124000AC8A89869E9A1200F29E37EC09F0300E25
:10125000B1123F0EB116B184B180A082A192600E8E
:10126000B36E000EB26EF29EF28CF28E1200870EFA
:10127000D56E1B0ED66EA80ED76EF294F28AF28E41
:101280001200B180A082A192000EB36E000EB26E69
:101290001200C3EC08F011EC09F040EC08F0FDD7A7
:1012A000000E1A6E000E176EB190A09212001B0E67
:0E12B000D66EA80ED76E12003230323000011A
:020000040020DA
:08000000FFFFFFFFFFFFFFFF00
:020000040030CA
:0E000000FF291F22FF3D81FF00000FE00F408F
:00000001FF
